{"abi":[{"type":"constructor","inputs":[{"name":"_bettingToken","type":"address","internalType":"address"}],"stateMutability":"nonpayable"},{"type":"function","name":"bettingToken","inputs":[],"outputs":[{"name":"","type":"address","internalType":"contract IERC20"}],"stateMutability":"view"},{"type":"function","name":"calculatePotentialWinnings","inputs":[{"name":"matchId","type":"uint256","internalType":"uint256"},{"name":"amount","type":"uint256","internalType":"uint256"},{"name":"prediction","type":"uint8","internalType":"uint8"}],"outputs":[{"name":"","type":"uint256","internalType":"uint256"}],"stateMutability":"view"},{"type":"function","name":"claimWinnings","inputs":[{"name":"matchId","type":"uint256","internalType":"uint256"}],"outputs":[],"stateMutability":"nonpayable"},{"type":"function","name":"communityHub","inputs":[],"outputs":[{"name":"","type":"address","internalType":"address"}],"stateMutability":"view"},{"type":"function","name":"createMatch","inputs":[{"name":"name","type":"string","internalType":"string"},{"name":"startTime","type":"uint256","internalType":"uint256"},{"name":"endTime","type":"uint256","internalType":"uint256"},{"name":"minBet","type":"uint256","internalType":"uint256"},{"name":"maxBet","type":"uint256","internalType":"uint256"}],"outputs":[],"stateMutability":"nonpayable"},{"type":"function","name":"emergencyWithdraw","inputs":[{"name":"token","type":"address","internalType":"address"}],"outputs":[],"stateMutability":"nonpayable"},{"type":"function","name":"finalizeMatch","inputs":[{"name":"matchId","type":"uint256","internalType":"uint256"},{"name":"winner","type":"uint8","internalType":"uint8"}],"outputs":[],"stateMutability":"nonpayable"},{"type":"function","name":"getMatch","inputs":[{"name":"matchId","type":"uint256","internalType":"uint256"}],"outputs":[{"name":"","type":"tuple","internalType":"struct IBettingPool.Match","components":[{"name":"id","type":"uint256","internalType":"uint256"},{"name":"name","type":"string","internalType":"string"},{"name":"startTime","type":"uint256","internalType":"uint256"},{"name":"endTime","type":"uint256","internalType":"uint256"},{"name":"minBet","type":"uint256","internalType":"uint256"},{"name":"maxBet","type":"uint256","internalType":"uint256"},{"name":"isFinalized","type":"bool","internalType":"bool"},{"name":"winner","type":"uint8","internalType":"uint8"},{"name":"totalPoolA","type":"uint256","internalType":"uint256"},{"name":"totalPoolB","type":"uint256","internalType":"uint256"}]}],"stateMutability":"view"},{"type":"function","name":"getNextMatchId","inputs":[],"outputs":[{"name":"","type":"uint256","internalType":"uint256"}],"stateMutability":"view"},{"type":"function","name":"getProtocolFee","inputs":[],"outputs":[{"name":"","type":"uint256","internalType":"uint256"}],"stateMutability":"view"},{"type":"function","name":"getUserBet","inputs":[{"name":"matchId","type":"uint256","internalType":"uint256"},{"name":"user","type":"address","internalType":"address"}],"outputs":[{"name":"","type":"tuple","internalType":"struct IBettingPool.Bet","components":[{"name":"user","type":"address","internalType":"address"},{"name":"matchId","type":"uint256","internalType":"uint256"},{"name":"amount","type":"uint256","internalType":"uint256"},{"name":"prediction","type":"uint8","internalType":"uint8"},{"name":"claimed","type":"bool","internalType":"bool"}]}],"stateMutability":"view"},{"type":"function","name":"getUserBetHistory","inputs":[{"name":"user","type":"address","internalType":"address"}],"outputs":[{"name":"","type":"uint256[]","internalType":"uint256[]"}],"stateMutability":"view"},{"type":"function","name":"matches","inputs":[{"name":"","type":"uint256","internalType":"uint256"}],"outputs":[{"name":"id","type":"uint256","internalType":"uint256"},{"name":"name","type":"string","internalType":"string"},{"name":"startTime","type":"uint256","internalType":"uint256"},{"name":"endTime","type":"uint256","internalType":"uint256"},{"name":"minBet","type":"uint256","internalType":"uint256"},{"name":"maxBet","type":"uint256","internalType":"uint256"},{"name":"isFinalized","type":"bool","internalType":"bool"},{"name":"winner","type":"uint8","internalType":"uint8"},{"name":"totalPoolA","type":"uint256","internalType":"uint256"},{"name":"totalPoolB","type":"uint256","internalType":"uint256"}],"stateMutability":"view"},{"type":"function","name":"nextMatchId","inputs":[],"outputs":[{"name":"","type":"uint256","internalType":"uint256"}],"stateMutability":"view"},{"type":"function","name":"owner","inputs":[],"outputs":[{"name":"","type":"address","internalType":"address"}],"stateMutability":"view"},{"type":"function","name":"pause","inputs":[],"outputs":[],"stateMutability":"nonpayable"},{"type":"function","name":"paused","inputs":[],"outputs":[{"name":"","type":"bool","internalType":"bool"}],"stateMutability":"view"},{"type":"function","name":"placeBet","inputs":[{"name":"matchId","type":"uint256","internalType":"uint256"},{"name":"amount","type":"uint256","internalType":"uint256"},{"name":"prediction","type":"uint8","internalType":"uint8"}],"outputs":[],"stateMutability":"nonpayable"},{"type":"function","name":"placeTournamentBet","inputs":[{"name":"user","type":"address","internalType":"address"},{"name":"matchId","type":"uint256","internalType":"uint256"},{"name":"prediction","type":"uint8","internalType":"uint8"}],"outputs":[],"stateMutability":"nonpayable"},{"type":"function","name":"protocolFee","inputs":[],"outputs":[{"name":"","type":"uint256","internalType":"uint256"}],"stateMutability":"view"},{"type":"function","name":"renounceOwnership","inputs":[],"outputs":[],"stateMutability":"nonpayable"},{"type":"function","name":"setCommunityHub","inputs":[{"name":"_communityHub","type":"address","internalType":"address"}],"outputs":[],"stateMutability":"nonpayable"},{"type":"function","name":"setProtocolFee","inputs":[{"name":"newFee","type":"uint256","internalType":"uint256"}],"outputs":[],"stateMutability":"nonpayable"},{"type":"function","name":"setTournament","inputs":[{"name":"_tournament","type":"address","internalType":"address"}],"outputs":[],"stateMutability":"nonpayable"},{"type":"function","name":"tournament","inputs":[],"outputs":[{"name":"","type":"address","internalType":"address"}],"stateMutability":"view"},{"type":"function","name":"transferOwnership","inputs":[{"name":"newOwner","type":"address","internalType":"address"}],"outputs":[],"stateMutability":"nonpayable"},{"type":"function","name":"unpause","inputs":[],"outputs":[],"stateMutability":"nonpayable"},{"type":"function","name":"userBetHistory","inputs":[{"name":"","type":"address","internalType":"address"},{"name":"","type":"uint256","internalType":"uint256"}],"outputs":[{"name":"","type":"uint256","internalType":"uint256"}],"stateMutability":"view"},{"type":"function","name":"userBets","inputs":[{"name":"","type":"uint256","internalType":"uint256"},{"name":"","type":"address","internalType":"address"}],"outputs":[{"name":"user","type":"address","internalType":"address"},{"name":"matchId","type":"uint256","internalType":"uint256"},{"name":"amount","type":"uint256","internalType":"uint256"},{"name":"prediction","type":"uint8","internalType":"uint8"},{"name":"claimed","type":"bool","internalType":"bool"}],"stateMutability":"view"},{"type":"function","name":"validateBetParameters","inputs":[{"name":"matchId","type":"uint256","internalType":"uint256"},{"name":"amount","type":"uint256","internalType":"uint256"},{"name":"prediction","type":"uint8","internalType":"uint8"}],"outputs":[{"name":"","type":"bool","internalType":"bool"}],"stateMutability":"view"},{"type":"event","name":"BetPlaced","inputs":[{"name":"matchId","type":"uint256","indexed":true,"internalType":"uint256"},{"name":"user","type":"address","indexed":true,"internalType":"address"},{"name":"amount","type":"uint256","indexed":false,"internalType":"uint256"},{"name":"prediction","type":"uint8","indexed":false,"internalType":"uint8"}],"anonymous":false},{"type":"event","name":"CommunityHubSet","inputs":[{"name":"communityHub","type":"address","indexed":true,"internalType":"address"}],"anonymous":false},{"type":"event","name":"DebugEvent","inputs":[{"name":"message","type":"string","indexed":false,"internalType":"string"},{"name":"value","type":"uint256","indexed":false,"internalType":"uint256"}],"anonymous":false},{"type":"event","name":"EmergencyWithdraw","inputs":[{"name":"token","type":"address","indexed":false,"internalType":"address"},{"name":"amount","type":"uint256","indexed":false,"internalType":"uint256"}],"anonymous":false},{"type":"event","name":"MatchCreated","inputs":[{"name":"matchId","type":"uint256","indexed":true,"internalType":"uint256"},{"name":"name","type":"string","indexed":false,"internalType":"string"},{"name":"startTime","type":"uint256","indexed":false,"internalType":"uint256"}],"anonymous":false},{"type":"event","name":"MatchFinalized","inputs":[{"name":"matchId","type":"uint256","indexed":true,"internalType":"uint256"},{"name":"winner","type":"uint8","indexed":false,"internalType":"uint8"}],"anonymous":false},{"type":"event","name":"OwnershipTransferred","inputs":[{"name":"previousOwner","type":"address","indexed":true,"internalType":"address"},{"name":"newOwner","type":"address","indexed":true,"internalType":"address"}],"anonymous":false},{"type":"event","name":"Paused","inputs":[{"name":"account","type":"address","indexed":false,"internalType":"address"}],"anonymous":false},{"type":"event","name":"ProtocolFeeUpdated","inputs":[{"name":"newFee","type":"uint256","indexed":false,"internalType":"uint256"}],"anonymous":false},{"type":"event","name":"TournamentSet","inputs":[{"name":"tournament","type":"address","indexed":true,"internalType":"address"}],"anonymous":false},{"type":"event","name":"Unpaused","inputs":[{"name":"account","type":"address","indexed":false,"internalType":"address"}],"anonymous":false},{"type":"event","name":"WinningsClaimed","inputs":[{"name":"matchId","type":"uint256","indexed":true,"internalType":"uint256"},{"name":"user","type":"address","indexed":true,"internalType":"address"},{"name":"amount","type":"uint256","indexed":false,"internalType":"uint256"}],"anonymous":false},{"type":"error","name":"EnforcedPause","inputs":[]},{"type":"error","name":"ExpectedPause","inputs":[]},{"type":"error","name":"OwnableInvalidOwner","inputs":[{"name":"owner","type":"address","internalType":"address"}]},{"type":"error","name":"OwnableUnauthorizedAccount","inputs":[{"name":"account","type":"address","internalType":"address"}]},{"type":"error","name":"ReentrancyGuardReentrantCall","inputs":[]},{"type":"error","name":"SafeERC20FailedOperation","inputs":[{"name":"token","type":"address","internalType":"address"}]}],"bytecode":{"object":"0x60a060405234801561000f575f5ffd5b506040516150f43803806150f4833981810160405281019061003191906102a9565b335f73ffffffffffffffffffffffffffffffffffffffff168173ffffffffffffffffffffffffffffffffffffffff16036100a2575f6040517f1e4fbdf700000000000000000000000000000000000000000000000000000000815260040161009991906102e3565b60405180910390fd5b6100b18161018a60201b60201c565b505f5f60146101000a81548160ff021916908315150217905550600180819055505f73ffffffffffffffffffffffffffffffffffffffff168173ffffffffffffffffffffffffffffffffffffffff1603610140576040517f08c379a000000000000000000000000000000000000000000000000000000000815260040161013790610356565b60405180910390fd5b8073ffffffffffffffffffffffffffffffffffffffff1660808173ffffffffffffffffffffffffffffffffffffffff168152505060fa600281905550600160038190555050610374565b5f5f5f9054906101000a900473ffffffffffffffffffffffffffffffffffffffff169050815f5f6101000a81548173ffffffffffffffffffffffffffffffffffffffff021916908373ffffffffffffffffffffffffffffffffffffffff1602179055508173ffffffffffffffffffffffffffffffffffffffff168173ffffffffffffffffffffffffffffffffffffffff167f8be0079c531659141344cd1fd0a4f28419497f9722a3daafe3b4186f6b6457e060405160405180910390a35050565b5f5ffd5b5f73ffffffffffffffffffffffffffffffffffffffff82169050919050565b5f6102788261024f565b9050919050565b6102888161026e565b8114610292575f5ffd5b50565b5f815190506102a38161027f565b92915050565b5f602082840312156102be576102bd61024b565b5b5f6102cb84828501610295565b91505092915050565b6102dd8161026e565b82525050565b5f6020820190506102f65f8301846102d4565b92915050565b5f82825260208201905092915050565b7f496e76616c696420746f6b656e206164647265737300000000000000000000005f82015250565b5f6103406015836102fc565b915061034b8261030c565b602082019050919050565b5f6020820190508181035f83015261036d81610334565b9050919050565b608051614d3e6103b65f395f8181610ccb015281816111bc01528181611bf801528181611c9301528181611df20152818161227f01526123590152614d3e5ff3fe608060405234801561000f575f5ffd5b50600436106101d8575f3560e01c80637d06a8e111610102578063b0e21e8a116100a0578063cffae0521161006f578063cffae05214610515578063f1a1568714610545578063f213cfd714610575578063f2fde38b14610591576101d8565b8063b0e21e8a14610479578063b84018d214610497578063c03fb87c146104c7578063c5adf7c9146104f7576101d8565b80639257f275116100dc5780639257f275146103f3578063993ab58e146104235780639e14427e1461043f578063a5a410311461045b576101d8565b80637d06a8e1146103975780638456cb59146103cb5780638da5cb5b146103d5576101d8565b80634768d4ef1161017a578063677bd9ff11610149578063677bd9ff146103395780636ff1c9bc14610355578063715018a614610371578063787dce3d1461037b576101d8565b80634768d4ef146102a857806357a47928146102e15780635c975abb146102ff5780635e7dfd4a1461031d576101d8565b80633500836c116101b65780633500836c146102345780633d092b3d146102505780633f4ba83a1461028057806343425e881461028a576101d8565b80630d80acd8146101dc578063127949cb146101f85780631e0197e214610216575b5f5ffd5b6101f660048036038101906101f19190612ff4565b6105ad565b005b610200610817565b60405161020d91906130c6565b60405180910390f35b61021e61083c565b60405161022b91906130c6565b60405180910390f35b61024e6004803603810190610249919061313f565b610861565b005b61026a6004803603810190610265919061318f565b610b7f565b6040516102779190613329565b60405180910390f35b610288610cb7565b005b610292610cc9565b60405161029f91906133a4565b60405180910390f35b6102c260048036038101906102bd919061318f565b610ced565b6040516102d89a99989796959493929190613432565b60405180910390f35b6102e9610ddc565b6040516102f691906134d3565b60405180910390f35b610307610de5565b60405161031491906134ec565b60405180910390f35b61033760048036038101906103329190613505565b610dfa565b005b610353600480360381019061034e919061318f565b610ef6565b005b61036f600480360381019061036a9190613505565b61133f565b005b6103796114e6565b005b6103956004803603810190610390919061318f565b6114f9565b005b6103b160048036038101906103ac9190613530565b611587565b6040516103c295949392919061356e565b60405180910390f35b6103d36115fc565b005b6103dd61160e565b6040516103ea91906130c6565b60405180910390f35b61040d600480360381019061040891906135bf565b611635565b60405161041a91906134d3565b60405180910390f35b61043d60048036038101906104389190613505565b6116f0565b005b610459600480360381019061045491906135bf565b6117ec565b005b6104636120cd565b60405161047091906134d3565b60405180910390f35b6104816120d6565b60405161048e91906134d3565b60405180910390f35b6104b160048036038101906104ac9190613505565b6120dc565b6040516104be91906136b7565b60405180910390f35b6104e160048036038101906104dc9190613530565b61216f565b6040516104ee919061374c565b60405180910390f35b6104ff612275565b60405161050c91906134d3565b60405180910390f35b61052f600480360381019061052a91906135bf565b61227b565b60405161053c91906134ec565b60405180910390f35b61055f600480360381019061055a9190613765565b6126d5565b60405161056c91906134d3565b60405180910390f35b61058f600480360381019061058a91906137a3565b612700565b005b6105ab60048036038101906105a69190613505565b6128de565b005b5f8551116105f0576040517f08c379a00000000000000000000000000000000000000000000000000000000081526004016105e79061382b565b60405180910390fd5b428411610632576040517f08c379a000000000000000000000000000000000000000000000000000000000815260040161062990613893565b60405180910390fd5b838311610674576040517f08c379a000000000000000000000000000000000000000000000000000000000815260040161066b906138fb565b60405180910390fd5b5f8211801561068257508181115b6106c1576040517f08c379a00000000000000000000000000000000000000000000000000000000081526004016106b890613963565b60405180910390fd5b5f60035f8154809291906106d4906139ae565b9190505590506040518061014001604052808281526020018781526020018681526020018581526020018481526020018381526020015f151581526020015f60ff1681526020015f81526020015f81525060065f8381526020019081526020015f205f820151815f015560208201518160010190816107539190613be9565b5060408201518160020155606082015181600301556080820151816004015560a0820151816005015560c0820151816006015f6101000a81548160ff02191690831515021790555060e08201518160060160016101000a81548160ff021916908360ff16021790555061010082015181600701556101208201518160080155905050807f69a37531de37a5a53f6e93a87bd1c8ec3b0fa7a241ffb6b38a1b2b90f72350de8787604051610807929190613cb8565b60405180910390a2505050505050565b60055f9054906101000a900473ffffffffffffffffffffffffffffffffffffffff1681565b60045f9054906101000a900473ffffffffffffffffffffffffffffffffffffffff1681565b818060065f8381526020019081526020015f205f0154146108b7576040517f08c379a00000000000000000000000000000000000000000000000000000000081526004016108ae90613d30565b60405180910390fd5b8260065f8281526020019081526020015f2060020154421061090e576040517f08c379a000000000000000000000000000000000000000000000000000000000815260040161090590613d98565b60405180910390fd5b60045f9054906101000a900473ffffffffffffffffffffffffffffffffffffffff1673ffffffffffffffffffffffffffffffffffffffff163373ffffffffffffffffffffffffffffffffffffffff161461099d576040517f08c379a000000000000000000000000000000000000000000000000000000000815260040161099490613e00565b60405180910390fd5b6040518060a001604052808673ffffffffffffffffffffffffffffffffffffffff1681526020018581526020015f81526020018460ff1681526020015f151581525060075f8681526020019081526020015f205f8773ffffffffffffffffffffffffffffffffffffffff1673ffffffffffffffffffffffffffffffffffffffff1681526020019081526020015f205f820151815f015f6101000a81548173ffffffffffffffffffffffffffffffffffffffff021916908373ffffffffffffffffffffffffffffffffffffffff16021790555060208201518160010155604082015181600201556060820151816003015f6101000a81548160ff021916908360ff16021790555060808201518160030160016101000a81548160ff02191690831515021790555090505060085f8673ffffffffffffffffffffffffffffffffffffffff1673ffffffffffffffffffffffffffffffffffffffff1681526020019081526020015f2084908060018154018082558091505060019003905f5260205f20015f90919091909150558473ffffffffffffffffffffffffffffffffffffffff16847fe90186097616cbeb30ffc786b44501e1362f5e0a316a96c5ab82a0551f9d2f055f86604051610b70929190613e57565b60405180910390a35050505050565b610b87612de0565b60065f8381526020019081526020015f20604051806101400160405290815f8201548152602001600182018054610bbd90613a22565b80601f0160208091040260200160405190810160405280929190818152602001828054610be990613a22565b8015610c345780601f10610c0b57610100808354040283529160200191610c34565b820191905f5260205f20905b815481529060010190602001808311610c1757829003601f168201915b5050505050815260200160028201548152602001600382015481526020016004820154815260200160058201548152602001600682015f9054906101000a900460ff161515151581526020016006820160019054906101000a900460ff1660ff1660ff168152602001600782015481526020016008820154815250509050919050565b610cbf612962565b610cc76129e9565b565b7f000000000000000000000000000000000000000000000000000000000000000081565b6006602052805f5260405f205f91509050805f015490806001018054610d1290613a22565b80601f0160208091040260200160405190810160405280929190818152602001828054610d3e90613a22565b8015610d895780601f10610d6057610100808354040283529160200191610d89565b820191905f5260205f20905b815481529060010190602001808311610d6c57829003601f168201915b505050505090806002015490806003015490806004015490806005015490806006015f9054906101000a900460ff16908060060160019054906101000a900460ff1690806007015490806008015490508a565b5f600354905090565b5f5f60149054906101000a900460ff16905090565b610e02612962565b5f73ffffffffffffffffffffffffffffffffffffffff168173ffffffffffffffffffffffffffffffffffffffff1603610e70576040517f08c379a0000000000000000000000000000000000000000000000000000000008152600401610e6790613ec8565b60405180910390fd5b8060055f6101000a81548173ffffffffffffffffffffffffffffffffffffffff021916908373ffffffffffffffffffffffffffffffffffffffff1602179055508073ffffffffffffffffffffffffffffffffffffffff167fc45061a24a71fcf3ea91ac08c21c1c8fbb8b2d68b36d3c58f6cfda82106aef4f60405160405180910390a250565b610efe612a4a565b808060065f8381526020019081526020015f205f015414610f54576040517f08c379a0000000000000000000000000000000000000000000000000000000008152600401610f4b90613d30565b60405180910390fd5b5f60065f8481526020019081526020015f209050806006015f9054906101000a900460ff16610fb8576040517f08c379a0000000000000000000000000000000000000000000000000000000008152600401610faf90613f30565b60405180910390fd5b5f60075f8581526020019081526020015f205f3373ffffffffffffffffffffffffffffffffffffffff1673ffffffffffffffffffffffffffffffffffffffff1681526020019081526020015f2090505f81600201541161104d576040517f08c379a000000000000000000000000000000000000000000000000000000000815260040161104490613f98565b60405180910390fd5b8060030160019054906101000a900460ff161561109f576040517f08c379a000000000000000000000000000000000000000000000000000000000815260040161109690614000565b60405180910390fd5b8160060160019054906101000a900460ff1660ff16816003015f9054906101000a900460ff1660ff1614611108576040517f08c379a00000000000000000000000000000000000000000000000000000000081526004016110ff90614068565b60405180910390fd5b60018160030160016101000a81548160ff0219169083151502179055505f60018360060160019054906101000a900460ff1660ff161461114c578260080154611152565b82600701545b90505f836008015484600701546111699190614086565b90505f8282856002015461117d91906140b9565b6111879190614127565b90505f6127106002548361119b91906140b9565b6111a59190614127565b905080826111b39190614157565b915061120033837f000000000000000000000000000000000000000000000000000000000000000073ffffffffffffffffffffffffffffffffffffffff16612a909092919063ffffffff16565b5f73ffffffffffffffffffffffffffffffffffffffff1660055f9054906101000a900473ffffffffffffffffffffffffffffffffffffffff1673ffffffffffffffffffffffffffffffffffffffff16146112de5760055f9054906101000a900473ffffffffffffffffffffffffffffffffffffffff1673ffffffffffffffffffffffffffffffffffffffff1663a8031a1d33846040518363ffffffff1660e01b81526004016112b092919061418a565b5f604051808303815f87803b1580156112c7575f5ffd5b505af11580156112d9573d5f5f3e3d5ffd5b505050505b3373ffffffffffffffffffffffffffffffffffffffff16887f5380cf6fe903b40c6d5a9e0dfbca2f3a423f0a21520b4d5947ed5169bdba946d8460405161132591906134d3565b60405180910390a35050505050505061133c612b0f565b50565b611347612962565b5f73ffffffffffffffffffffffffffffffffffffffff168173ffffffffffffffffffffffffffffffffffffffff16036113b5576040517f08c379a00000000000000000000000000000000000000000000000000000000081526004016113ac906141fb565b60405180910390fd5b5f8190505f8173ffffffffffffffffffffffffffffffffffffffff166370a08231306040518263ffffffff1660e01b81526004016113f391906130c6565b602060405180830381865afa15801561140e573d5f5f3e3d5ffd5b505050506040513d601f19601f82011682018060405250810190611432919061422d565b90505f8111611476576040517f08c379a000000000000000000000000000000000000000000000000000000000815260040161146d906142a2565b60405180910390fd5b6114a861148161160e565b828473ffffffffffffffffffffffffffffffffffffffff16612a909092919063ffffffff16565b7f5fafa99d0643513820be26656b45130b01e1c03062e1266bf36f88cbd3bd969583826040516114d992919061418a565b60405180910390a1505050565b6114ee612962565b6114f75f612b18565b565b611501612962565b6103e8811115611546576040517f08c379a000000000000000000000000000000000000000000000000000000000815260040161153d9061430a565b60405180910390fd5b806002819055507fd10d75876659a287a59a6ccfa2e3fff42f84d94b542837acd30bc184d562de408160405161157c91906134d3565b60405180910390a150565b6007602052815f5260405f20602052805f5260405f205f9150915050805f015f9054906101000a900473ffffffffffffffffffffffffffffffffffffffff1690806001015490806002015490806003015f9054906101000a900460ff16908060030160019054906101000a900460ff16905085565b611604612962565b61160c612bd9565b565b5f5f5f9054906101000a900473ffffffffffffffffffffffffffffffffffffffff16905090565b5f5f60065f8681526020019081526020015f2090505f60018460ff1614611660578160080154611666565b81600701545b90505f8260080154836007015461167d9190614086565b90505f820361169d5760028661169391906140b9565b93505050506116e9565b5f8282886116ab91906140b9565b6116b59190614127565b90505f612710600254836116c991906140b9565b6116d39190614127565b905080826116e19190614157565b955050505050505b9392505050565b6116f8612962565b5f73ffffffffffffffffffffffffffffffffffffffff168173ffffffffffffffffffffffffffffffffffffffff1603611766576040517f08c379a000000000000000000000000000000000000000000000000000000000815260040161175d90614372565b60405180910390fd5b8060045f6101000a81548173ffffffffffffffffffffffffffffffffffffffff021916908373ffffffffffffffffffffffffffffffffffffffff1602179055508073ffffffffffffffffffffffffffffffffffffffff167fbb4f3f7196d5a1c6db1c04fd4e78790c124195d0dc1e299ac6dd264d6fa365bc60405160405180910390a250565b6117f4612c3b565b7f7896124430355ea9a2e8a41136ae8f37ec84f6a07c108a3a75a070e526e0f2d98360405161182391906143da565b60405180910390a15f8311801561183b575060035483105b801561185957508260065f8581526020019081526020015f205f0154145b611898576040517f08c379a000000000000000000000000000000000000000000000000000000000815260040161188f90613d30565b60405180910390fd5b7f7896124430355ea9a2e8a41136ae8f37ec84f6a07c108a3a75a070e526e0f2d9836040516118c79190614450565b60405180910390a15f60065f8581526020019081526020015f20905080600201544210611929576040517f08c379a000000000000000000000000000000000000000000000000000000000815260040161192090613d98565b60405180910390fd5b7f7896124430355ea9a2e8a41136ae8f37ec84f6a07c108a3a75a070e526e0f2d9816002015460405161195c91906144c6565b60405180910390a160018260ff161480611979575060028260ff16145b6119b8576040517f08c379a00000000000000000000000000000000000000000000000000000000081526004016119af9061453c565b60405180910390fd5b7f7896124430355ea9a2e8a41136ae8f37ec84f6a07c108a3a75a070e526e0f2d9826040516119e791906145d4565b60405180910390a15f8311611a31576040517f08c379a0000000000000000000000000000000000000000000000000000000008152600401611a289061464a565b60405180910390fd5b7f7896124430355ea9a2e8a41136ae8f37ec84f6a07c108a3a75a070e526e0f2d983604051611a6091906146b2565b60405180910390a18060040154831015611aaf576040517f08c379a0000000000000000000000000000000000000000000000000000000008152600401611aa690614728565b60405180910390fd5b8060050154831115611af6576040517f08c379a0000000000000000000000000000000000000000000000000000000008152600401611aed90614790565b60405180910390fd5b7f7896124430355ea9a2e8a41136ae8f37ec84f6a07c108a3a75a070e526e0f2d983604051611b2591906147f8565b60405180910390a15f60075f8681526020019081526020015f205f3373ffffffffffffffffffffffffffffffffffffffff1673ffffffffffffffffffffffffffffffffffffffff1681526020019081526020015f206002015414611bbe576040517f08c379a0000000000000000000000000000000000000000000000000000000008152600401611bb59061486e565b60405180910390fd5b7f7896124430355ea9a2e8a41136ae8f37ec84f6a07c108a3a75a070e526e0f2d984604051611bed91906148d6565b60405180910390a15f7f000000000000000000000000000000000000000000000000000000000000000073ffffffffffffffffffffffffffffffffffffffff166370a08231336040518263ffffffff1660e01b8152600401611c4f91906130c6565b602060405180830381865afa158015611c6a573d5f5f3e3d5ffd5b505050506040513d601f19601f82011682018060405250810190611c8e919061422d565b90505f7f000000000000000000000000000000000000000000000000000000000000000073ffffffffffffffffffffffffffffffffffffffff1663dd62ed3e33306040518363ffffffff1660e01b8152600401611cec929190614902565b602060405180830381865afa158015611d07573d5f5f3e3d5ffd5b505050506040513d601f19601f82011682018060405250810190611d2b919061422d565b905084821015611d70576040517f08c379a0000000000000000000000000000000000000000000000000000000008152600401611d6790614973565b60405180910390fd5b84811015611db3576040517f08c379a0000000000000000000000000000000000000000000000000000000008152600401611daa906149db565b60405180910390fd5b7f7896124430355ea9a2e8a41136ae8f37ec84f6a07c108a3a75a070e526e0f2d982604051611de29190614a43565b60405180910390a1611e373330877f000000000000000000000000000000000000000000000000000000000000000073ffffffffffffffffffffffffffffffffffffffff16612c7c909392919063ffffffff16565b7f7896124430355ea9a2e8a41136ae8f37ec84f6a07c108a3a75a070e526e0f2d985604051611e669190614ab9565b60405180910390a16040518060a001604052803373ffffffffffffffffffffffffffffffffffffffff1681526020018781526020018681526020018560ff1681526020015f151581525060075f8881526020019081526020015f205f3373ffffffffffffffffffffffffffffffffffffffff1673ffffffffffffffffffffffffffffffffffffffff1681526020019081526020015f205f820151815f015f6101000a81548173ffffffffffffffffffffffffffffffffffffffff021916908373ffffffffffffffffffffffffffffffffffffffff16021790555060208201518160010155604082015181600201556060820151816003015f6101000a81548160ff021916908360ff16021790555060808201518160030160016101000a81548160ff02191690831515021790555090505060018460ff1603611fc15784836007015f828254611fb59190614086565b92505081905550611fdc565b84836008015f828254611fd49190614086565b925050819055505b60085f3373ffffffffffffffffffffffffffffffffffffffff1673ffffffffffffffffffffffffffffffffffffffff1681526020019081526020015f2086908060018154018082558091505060019003905f5260205f20015f90919091909150557f7896124430355ea9a2e8a41136ae8f37ec84f6a07c108a3a75a070e526e0f2d98660405161206c9190614b2f565b60405180910390a13373ffffffffffffffffffffffffffffffffffffffff16867fe90186097616cbeb30ffc786b44501e1362f5e0a316a96c5ab82a0551f9d2f0587876040516120bd929190614b5b565b60405180910390a3505050505050565b5f600254905090565b60025481565b606060085f8373ffffffffffffffffffffffffffffffffffffffff1673ffffffffffffffffffffffffffffffffffffffff1681526020019081526020015f2080548060200260200160405190810160405280929190818152602001828054801561216357602002820191905f5260205f20905b81548152602001906001019080831161214f575b50505050509050919050565b612177612e2f565b60075f8481526020019081526020015f205f8373ffffffffffffffffffffffffffffffffffffffff1673ffffffffffffffffffffffffffffffffffffffff1681526020019081526020015f206040518060a00160405290815f82015f9054906101000a900473ffffffffffffffffffffffffffffffffffffffff1673ffffffffffffffffffffffffffffffffffffffff1673ffffffffffffffffffffffffffffffffffffffff1681526020016001820154815260200160028201548152602001600382015f9054906101000a900460ff1660ff1660ff1681526020016003820160019054906101000a900460ff161515151581525050905092915050565b60035481565b5f827f000000000000000000000000000000000000000000000000000000000000000073ffffffffffffffffffffffffffffffffffffffff166370a08231336040518263ffffffff1660e01b81526004016122d691906130c6565b602060405180830381865afa1580156122f1573d5f5f3e3d5ffd5b505050506040513d601f19601f82011682018060405250810190612315919061422d565b1015612356576040517f08c379a000000000000000000000000000000000000000000000000000000000815260040161234d90614973565b60405180910390fd5b827f000000000000000000000000000000000000000000000000000000000000000073ffffffffffffffffffffffffffffffffffffffff1663dd62ed3e33306040518363ffffffff1660e01b81526004016123b2929190614902565b602060405180830381865afa1580156123cd573d5f5f3e3d5ffd5b505050506040513d601f19601f820116820180604052508101906123f1919061422d565b1015612432576040517f08c379a0000000000000000000000000000000000000000000000000000000008152600401612429906149db565b60405180910390fd5b5f84118015612442575060035484105b801561246057508360065f8681526020019081526020015f205f0154145b61249f576040517f08c379a000000000000000000000000000000000000000000000000000000000815260040161249690613d30565b60405180910390fd5b60065f8581526020019081526020015f206002015442106124f5576040517f08c379a00000000000000000000000000000000000000000000000000000000081526004016124ec90613d98565b60405180910390fd5b60018260ff16148061250a575060028260ff16145b612549576040517f08c379a00000000000000000000000000000000000000000000000000000000081526004016125409061453c565b60405180910390fd5b5f831161258b576040517f08c379a00000000000000000000000000000000000000000000000000000000081526004016125829061464a565b60405180910390fd5b60065f8581526020019081526020015f20600401548310156125e2576040517f08c379a00000000000000000000000000000000000000000000000000000000081526004016125d990614728565b60405180910390fd5b60065f8581526020019081526020015f2060050154831115612639576040517f08c379a000000000000000000000000000000000000000000000000000000000815260040161263090614790565b60405180910390fd5b5f60075f8681526020019081526020015f205f3373ffffffffffffffffffffffffffffffffffffffff1673ffffffffffffffffffffffffffffffffffffffff1681526020019081526020015f2060020154146126ca576040517f08c379a00000000000000000000000000000000000000000000000000000000081526004016126c19061486e565b60405180910390fd5b600190509392505050565b6008602052815f5260405f2081815481106126ee575f80fd5b905f5260205f20015f91509150505481565b818060065f8381526020019081526020015f205f015414612756576040517f08c379a000000000000000000000000000000000000000000000000000000000815260040161274d90613d30565b60405180910390fd5b8260065f8281526020019081526020015f206003015442116127ad576040517f08c379a00000000000000000000000000000000000000000000000000000000081526004016127a490614bcc565b60405180910390fd5b5f60065f8681526020019081526020015f209050806006015f9054906101000a900460ff1615612812576040517f08c379a000000000000000000000000000000000000000000000000000000000815260040161280990614c34565b60405180910390fd5b60018460ff161480612827575060028460ff16145b612866576040517f08c379a000000000000000000000000000000000000000000000000000000000815260040161285d90614c9c565b60405180910390fd5b838160060160016101000a81548160ff021916908360ff1602179055506001816006015f6101000a81548160ff021916908315150217905550847fb21c6c267c5a3609aece227ea8d6e069f2e4dc0f731e75912f1ca7519c093c78856040516128cf9190614cba565b60405180910390a25050505050565b6128e6612962565b5f73ffffffffffffffffffffffffffffffffffffffff168173ffffffffffffffffffffffffffffffffffffffff1603612956575f6040517f1e4fbdf700000000000000000000000000000000000000000000000000000000815260040161294d91906130c6565b60405180910390fd5b61295f81612b18565b50565b61296a612cfe565b73ffffffffffffffffffffffffffffffffffffffff1661298861160e565b73ffffffffffffffffffffffffffffffffffffffff16146129e7576129ab612cfe565b6040517f118cdaa70000000000000000000000000000000000000000000000000000000081526004016129de91906130c6565b60405180910390fd5b565b6129f1612d05565b5f5f60146101000a81548160ff0219169083151502179055507f5db9ee0a495bf2e6ff9c91a7834c1ba4fdd244a5e8aa4e537bd38aeae4b073aa612a33612cfe565b604051612a4091906130c6565b60405180910390a1565b600260015403612a86576040517f3ee5aeb500000000000000000000000000000000000000000000000000000000815260040160405180910390fd5b6002600181905550565b612b0a838473ffffffffffffffffffffffffffffffffffffffff1663a9059cbb8585604051602401612ac392919061418a565b604051602081830303815290604052915060e01b6020820180517bffffffffffffffffffffffffffffffffffffffffffffffffffffffff8381831617835250505050612d45565b505050565b60018081905550565b5f5f5f9054906101000a900473ffffffffffffffffffffffffffffffffffffffff169050815f5f6101000a81548173ffffffffffffffffffffffffffffffffffffffff021916908373ffffffffffffffffffffffffffffffffffffffff1602179055508173ffffffffffffffffffffffffffffffffffffffff168173ffffffffffffffffffffffffffffffffffffffff167f8be0079c531659141344cd1fd0a4f28419497f9722a3daafe3b4186f6b6457e060405160405180910390a35050565b612be1612c3b565b60015f60146101000a81548160ff0219169083151502179055507f62e78cea01bee320cd4e420270b5ea74000d11b0c9f74754ebdbfc544b05a258612c24612cfe565b604051612c3191906130c6565b60405180910390a1565b612c43610de5565b15612c7a576040517fd93c066500000000000000000000000000000000000000000000000000000000815260040160405180910390fd5b565b612cf8848573ffffffffffffffffffffffffffffffffffffffff166323b872dd868686604051602401612cb193929190614cd3565b604051602081830303815290604052915060e01b6020820180517bffffffffffffffffffffffffffffffffffffffffffffffffffffffff8381831617835250505050612d45565b50505050565b5f33905090565b612d0d610de5565b612d43576040517f8dfc202b00000000000000000000000000000000000000000000000000000000815260040160405180910390fd5b565b5f5f60205f8451602086015f885af180612d64576040513d5f823e3d81fd5b3d92505f519150505f8214612d7d576001811415612d98565b5f8473ffffffffffffffffffffffffffffffffffffffff163b145b15612dda57836040517f5274afe7000000000000000000000000000000000000000000000000000000008152600401612dd191906130c6565b60405180910390fd5b50505050565b6040518061014001604052805f8152602001606081526020015f81526020015f81526020015f81526020015f81526020015f151581526020015f60ff1681526020015f81526020015f81525090565b6040518060a001604052805f73ffffffffffffffffffffffffffffffffffffffff1681526020015f81526020015f81526020015f60ff1681526020015f151581525090565b5f604051905090565b5f5ffd5b5f5ffd5b5f5ffd5b5f5ffd5b5f601f19601f8301169050919050565b7f4e487b71000000000000000000000000000000000000000000000000000000005f52604160045260245ffd5b612ed382612e8d565b810181811067ffffffffffffffff82111715612ef257612ef1612e9d565b5b80604052505050565b5f612f04612e74565b9050612f108282612eca565b919050565b5f67ffffffffffffffff821115612f2f57612f2e612e9d565b5b612f3882612e8d565b9050602081019050919050565b828183375f83830152505050565b5f612f65612f6084612f15565b612efb565b905082815260208101848484011115612f8157612f80612e89565b5b612f8c848285612f45565b509392505050565b5f82601f830112612fa857612fa7612e85565b5b8135612fb8848260208601612f53565b91505092915050565b5f819050919050565b612fd381612fc1565b8114612fdd575f5ffd5b50565b5f81359050612fee81612fca565b92915050565b5f5f5f5f5f60a0868803121561300d5761300c612e7d565b5b5f86013567ffffffffffffffff81111561302a57613029612e81565b5b61303688828901612f94565b955050602061304788828901612fe0565b945050604061305888828901612fe0565b935050606061306988828901612fe0565b925050608061307a88828901612fe0565b9150509295509295909350565b5f73ffffffffffffffffffffffffffffffffffffffff82169050919050565b5f6130b082613087565b9050919050565b6130c0816130a6565b82525050565b5f6020820190506130d95f8301846130b7565b92915050565b6130e8816130a6565b81146130f2575f5ffd5b50565b5f81359050613103816130df565b92915050565b5f60ff82169050919050565b61311e81613109565b8114613128575f5ffd5b50565b5f8135905061313981613115565b92915050565b5f5f5f6060848603121561315657613155612e7d565b5b5f613163868287016130f5565b935050602061317486828701612fe0565b92505060406131858682870161312b565b9150509250925092565b5f602082840312156131a4576131a3612e7d565b5b5f6131b184828501612fe0565b91505092915050565b6131c381612fc1565b82525050565b5f81519050919050565b5f82825260208201905092915050565b8281835e5f83830152505050565b5f6131fb826131c9565b61320581856131d3565b93506132158185602086016131e3565b61321e81612e8d565b840191505092915050565b5f8115159050919050565b61323d81613229565b82525050565b61324c81613109565b82525050565b5f61014083015f8301516132685f8601826131ba565b506020830151848203602086015261328082826131f1565b915050604083015161329560408601826131ba565b5060608301516132a860608601826131ba565b5060808301516132bb60808601826131ba565b5060a08301516132ce60a08601826131ba565b5060c08301516132e160c0860182613234565b5060e08301516132f460e0860182613243565b506101008301516133096101008601826131ba565b5061012083015161331e6101208601826131ba565b508091505092915050565b5f6020820190508181035f8301526133418184613252565b905092915050565b5f819050919050565b5f61336c61336761336284613087565b613349565b613087565b9050919050565b5f61337d82613352565b9050919050565b5f61338e82613373565b9050919050565b61339e81613384565b82525050565b5f6020820190506133b75f830184613395565b92915050565b6133c681612fc1565b82525050565b5f82825260208201905092915050565b5f6133e6826131c9565b6133f081856133cc565b93506134008185602086016131e3565b61340981612e8d565b840191505092915050565b61341d81613229565b82525050565b61342c81613109565b82525050565b5f610140820190506134465f83018d6133bd565b8181036020830152613458818c6133dc565b9050613467604083018b6133bd565b613474606083018a6133bd565b61348160808301896133bd565b61348e60a08301886133bd565b61349b60c0830187613414565b6134a860e0830186613423565b6134b66101008301856133bd565b6134c46101208301846133bd565b9b9a5050505050505050505050565b5f6020820190506134e65f8301846133bd565b92915050565b5f6020820190506134ff5f830184613414565b92915050565b5f6020828403121561351a57613519612e7d565b5b5f613527848285016130f5565b91505092915050565b5f5f6040838503121561354657613545612e7d565b5b5f61355385828601612fe0565b9250506020613564858286016130f5565b9150509250929050565b5f60a0820190506135815f8301886130b7565b61358e60208301876133bd565b61359b60408301866133bd565b6135a86060830185613423565b6135b56080830184613414565b9695505050505050565b5f5f5f606084860312156135d6576135d5612e7d565b5b5f6135e386828701612fe0565b93505060206135f486828701612fe0565b92505060406136058682870161312b565b9150509250925092565b5f81519050919050565b5f82825260208201905092915050565b5f819050602082019050919050565b5f61364383836131ba565b60208301905092915050565b5f602082019050919050565b5f6136658261360f565b61366f8185613619565b935061367a83613629565b805f5b838110156136aa5781516136918882613638565b975061369c8361364f565b92505060018101905061367d565b5085935050505092915050565b5f6020820190508181035f8301526136cf818461365b565b905092915050565b6136e0816130a6565b82525050565b60a082015f8201516136fa5f8501826136d7565b50602082015161370d60208501826131ba565b50604082015161372060408501826131ba565b5060608201516137336060850182613243565b5060808201516137466080850182613234565b50505050565b5f60a08201905061375f5f8301846136e6565b92915050565b5f5f6040838503121561377b5761377a612e7d565b5b5f613788858286016130f5565b925050602061379985828601612fe0565b9150509250929050565b5f5f604083850312156137b9576137b8612e7d565b5b5f6137c685828601612fe0565b92505060206137d78582860161312b565b9150509250929050565b7f496e76616c6964206e616d6500000000000000000000000000000000000000005f82015250565b5f613815600c836133cc565b9150613820826137e1565b602082019050919050565b5f6020820190508181035f83015261384281613809565b9050919050565b7f496e76616c69642073746172742074696d6500000000000000000000000000005f82015250565b5f61387d6012836133cc565b915061388882613849565b602082019050919050565b5f6020820190508181035f8301526138aa81613871565b9050919050565b7f496e76616c696420656e642074696d65000000000000000000000000000000005f82015250565b5f6138e56010836133cc565b91506138f0826138b1565b602082019050919050565b5f6020820190508181035f830152613912816138d9565b9050919050565b7f496e76616c696420626574206c696d69747300000000000000000000000000005f82015250565b5f61394d6012836133cc565b915061395882613919565b602082019050919050565b5f6020820190508181035f83015261397a81613941565b9050919050565b7f4e487b71000000000000000000000000000000000000000000000000000000005f52601160045260245ffd5b5f6139b882612fc1565b91507fffffffffffffffffffffffffffffffffffffffffffffffffffffffffffffffff82036139ea576139e9613981565b5b600182019050919050565b7f4e487b71000000000000000000000000000000000000000000000000000000005f52602260045260245ffd5b5f6002820490506001821680613a3957607f821691505b602082108103613a4c57613a4b6139f5565b5b50919050565b5f819050815f5260205f209050919050565b5f6020601f8301049050919050565b5f82821b905092915050565b5f60088302613aae7fffffffffffffffffffffffffffffffffffffffffffffffffffffffffffffffff82613a73565b613ab88683613a73565b95508019841693508086168417925050509392505050565b5f613aea613ae5613ae084612fc1565b613349565b612fc1565b9050919050565b5f819050919050565b613b0383613ad0565b613b17613b0f82613af1565b848454613a7f565b825550505050565b5f5f905090565b613b2e613b1f565b613b39818484613afa565b505050565b5b81811015613b5c57613b515f82613b26565b600181019050613b3f565b5050565b601f821115613ba157613b7281613a52565b613b7b84613a64565b81016020851015613b8a578190505b613b9e613b9685613a64565b830182613b3e565b50505b505050565b5f82821c905092915050565b5f613bc15f1984600802613ba6565b1980831691505092915050565b5f613bd98383613bb2565b9150826002028217905092915050565b613bf2826131c9565b67ffffffffffffffff811115613c0b57613c0a612e9d565b5b613c158254613a22565b613c20828285613b60565b5f60209050601f831160018114613c51575f8415613c3f578287015190505b613c498582613bce565b865550613cb0565b601f198416613c5f86613a52565b5f5b82811015613c8657848901518255600182019150602085019450602081019050613c61565b86831015613ca35784890151613c9f601f891682613bb2565b8355505b6001600288020188555050505b505050505050565b5f6040820190508181035f830152613cd081856133dc565b9050613cdf60208301846133bd565b9392505050565b7f4d6174636820646f6573206e6f742065786973740000000000000000000000005f82015250565b5f613d1a6014836133cc565b9150613d2582613ce6565b602082019050919050565b5f6020820190508181035f830152613d4781613d0e565b9050919050565b7f4d6174636820616c7265616479207374617274656400000000000000000000005f82015250565b5f613d826015836133cc565b9150613d8d82613d4e565b602082019050919050565b5f6020820190508181035f830152613daf81613d76565b9050919050565b7f4f6e6c7920746f75726e616d656e7400000000000000000000000000000000005f82015250565b5f613dea600f836133cc565b9150613df582613db6565b602082019050919050565b5f6020820190508181035f830152613e1781613dde565b9050919050565b5f819050919050565b5f613e41613e3c613e3784613e1e565b613349565b612fc1565b9050919050565b613e5181613e27565b82525050565b5f604082019050613e6a5f830185613e48565b613e776020830184613423565b9392505050565b7f496e76616c696420636f6d6d756e6974792068756220616464726573730000005f82015250565b5f613eb2601d836133cc565b9150613ebd82613e7e565b602082019050919050565b5f6020820190508181035f830152613edf81613ea6565b9050919050565b7f4d61746368206e6f742066696e616c697a6564000000000000000000000000005f82015250565b5f613f1a6013836133cc565b9150613f2582613ee6565b602082019050919050565b5f6020820190508181035f830152613f4781613f0e565b9050919050565b7f4e6f2062657420706c61636564000000000000000000000000000000000000005f82015250565b5f613f82600d836133cc565b9150613f8d82613f4e565b602082019050919050565b5f6020820190508181035f830152613faf81613f76565b9050919050565b7f416c726561647920636c61696d656400000000000000000000000000000000005f82015250565b5f613fea600f836133cc565b9150613ff582613fb6565b602082019050919050565b5f6020820190508181035f83015261401781613fde565b9050919050565b7f42657420646964206e6f742077696e00000000000000000000000000000000005f82015250565b5f614052600f836133cc565b915061405d8261401e565b602082019050919050565b5f6020820190508181035f83015261407f81614046565b9050919050565b5f61409082612fc1565b915061409b83612fc1565b92508282019050808211156140b3576140b2613981565b5b92915050565b5f6140c382612fc1565b91506140ce83612fc1565b92508282026140dc81612fc1565b915082820484148315176140f3576140f2613981565b5b5092915050565b7f4e487b71000000000000000000000000000000000000000000000000000000005f52601260045260245ffd5b5f61413182612fc1565b915061413c83612fc1565b92508261414c5761414b6140fa565b5b828204905092915050565b5f61416182612fc1565b915061416c83612fc1565b925082820390508181111561418457614183613981565b5b92915050565b5f60408201905061419d5f8301856130b7565b6141aa60208301846133bd565b9392505050565b7f496e76616c696420746f6b656e000000000000000000000000000000000000005f82015250565b5f6141e5600d836133cc565b91506141f0826141b1565b602082019050919050565b5f6020820190508181035f830152614212816141d9565b9050919050565b5f8151905061422781612fca565b92915050565b5f6020828403121561424257614241612e7d565b5b5f61424f84828501614219565b91505092915050565b7f4e6f2062616c616e636520746f207769746864726177000000000000000000005f82015250565b5f61428c6016836133cc565b915061429782614258565b602082019050919050565b5f6020820190508181035f8301526142b981614280565b9050919050565b7f46656520746f6f206869676800000000000000000000000000000000000000005f82015250565b5f6142f4600c836133cc565b91506142ff826142c0565b602082019050919050565b5f6020820190508181035f830152614321816142e8565b9050919050565b7f496e76616c696420746f75726e616d656e7420616464726573730000000000005f82015250565b5f61435c601a836133cc565b915061436782614328565b602082019050919050565b5f6020820190508181035f83015261438981614350565b9050919050565b7f456e746572656420706c616365426574000000000000000000000000000000005f82015250565b5f6143c46010836133cc565b91506143cf82614390565b602082019050919050565b5f6040820190508181035f8301526143f1816143b8565b905061440060208301846133bd565b92915050565b7f4d617463682065786973747300000000000000000000000000000000000000005f82015250565b5f61443a600c836133cc565b915061444582614406565b602082019050919050565b5f6040820190508181035f8301526144678161442e565b905061447660208301846133bd565b92915050565b7f4d61746368206e6f7420737461727465640000000000000000000000000000005f82015250565b5f6144b06011836133cc565b91506144bb8261447c565b602082019050919050565b5f6040820190508181035f8301526144dd816144a4565b90506144ec60208301846133bd565b92915050565b7f496e76616c69642070726564696374696f6e00000000000000000000000000005f82015250565b5f6145266012836133cc565b9150614531826144f2565b602082019050919050565b5f6020820190508181035f8301526145538161451a565b9050919050565b7f50726564696374696f6e2076616c6964000000000000000000000000000000005f82015250565b5f61458e6010836133cc565b91506145998261455a565b602082019050919050565b5f6145be6145b96145b484613109565b613349565b612fc1565b9050919050565b6145ce816145a4565b82525050565b5f6040820190508181035f8301526145eb81614582565b90506145fa60208301846145c5565b92915050565b7f496e76616c696420616d6f756e740000000000000000000000000000000000005f82015250565b5f614634600e836133cc565b915061463f82614600565b602082019050919050565b5f6020820190508181035f83015261466181614628565b9050919050565b7f416d6f756e742076616c696400000000000000000000000000000000000000005f82015250565b5f61469c600c836133cc565b91506146a782614668565b602082019050919050565b5f6040820190508181035f8301526146c981614690565b90506146d860208301846133bd565b92915050565b7f42657420746f6f20736d616c6c000000000000000000000000000000000000005f82015250565b5f614712600d836133cc565b915061471d826146de565b602082019050919050565b5f6020820190508181035f83015261473f81614706565b9050919050565b7f42657420746f6f206c61726765000000000000000000000000000000000000005f82015250565b5f61477a600d836133cc565b915061478582614746565b602082019050919050565b5f6020820190508181035f8301526147a78161476e565b9050919050565b7f4265742077697468696e206c696d6974730000000000000000000000000000005f82015250565b5f6147e26011836133cc565b91506147ed826147ae565b602082019050919050565b5f6040820190508181035f83015261480f816147d6565b905061481e60208301846133bd565b92915050565b7f416c726561647920626574206f6e2074686973206d61746368000000000000005f82015250565b5f6148586019836133cc565b915061486382614824565b602082019050919050565b5f6020820190508181035f8301526148858161484c565b9050919050565b7f4e6f206475706c696361746520626574000000000000000000000000000000005f82015250565b5f6148c06010836133cc565b91506148cb8261488c565b602082019050919050565b5f6040820190508181035f8301526148ed816148b4565b90506148fc60208301846133bd565b92915050565b5f6040820190506149155f8301856130b7565b61492260208301846130b7565b9392505050565b7f496e73756666696369656e7420746f6b656e2062616c616e63650000000000005f82015250565b5f61495d601a836133cc565b915061496882614929565b602082019050919050565b5f6020820190508181035f83015261498a81614951565b9050919050565b7f496e73756666696369656e7420746f6b656e20616c6c6f77616e6365000000005f82015250565b5f6149c5601c836133cc565b91506149d082614991565b602082019050919050565b5f6020820190508181035f8301526149f2816149b9565b9050919050565b7f42616c616e636520616e6420616c6c6f77616e63652076616c696400000000005f82015250565b5f614a2d601b836133cc565b9150614a38826149f9565b602082019050919050565b5f6040820190508181035f830152614a5a81614a21565b9050614a6960208301846133bd565b92915050565b7f546f6b656e207472616e73666572207375636365737366756c000000000000005f82015250565b5f614aa36019836133cc565b9150614aae82614a6f565b602082019050919050565b5f6040820190508181035f830152614ad081614a97565b9050614adf60208301846133bd565b92915050565b7f53746174652075706461746564000000000000000000000000000000000000005f82015250565b5f614b19600d836133cc565b9150614b2482614ae5565b602082019050919050565b5f6040820190508181035f830152614b4681614b0d565b9050614b5560208301846133bd565b92915050565b5f604082019050614b6e5f8301856133bd565b614b7b6020830184613423565b9392505050565b7f4d61746368206e6f7420656e64656400000000000000000000000000000000005f82015250565b5f614bb6600f836133cc565b9150614bc182614b82565b602082019050919050565b5f6020820190508181035f830152614be381614baa565b9050919050565b7f4d6174636820616c72656164792066696e616c697a65640000000000000000005f82015250565b5f614c1e6017836133cc565b9150614c2982614bea565b602082019050919050565b5f6020820190508181035f830152614c4b81614c12565b9050919050565b7f496e76616c69642077696e6e65720000000000000000000000000000000000005f82015250565b5f614c86600e836133cc565b9150614c9182614c52565b602082019050919050565b5f6020820190508181035f830152614cb381614c7a565b9050919050565b5f602082019050614ccd5f830184613423565b92915050565b5f606082019050614ce65f8301866130b7565b614cf360208301856130b7565b614d0060408301846133bd565b94935050505056fea2646970667358221220c9e269ea17be0b17abbeb3c92625cf1541ecb219d51fd3933c291e7d30e5a81664736f6c634300081c0033","linkReferences":{}},"methodIdentifiers":{"bettingToken()":"43425e88","calculatePotentialWinnings(uint256,uint256,uint8)":"9257f275","claimWinnings(uint256)":"677bd9ff","communityHub()":"127949cb","createMatch(string,uint256,uint256,uint256,uint256)":"0d80acd8","emergencyWithdraw(address)":"6ff1c9bc","finalizeMatch(uint256,uint8)":"f213cfd7","getMatch(uint256)":"3d092b3d","getNextMatchId()":"57a47928","getProtocolFee()":"a5a41031","getUserBet(uint256,address)":"c03fb87c","getUserBetHistory(address)":"b84018d2","matches(uint256)":"4768d4ef","nextMatchId()":"c5adf7c9","owner()":"8da5cb5b","pause()":"8456cb59","paused()":"5c975abb","placeBet(uint256,uint256,uint8)":"9e14427e","placeTournamentBet(address,uint256,uint8)":"3500836c","protocolFee()":"b0e21e8a","renounceOwnership()":"715018a6","setCommunityHub(address)":"5e7dfd4a","setProtocolFee(uint256)":"787dce3d","setTournament(address)":"993ab58e","tournament()":"1e0197e2","transferOwnership(address)":"f2fde38b","unpause()":"3f4ba83a","userBetHistory(address,uint256)":"f1a15687","userBets(uint256,address)":"7d06a8e1","validateBetParameters(uint256,uint256,uint8)":"cffae052"},"id":35}