{"abi":[{"type":"constructor","inputs":[{"name":"_bettingToken","type":"address","internalType":"address"}],"stateMutability":"nonpayable"},{"type":"function","name":"bettingToken","inputs":[],"outputs":[{"name":"","type":"address","internalType":"contract IERC20"}],"stateMutability":"view"},{"type":"function","name":"calculatePotentialWinnings","inputs":[{"name":"matchId","type":"uint256","internalType":"uint256"},{"name":"amount","type":"uint256","internalType":"uint256"},{"name":"prediction","type":"uint8","internalType":"uint8"}],"outputs":[{"name":"","type":"uint256","internalType":"uint256"}],"stateMutability":"view"},{"type":"function","name":"claimWinnings","inputs":[{"name":"matchId","type":"uint256","internalType":"uint256"}],"outputs":[],"stateMutability":"nonpayable"},{"type":"function","name":"communityHub","inputs":[],"outputs":[{"name":"","type":"address","internalType":"address"}],"stateMutability":"view"},{"type":"function","name":"createMatch","inputs":[{"name":"name","type":"string","internalType":"string"},{"name":"startTime","type":"uint256","internalType":"uint256"},{"name":"endTime","type":"uint256","internalType":"uint256"},{"name":"minBet","type":"uint256","internalType":"uint256"},{"name":"maxBet","type":"uint256","internalType":"uint256"}],"outputs":[],"stateMutability":"nonpayable"},{"type":"function","name":"emergencyWithdraw","inputs":[{"name":"token","type":"address","internalType":"address"}],"outputs":[],"stateMutability":"nonpayable"},{"type":"function","name":"finalizeMatch","inputs":[{"name":"matchId","type":"uint256","internalType":"uint256"},{"name":"winner","type":"uint8","internalType":"uint8"}],"outputs":[],"stateMutability":"nonpayable"},{"type":"function","name":"getMatch","inputs":[{"name":"matchId","type":"uint256","internalType":"uint256"}],"outputs":[{"name":"","type":"tuple","internalType":"struct IBettingPool.Match","components":[{"name":"id","type":"uint256","internalType":"uint256"},{"name":"name","type":"string","internalType":"string"},{"name":"startTime","type":"uint256","internalType":"uint256"},{"name":"endTime","type":"uint256","internalType":"uint256"},{"name":"minBet","type":"uint256","internalType":"uint256"},{"name":"maxBet","type":"uint256","internalType":"uint256"},{"name":"isFinalized","type":"bool","internalType":"bool"},{"name":"winner","type":"uint8","internalType":"uint8"},{"name":"totalPoolA","type":"uint256","internalType":"uint256"},{"name":"totalPoolB","type":"uint256","internalType":"uint256"}]}],"stateMutability":"view"},{"type":"function","name":"getNextMatchId","inputs":[],"outputs":[{"name":"","type":"uint256","internalType":"uint256"}],"stateMutability":"view"},{"type":"function","name":"getProtocolFee","inputs":[],"outputs":[{"name":"","type":"uint256","internalType":"uint256"}],"stateMutability":"view"},{"type":"function","name":"getUserBet","inputs":[{"name":"matchId","type":"uint256","internalType":"uint256"},{"name":"user","type":"address","internalType":"address"}],"outputs":[{"name":"","type":"tuple","internalType":"struct IBettingPool.Bet","components":[{"name":"user","type":"address","internalType":"address"},{"name":"matchId","type":"uint256","internalType":"uint256"},{"name":"amount","type":"uint256","internalType":"uint256"},{"name":"prediction","type":"uint8","internalType":"uint8"},{"name":"claimed","type":"bool","internalType":"bool"}]}],"stateMutability":"view"},{"type":"function","name":"getUserBetHistory","inputs":[{"name":"user","type":"address","internalType":"address"}],"outputs":[{"name":"","type":"uint256[]","internalType":"uint256[]"}],"stateMutability":"view"},{"type":"function","name":"matches","inputs":[{"name":"","type":"uint256","internalType":"uint256"}],"outputs":[{"name":"id","type":"uint256","internalType":"uint256"},{"name":"name","type":"string","internalType":"string"},{"name":"startTime","type":"uint256","internalType":"uint256"},{"name":"endTime","type":"uint256","internalType":"uint256"},{"name":"minBet","type":"uint256","internalType":"uint256"},{"name":"maxBet","type":"uint256","internalType":"uint256"},{"name":"isFinalized","type":"bool","internalType":"bool"},{"name":"winner","type":"uint8","internalType":"uint8"},{"name":"totalPoolA","type":"uint256","internalType":"uint256"},{"name":"totalPoolB","type":"uint256","internalType":"uint256"}],"stateMutability":"view"},{"type":"function","name":"nextMatchId","inputs":[],"outputs":[{"name":"","type":"uint256","internalType":"uint256"}],"stateMutability":"view"},{"type":"function","name":"owner","inputs":[],"outputs":[{"name":"","type":"address","internalType":"address"}],"stateMutability":"view"},{"type":"function","name":"pause","inputs":[],"outputs":[],"stateMutability":"nonpayable"},{"type":"function","name":"paused","inputs":[],"outputs":[{"name":"","type":"bool","internalType":"bool"}],"stateMutability":"view"},{"type":"function","name":"placeBet","inputs":[{"name":"matchId","type":"uint256","internalType":"uint256"},{"name":"amount","type":"uint256","internalType":"uint256"},{"name":"prediction","type":"uint8","internalType":"uint8"}],"outputs":[],"stateMutability":"nonpayable"},{"type":"function","name":"placeTournamentBet","inputs":[{"name":"user","type":"address","internalType":"address"},{"name":"matchId","type":"uint256","internalType":"uint256"},{"name":"prediction","type":"uint8","internalType":"uint8"}],"outputs":[],"stateMutability":"nonpayable"},{"type":"function","name":"protocolFee","inputs":[],"outputs":[{"name":"","type":"uint256","internalType":"uint256"}],"stateMutability":"view"},{"type":"function","name":"renounceOwnership","inputs":[],"outputs":[],"stateMutability":"nonpayable"},{"type":"function","name":"setCommunityHub","inputs":[{"name":"_communityHub","type":"address","internalType":"address"}],"outputs":[],"stateMutability":"nonpayable"},{"type":"function","name":"setProtocolFee","inputs":[{"name":"newFee","type":"uint256","internalType":"uint256"}],"outputs":[],"stateMutability":"nonpayable"},{"type":"function","name":"setTournament","inputs":[{"name":"_tournament","type":"address","internalType":"address"}],"outputs":[],"stateMutability":"nonpayable"},{"type":"function","name":"tournament","inputs":[],"outputs":[{"name":"","type":"address","internalType":"address"}],"stateMutability":"view"},{"type":"function","name":"transferOwnership","inputs":[{"name":"newOwner","type":"address","internalType":"address"}],"outputs":[],"stateMutability":"nonpayable"},{"type":"function","name":"unpause","inputs":[],"outputs":[],"stateMutability":"nonpayable"},{"type":"function","name":"userBetHistory","inputs":[{"name":"","type":"address","internalType":"address"},{"name":"","type":"uint256","internalType":"uint256"}],"outputs":[{"name":"","type":"uint256","internalType":"uint256"}],"stateMutability":"view"},{"type":"function","name":"userBets","inputs":[{"name":"","type":"uint256","internalType":"uint256"},{"name":"","type":"address","internalType":"address"}],"outputs":[{"name":"user","type":"address","internalType":"address"},{"name":"matchId","type":"uint256","internalType":"uint256"},{"name":"amount","type":"uint256","internalType":"uint256"},{"name":"prediction","type":"uint8","internalType":"uint8"},{"name":"claimed","type":"bool","internalType":"bool"}],"stateMutability":"view"},{"type":"event","name":"BetPlaced","inputs":[{"name":"matchId","type":"uint256","indexed":true,"internalType":"uint256"},{"name":"user","type":"address","indexed":true,"internalType":"address"},{"name":"amount","type":"uint256","indexed":false,"internalType":"uint256"},{"name":"prediction","type":"uint8","indexed":false,"internalType":"uint8"}],"anonymous":false},{"type":"event","name":"CommunityHubSet","inputs":[{"name":"communityHub","type":"address","indexed":true,"internalType":"address"}],"anonymous":false},{"type":"event","name":"EmergencyWithdraw","inputs":[{"name":"token","type":"address","indexed":false,"internalType":"address"},{"name":"amount","type":"uint256","indexed":false,"internalType":"uint256"}],"anonymous":false},{"type":"event","name":"MatchCreated","inputs":[{"name":"matchId","type":"uint256","indexed":true,"internalType":"uint256"},{"name":"name","type":"string","indexed":false,"internalType":"string"},{"name":"startTime","type":"uint256","indexed":false,"internalType":"uint256"}],"anonymous":false},{"type":"event","name":"MatchFinalized","inputs":[{"name":"matchId","type":"uint256","indexed":true,"internalType":"uint256"},{"name":"winner","type":"uint8","indexed":false,"internalType":"uint8"}],"anonymous":false},{"type":"event","name":"OwnershipTransferred","inputs":[{"name":"previousOwner","type":"address","indexed":true,"internalType":"address"},{"name":"newOwner","type":"address","indexed":true,"internalType":"address"}],"anonymous":false},{"type":"event","name":"Paused","inputs":[{"name":"account","type":"address","indexed":false,"internalType":"address"}],"anonymous":false},{"type":"event","name":"ProtocolFeeUpdated","inputs":[{"name":"newFee","type":"uint256","indexed":false,"internalType":"uint256"}],"anonymous":false},{"type":"event","name":"TournamentSet","inputs":[{"name":"tournament","type":"address","indexed":true,"internalType":"address"}],"anonymous":false},{"type":"event","name":"Unpaused","inputs":[{"name":"account","type":"address","indexed":false,"internalType":"address"}],"anonymous":false},{"type":"event","name":"WinningsClaimed","inputs":[{"name":"matchId","type":"uint256","indexed":true,"internalType":"uint256"},{"name":"user","type":"address","indexed":true,"internalType":"address"},{"name":"amount","type":"uint256","indexed":false,"internalType":"uint256"}],"anonymous":false},{"type":"error","name":"EnforcedPause","inputs":[]},{"type":"error","name":"ExpectedPause","inputs":[]},{"type":"error","name":"OwnableInvalidOwner","inputs":[{"name":"owner","type":"address","internalType":"address"}]},{"type":"error","name":"OwnableUnauthorizedAccount","inputs":[{"name":"account","type":"address","internalType":"address"}]},{"type":"error","name":"ReentrancyGuardReentrantCall","inputs":[]},{"type":"error","name":"SafeERC20FailedOperation","inputs":[{"name":"token","type":"address","internalType":"address"}]}],"bytecode":{"object":"0x60a060405234801561000f575f5ffd5b5060405161233338038061233383398101604081905261002e9161012e565b338061005457604051631e4fbdf760e01b81525f60048201526024015b60405180910390fd5b61005d816100df565b505f805460ff60a01b19169055600180556001600160a01b0381166100c45760405162461bcd60e51b815260206004820152601560248201527f496e76616c696420746f6b656e20616464726573730000000000000000000000604482015260640161004b565b6001600160a01b031660805260fa600255600160035561015b565b5f80546001600160a01b038381166001600160a01b0319831681178455604051919092169283917f8be0079c531659141344cd1fd0a4f28419497f9722a3daafe3b4186f6b6457e09190a35050565b5f6020828403121561013e575f5ffd5b81516001600160a01b0381168114610154575f5ffd5b9392505050565b6080516121b26101815f395f818161026201528181610e20015261146101526121b25ff3fe608060405234801561000f575f5ffd5b50600436106101c6575f3560e01c8063787dce3d116100fe578063a5a410311161009e578063c5adf7c91161006e578063c5adf7c91461049b578063f1a15687146104a4578063f213cfd7146104b7578063f2fde38b146104ca575f5ffd5b8063a5a410311461040c578063b0e21e8a14610414578063b84018d21461041d578063c03fb87c1461043d575f5ffd5b80638da5cb5b116100d95780638da5cb5b146103c35780639257f275146103d3578063993ab58e146103e65780639e14427e146103f9575f5ffd5b8063787dce3d1461031c5780637d06a8e11461032f5780638456cb59146103bb575f5ffd5b80634768d4ef116101695780635e7dfd4a116101445780635e7dfd4a146102db578063677bd9ff146102ee5780636ff1c9bc14610301578063715018a614610314575f5ffd5b80634768d4ef1461028457806357a47928146102ad5780635c975abb146102bf575f5ffd5b80633500836c116101a45780633500836c146102225780633d092b3d146102355780633f4ba83a1461025557806343425e881461025d575f5ffd5b80630d80acd8146101ca578063127949cb146101df5780631e0197e21461020f575b5f5ffd5b6101dd6101d8366004611bed565b6104dd565b005b6005546101f2906001600160a01b031681565b6040516001600160a01b0390911681526020015b60405180910390f35b6004546101f2906001600160a01b031681565b6101dd610230366004611ce6565b61072f565b610248610243366004611d1f565b6108f8565b6040516102069190611d64565b6101dd610a5e565b6101f27f000000000000000000000000000000000000000000000000000000000000000081565b610297610292366004611d1f565b610a70565b6040516102069a99989796959493929190611dfb565b6003545b604051908152602001610206565b5f54600160a01b900460ff166040519015158152602001610206565b6101dd6102e9366004611e59565b610b4b565b6101dd6102fc366004611d1f565b610bf2565b6101dd61030f366004611e59565b610f02565b6101dd611070565b6101dd61032a366004611d1f565b611081565b61038461033d366004611e72565b600760209081525f928352604080842090915290825290208054600182015460028301546003909301546001600160a01b0390921692909160ff8082169161010090041685565b604080516001600160a01b03909616865260208601949094529284019190915260ff1660608301521515608082015260a001610206565b6101dd611105565b5f546001600160a01b03166101f2565b6102b16103e1366004611e9c565b611115565b6101dd6103f4366004611e59565b6111c2565b6101dd610407366004611e9c565b611269565b6002546102b1565b6102b160025481565b61043061042b366004611e59565b611635565b6040516102069190611ec5565b61045061044b366004611e72565b61169e565b604051610206919081516001600160a01b03168152602080830151908201526040808301519082015260608083015160ff169082015260809182015115159181019190915260a00190565b6102b160035481565b6102b16104b2366004611f07565b611734565b6101dd6104c5366004611f2f565b61175f565b6101dd6104d8366004611e59565b611907565b5f8551116105215760405162461bcd60e51b815260206004820152600c60248201526b496e76616c6964206e616d6560a01b60448201526064015b60405180910390fd5b4284116105655760405162461bcd60e51b8152602060048201526012602482015271496e76616c69642073746172742074696d6560701b6044820152606401610518565b8383116105a75760405162461bcd60e51b815260206004820152601060248201526f496e76616c696420656e642074696d6560801b6044820152606401610518565b5f821180156105b557508181115b6105f65760405162461bcd60e51b8152602060048201526012602482015271496e76616c696420626574206c696d69747360701b6044820152606401610518565b600380545f918261060683611f64565b90915550604080516101408101825282815260208082018a81528284018a9052606083018990526080830188905260a083018790525f60c0840181905260e0840181905261010084018190526101208401819052858152600690925292902081518155915192935091600182019061067e9082611fff565b506040828101516002830155606083015160038301556080830151600483015560a0830151600583015560c083015160068301805460e086015161ffff1990911692151561ff0019169290921761010060ff90931683021790558301516007830155610120909201516008909101555181907f69a37531de37a5a53f6e93a87bd1c8ec3b0fa7a241ffb6b38a1b2b90f72350de9061071f90899089906120ba565b60405180910390a2505050505050565b5f828152600660205260409020548290811461075d5760405162461bcd60e51b8152600401610518906120db565b5f83815260066020526040902060020154839042106107b65760405162461bcd60e51b815260206004820152601560248201527413585d18da08185b1c9958591e481cdd185c9d1959605a1b6044820152606401610518565b6004546001600160a01b031633146108025760405162461bcd60e51b815260206004820152600f60248201526e13db9b1e481d1bdd5c9b985b595b9d608a1b6044820152606401610518565b6040805160a0810182526001600160a01b0387811680835260208084018981525f85870181815260ff8b81166060890181815260808a018581528f8652600788528b862089875288528b86209a518b549a166001600160a01b0319909a16999099178a5594516001808b0191909155925160028a0155935160039098018054975115156101000261ffff199098169890911697909717959095179095556008825285852080549485018155855281852090930189905584519384528301919091529186917fe90186097616cbeb30ffc786b44501e1362f5e0a316a96c5ab82a0551f9d2f05910160405180910390a35050505050565b61094a6040518061014001604052805f8152602001606081526020015f81526020015f81526020015f81526020015f81526020015f151581526020015f60ff1681526020015f81526020015f81525090565b60065f8381526020019081526020015f20604051806101400160405290815f820154815260200160018201805461098090611f7c565b80601f01602080910402602001604051908101604052809291908181526020018280546109ac90611f7c565b80156109f75780601f106109ce576101008083540402835291602001916109f7565b820191905f5260205f20905b8154815290600101906020018083116109da57829003601f168201915b505050918352505060028201546020820152600382015460408201526004820154606082015260058201546080820152600682015460ff808216151560a0840152610100918290041660c0830152600783015460e083015260089092015491015292915050565b610a66611941565b610a6e61196d565b565b60066020525f908152604090208054600182018054919291610a9190611f7c565b80601f0160208091040260200160405190810160405280929190818152602001828054610abd90611f7c565b8015610b085780601f10610adf57610100808354040283529160200191610b08565b820191905f5260205f20905b815481529060010190602001808311610aeb57829003601f168201915b505050600284015460038501546004860154600587015460068801546007890154600890990154979894979396509194509260ff8083169361010090930416918a565b610b53611941565b6001600160a01b038116610ba95760405162461bcd60e51b815260206004820152601d60248201527f496e76616c696420636f6d6d756e6974792068756220616464726573730000006044820152606401610518565b600580546001600160a01b0319166001600160a01b0383169081179091556040517fc45061a24a71fcf3ea91ac08c21c1c8fbb8b2d68b36d3c58f6cfda82106aef4f905f90a250565b610bfa6119c1565b5f8181526006602052604090205481908114610c285760405162461bcd60e51b8152600401610518906120db565b5f8281526006602081905260409091209081015460ff16610c815760405162461bcd60e51b815260206004820152601360248201527213585d18da081b9bdd08199a5b985b1a5e9959606a1b6044820152606401610518565b5f83815260076020908152604080832033845290915290206002810154610cda5760405162461bcd60e51b815260206004820152600d60248201526c139bc818995d081c1b1858d959609a1b6044820152606401610518565b6003810154610100900460ff1615610d265760405162461bcd60e51b815260206004820152600f60248201526e105b1c9958591e4818db185a5b5959608a1b6044820152606401610518565b6006820154600382015460ff9081166101009092041614610d7b5760405162461bcd60e51b815260206004820152600f60248201526e2132ba103234b2103737ba103bb4b760891b6044820152606401610518565b60038101805461ff00191661010090811790915560068301545f91900460ff16600114610dac578260080154610db2565b82600701545b90505f83600801548460070154610dc99190612109565b90505f82828560020154610ddd919061211c565b610de79190612133565b90505f61271060025483610dfb919061211c565b610e059190612133565b9050610e118183612152565b9150610e476001600160a01b037f00000000000000000000000000000000000000000000000000000000000000001633846119eb565b6005546001600160a01b031615610eb85760055460405163b1953a3f60e01b8152336004820152602481018490526001600160a01b039091169063b1953a3f906044015f604051808303815f87803b158015610ea1575f5ffd5b505af1158015610eb3573d5f5f3e3d5ffd5b505050505b604051828152339089907f5380cf6fe903b40c6d5a9e0dfbca2f3a423f0a21520b4d5947ed5169bdba946d9060200160405180910390a350505050505050610eff60018055565b50565b610f0a611941565b6001600160a01b038116610f505760405162461bcd60e51b815260206004820152600d60248201526c24b73b30b634b2103a37b5b2b760991b6044820152606401610518565b6040516370a0823160e01b815230600482015281905f906001600160a01b038316906370a0823190602401602060405180830381865afa158015610f96573d5f5f3e3d5ffd5b505050506040513d601f19601f82011682018060405250810190610fba9190612165565b90505f81116110045760405162461bcd60e51b81526020600482015260166024820152754e6f2062616c616e636520746f20776974686472617760501b6044820152606401610518565b6110296110185f546001600160a01b031690565b6001600160a01b03841690836119eb565b604080516001600160a01b0385168152602081018390527f5fafa99d0643513820be26656b45130b01e1c03062e1266bf36f88cbd3bd9695910160405180910390a1505050565b611078611941565b610a6e5f611a4a565b611089611941565b6103e88111156110ca5760405162461bcd60e51b815260206004820152600c60248201526b08ccaca40e8dede40d0d2ced60a31b6044820152606401610518565b60028190556040518181527fd10d75876659a287a59a6ccfa2e3fff42f84d94b542837acd30bc184d562de409060200160405180910390a150565b61110d611941565b610a6e611a99565b5f83815260066020526040812081600160ff85161461113857816008015461113e565b81600701545b90505f826008015483600701546111559190612109565b9050815f036111735761116986600261211c565b93505050506111bb565b5f8261117f838961211c565b6111899190612133565b90505f6127106002548361119d919061211c565b6111a79190612133565b90506111b38183612152565b955050505050505b9392505050565b6111ca611941565b6001600160a01b0381166112205760405162461bcd60e51b815260206004820152601a60248201527f496e76616c696420746f75726e616d656e7420616464726573730000000000006044820152606401610518565b600480546001600160a01b0319166001600160a01b0383169081179091556040517fbb4f3f7196d5a1c6db1c04fd4e78790c124195d0dc1e299ac6dd264d6fa365bc905f90a250565b6112716119c1565b611279611adb565b5f83815260066020526040902054839081146112a75760405162461bcd60e51b8152600401610518906120db565b5f84815260066020526040902060020154849042106113005760405162461bcd60e51b815260206004820152601560248201527413585d18da08185b1c9958591e481cdd185c9d1959605a1b6044820152606401610518565b5f858152600660205260409020600160ff8516148061132257508360ff166002145b6113635760405162461bcd60e51b815260206004820152601260248201527124b73b30b634b210383932b234b1ba34b7b760711b6044820152606401610518565b80600401548510156113a75760405162461bcd60e51b815260206004820152600d60248201526c10995d081d1bdbc81cdb585b1b609a1b6044820152606401610518565b80600501548511156113eb5760405162461bcd60e51b815260206004820152600d60248201526c42657420746f6f206c6172676560981b6044820152606401610518565b5f868152600760209081526040808320338452909152902060020154156114545760405162461bcd60e51b815260206004820152601960248201527f416c726561647920626574206f6e2074686973206d61746368000000000000006044820152606401610518565b6114896001600160a01b037f000000000000000000000000000000000000000000000000000000000000000016333088611b05565b8360ff166001036114b25784816007015f8282546114a79190612109565b909155506114cb9050565b84816008015f8282546114c59190612109565b90915550505b6040805160a0810182523380825260208083018a81528385018a815260ff808b16606087019081525f608088018181528f825260078752898220978252968652888120975188546001600160a01b039182166001600160a01b0319909116178955945160018981019190915593516002890155905160039097018054965115156101000261ffff19909716979092169690961794909417909355600882529383208054928301815583529091200187905560055416156115e55760055460405163c8a50b8560e01b8152336004820152602481018790526001600160a01b039091169063c8a50b85906044015f604051808303815f87803b1580156115ce575f5ffd5b505af11580156115e0573d5f5f3e3d5ffd5b505050505b6040805186815260ff86166020820152339188917fe90186097616cbeb30ffc786b44501e1362f5e0a316a96c5ab82a0551f9d2f05910160405180910390a350505061163060018055565b505050565b6001600160a01b0381165f9081526008602090815260409182902080548351818402810184019094528084526060939283018282801561169257602002820191905f5260205f20905b81548152602001906001019080831161167e575b50505050509050919050565b6040805160a0810182525f80825260208201819052918101829052606081018290526080810191909152505f8281526007602090815260408083206001600160a01b03808616855290835292819020815160a081018352815490941684526001810154928401929092526002820154908301526003015460ff808216606084015261010090910416151560808201525b92915050565b6008602052815f5260405f20818154811061174d575f80fd5b905f5260205f20015f91509150505481565b611767611941565b5f82815260066020526040902054829081146117955760405162461bcd60e51b8152600401610518906120db565b5f83815260066020526040902060030154839042116117e85760405162461bcd60e51b815260206004820152600f60248201526e13585d18da081b9bdd08195b991959608a1b6044820152606401610518565b5f8481526006602081905260409091209081015460ff161561184c5760405162461bcd60e51b815260206004820152601760248201527f4d6174636820616c72656164792066696e616c697a65640000000000000000006044820152606401610518565b8360ff166001148061186157508360ff166002145b61189e5760405162461bcd60e51b815260206004820152600e60248201526d24b73b30b634b2103bb4b73732b960911b6044820152606401610518565b60068101805460ff1960ff8716610100021661ffff1990911617600117905560405185907fb21c6c267c5a3609aece227ea8d6e069f2e4dc0f731e75912f1ca7519c093c78906118f890879060ff91909116815260200190565b60405180910390a25050505050565b61190f611941565b6001600160a01b03811661193857604051631e4fbdf760e01b81525f6004820152602401610518565b610eff81611a4a565b5f546001600160a01b03163314610a6e5760405163118cdaa760e01b8152336004820152602401610518565b611975611b44565b5f805460ff60a01b191690557f5db9ee0a495bf2e6ff9c91a7834c1ba4fdd244a5e8aa4e537bd38aeae4b073aa335b6040516001600160a01b03909116815260200160405180910390a1565b6002600154036119e457604051633ee5aeb560e01b815260040160405180910390fd5b6002600155565b6040516001600160a01b0383811660248301526044820183905261163091859182169063a9059cbb906064015b604051602081830303815290604052915060e01b6020820180516001600160e01b038381831617835250505050611b6d565b5f80546001600160a01b038381166001600160a01b0319831681178455604051919092169283917f8be0079c531659141344cd1fd0a4f28419497f9722a3daafe3b4186f6b6457e09190a35050565b611aa1611adb565b5f805460ff60a01b1916600160a01b1790557f62e78cea01bee320cd4e420270b5ea74000d11b0c9f74754ebdbfc544b05a2586119a43390565b5f54600160a01b900460ff1615610a6e5760405163d93c066560e01b815260040160405180910390fd5b6040516001600160a01b038481166024830152838116604483015260648201839052611b3e9186918216906323b872dd90608401611a18565b50505050565b5f54600160a01b900460ff16610a6e57604051638dfc202b60e01b815260040160405180910390fd5b5f5f60205f8451602086015f885af180611b8c576040513d5f823e3d81fd5b50505f513d91508115611ba3578060011415611bb0565b6001600160a01b0384163b155b15611b3e57604051635274afe760e01b81526001600160a01b0385166004820152602401610518565b634e487b7160e01b5f52604160045260245ffd5b5f5f5f5f5f60a08688031215611c01575f5ffd5b853567ffffffffffffffff811115611c17575f5ffd5b8601601f81018813611c27575f5ffd5b803567ffffffffffffffff811115611c4157611c41611bd9565b604051601f8201601f19908116603f0116810167ffffffffffffffff81118282101715611c7057611c70611bd9565b6040528181528282016020018a1015611c87575f5ffd5b816020840160208301375f602092820183015299908801359850604088013597606081013597506080013595509350505050565b80356001600160a01b0381168114611cd1575f5ffd5b919050565b803560ff81168114611cd1575f5ffd5b5f5f5f60608486031215611cf8575f5ffd5b611d0184611cbb565b925060208401359150611d1660408501611cd6565b90509250925092565b5f60208284031215611d2f575f5ffd5b5035919050565b5f81518084528060208401602086015e5f602082860101526020601f19601f83011685010191505092915050565b60208152815160208201525f60208301516101406040840152611d8b610160840182611d36565b90506040840151606084015260608401516080840152608084015160a084015260a084015160c084015260c0840151611dc860e085018215159052565b5060e084015160ff8116610100850152506101008401516101208401526101208401516101408401528091505092915050565b8a815261014060208201525f611e1561014083018c611d36565b604083019a909a52506060810197909752608087019590955260a086019390935290151560c085015260ff1660e08401526101008301526101209091015292915050565b5f60208284031215611e69575f5ffd5b6111bb82611cbb565b5f5f60408385031215611e83575f5ffd5b82359150611e9360208401611cbb565b90509250929050565b5f5f5f60608486031215611eae575f5ffd5b8335925060208401359150611d1660408501611cd6565b602080825282518282018190525f918401906040840190835b81811015611efc578351835260209384019390920191600101611ede565b509095945050505050565b5f5f60408385031215611f18575f5ffd5b611f2183611cbb565b946020939093013593505050565b5f5f60408385031215611f40575f5ffd5b82359150611e9360208401611cd6565b634e487b7160e01b5f52601160045260245ffd5b5f60018201611f7557611f75611f50565b5060010190565b600181811c90821680611f9057607f821691505b602082108103611fae57634e487b7160e01b5f52602260045260245ffd5b50919050565b601f82111561163057805f5260205f20601f840160051c81016020851015611fd95750805b601f840160051c820191505b81811015611ff8575f8155600101611fe5565b5050505050565b815167ffffffffffffffff81111561201957612019611bd9565b61202d816120278454611f7c565b84611fb4565b6020601f82116001811461205f575f83156120485750848201515b5f19600385901b1c1916600184901b178455611ff8565b5f84815260208120601f198516915b8281101561208e578785015182556020948501946001909201910161206e565b50848210156120ab57868401515f19600387901b60f8161c191681555b50505050600190811b01905550565b604081525f6120cc6040830185611d36565b90508260208301529392505050565b60208082526014908201527313585d18da08191bd95cc81b9bdd08195e1a5cdd60621b604082015260600190565b8082018082111561172e5761172e611f50565b808202811582820484141761172e5761172e611f50565b5f8261214d57634e487b7160e01b5f52601260045260245ffd5b500490565b8181038181111561172e5761172e611f50565b5f60208284031215612175575f5ffd5b505191905056fea2646970667358221220ed604f7a603ed081e99905e35e54ce7109347c80b16e2b118b9cdf6220d5cf8464736f6c634300081c0033","linkReferences":{}},"methodIdentifiers":{"bettingToken()":"43425e88","calculatePotentialWinnings(uint256,uint256,uint8)":"9257f275","claimWinnings(uint256)":"677bd9ff","communityHub()":"127949cb","createMatch(string,uint256,uint256,uint256,uint256)":"0d80acd8","emergencyWithdraw(address)":"6ff1c9bc","finalizeMatch(uint256,uint8)":"f213cfd7","getMatch(uint256)":"3d092b3d","getNextMatchId()":"57a47928","getProtocolFee()":"a5a41031","getUserBet(uint256,address)":"c03fb87c","getUserBetHistory(address)":"b84018d2","matches(uint256)":"4768d4ef","nextMatchId()":"c5adf7c9","owner()":"8da5cb5b","pause()":"8456cb59","paused()":"5c975abb","placeBet(uint256,uint256,uint8)":"9e14427e","placeTournamentBet(address,uint256,uint8)":"3500836c","protocolFee()":"b0e21e8a","renounceOwnership()":"715018a6","setCommunityHub(address)":"5e7dfd4a","setProtocolFee(uint256)":"787dce3d","setTournament(address)":"993ab58e","tournament()":"1e0197e2","transferOwnership(address)":"f2fde38b","unpause()":"3f4ba83a","userBetHistory(address,uint256)":"f1a15687","userBets(uint256,address)":"7d06a8e1"},"id":25}