{"abi":[{"type":"constructor","inputs":[{"name":"_bettingToken","type":"address","internalType":"address"}],"stateMutability":"nonpayable"},{"type":"function","name":"bettingToken","inputs":[],"outputs":[{"name":"","type":"address","internalType":"contract IERC20"}],"stateMutability":"view"},{"type":"function","name":"calculatePotentialWinnings","inputs":[{"name":"matchId","type":"uint256","internalType":"uint256"},{"name":"amount","type":"uint256","internalType":"uint256"},{"name":"prediction","type":"uint8","internalType":"uint8"}],"outputs":[{"name":"","type":"uint256","internalType":"uint256"}],"stateMutability":"view"},{"type":"function","name":"claimWinnings","inputs":[{"name":"matchId","type":"uint256","internalType":"uint256"}],"outputs":[],"stateMutability":"nonpayable"},{"type":"function","name":"communityHub","inputs":[],"outputs":[{"name":"","type":"address","internalType":"address"}],"stateMutability":"view"},{"type":"function","name":"createMatch","inputs":[{"name":"name","type":"string","internalType":"string"},{"name":"startTime","type":"uint256","internalType":"uint256"},{"name":"endTime","type":"uint256","internalType":"uint256"},{"name":"minBet","type":"uint256","internalType":"uint256"},{"name":"maxBet","type":"uint256","internalType":"uint256"}],"outputs":[],"stateMutability":"nonpayable"},{"type":"function","name":"emergencyWithdraw","inputs":[{"name":"token","type":"address","internalType":"address"}],"outputs":[],"stateMutability":"nonpayable"},{"type":"function","name":"finalizeMatch","inputs":[{"name":"matchId","type":"uint256","internalType":"uint256"},{"name":"winner","type":"uint8","internalType":"uint8"}],"outputs":[],"stateMutability":"nonpayable"},{"type":"function","name":"getMatch","inputs":[{"name":"matchId","type":"uint256","internalType":"uint256"}],"outputs":[{"name":"","type":"tuple","internalType":"struct IBettingPool.Match","components":[{"name":"id","type":"uint256","internalType":"uint256"},{"name":"name","type":"string","internalType":"string"},{"name":"startTime","type":"uint256","internalType":"uint256"},{"name":"endTime","type":"uint256","internalType":"uint256"},{"name":"minBet","type":"uint256","internalType":"uint256"},{"name":"maxBet","type":"uint256","internalType":"uint256"},{"name":"isFinalized","type":"bool","internalType":"bool"},{"name":"winner","type":"uint8","internalType":"uint8"},{"name":"totalPoolA","type":"uint256","internalType":"uint256"},{"name":"totalPoolB","type":"uint256","internalType":"uint256"}]}],"stateMutability":"view"},{"type":"function","name":"getNextMatchId","inputs":[],"outputs":[{"name":"","type":"uint256","internalType":"uint256"}],"stateMutability":"view"},{"type":"function","name":"getProtocolFee","inputs":[],"outputs":[{"name":"","type":"uint256","internalType":"uint256"}],"stateMutability":"view"},{"type":"function","name":"getUserBet","inputs":[{"name":"matchId","type":"uint256","internalType":"uint256"},{"name":"user","type":"address","internalType":"address"}],"outputs":[{"name":"","type":"tuple","internalType":"struct IBettingPool.Bet","components":[{"name":"user","type":"address","internalType":"address"},{"name":"matchId","type":"uint256","internalType":"uint256"},{"name":"amount","type":"uint256","internalType":"uint256"},{"name":"prediction","type":"uint8","internalType":"uint8"},{"name":"claimed","type":"bool","internalType":"bool"}]}],"stateMutability":"view"},{"type":"function","name":"getUserBetHistory","inputs":[{"name":"user","type":"address","internalType":"address"}],"outputs":[{"name":"","type":"uint256[]","internalType":"uint256[]"}],"stateMutability":"view"},{"type":"function","name":"matches","inputs":[{"name":"","type":"uint256","internalType":"uint256"}],"outputs":[{"name":"id","type":"uint256","internalType":"uint256"},{"name":"name","type":"string","internalType":"string"},{"name":"startTime","type":"uint256","internalType":"uint256"},{"name":"endTime","type":"uint256","internalType":"uint256"},{"name":"minBet","type":"uint256","internalType":"uint256"},{"name":"maxBet","type":"uint256","internalType":"uint256"},{"name":"isFinalized","type":"bool","internalType":"bool"},{"name":"winner","type":"uint8","internalType":"uint8"},{"name":"totalPoolA","type":"uint256","internalType":"uint256"},{"name":"totalPoolB","type":"uint256","internalType":"uint256"}],"stateMutability":"view"},{"type":"function","name":"nextMatchId","inputs":[],"outputs":[{"name":"","type":"uint256","internalType":"uint256"}],"stateMutability":"view"},{"type":"function","name":"owner","inputs":[],"outputs":[{"name":"","type":"address","internalType":"address"}],"stateMutability":"view"},{"type":"function","name":"pause","inputs":[],"outputs":[],"stateMutability":"nonpayable"},{"type":"function","name":"paused","inputs":[],"outputs":[{"name":"","type":"bool","internalType":"bool"}],"stateMutability":"view"},{"type":"function","name":"placeBet","inputs":[{"name":"matchId","type":"uint256","internalType":"uint256"},{"name":"amount","type":"uint256","internalType":"uint256"},{"name":"prediction","type":"uint8","internalType":"uint8"}],"outputs":[],"stateMutability":"nonpayable"},{"type":"function","name":"placeTournamentBet","inputs":[{"name":"user","type":"address","internalType":"address"},{"name":"matchId","type":"uint256","internalType":"uint256"},{"name":"prediction","type":"uint8","internalType":"uint8"}],"outputs":[],"stateMutability":"nonpayable"},{"type":"function","name":"protocolFee","inputs":[],"outputs":[{"name":"","type":"uint256","internalType":"uint256"}],"stateMutability":"view"},{"type":"function","name":"renounceOwnership","inputs":[],"outputs":[],"stateMutability":"nonpayable"},{"type":"function","name":"setCommunityHub","inputs":[{"name":"_communityHub","type":"address","internalType":"address"}],"outputs":[],"stateMutability":"nonpayable"},{"type":"function","name":"setProtocolFee","inputs":[{"name":"newFee","type":"uint256","internalType":"uint256"}],"outputs":[],"stateMutability":"nonpayable"},{"type":"function","name":"setTournament","inputs":[{"name":"_tournament","type":"address","internalType":"address"}],"outputs":[],"stateMutability":"nonpayable"},{"type":"function","name":"tournament","inputs":[],"outputs":[{"name":"","type":"address","internalType":"address"}],"stateMutability":"view"},{"type":"function","name":"transferOwnership","inputs":[{"name":"newOwner","type":"address","internalType":"address"}],"outputs":[],"stateMutability":"nonpayable"},{"type":"function","name":"unpause","inputs":[],"outputs":[],"stateMutability":"nonpayable"},{"type":"function","name":"userBetHistory","inputs":[{"name":"","type":"address","internalType":"address"},{"name":"","type":"uint256","internalType":"uint256"}],"outputs":[{"name":"","type":"uint256","internalType":"uint256"}],"stateMutability":"view"},{"type":"function","name":"userBets","inputs":[{"name":"","type":"uint256","internalType":"uint256"},{"name":"","type":"address","internalType":"address"}],"outputs":[{"name":"user","type":"address","internalType":"address"},{"name":"matchId","type":"uint256","internalType":"uint256"},{"name":"amount","type":"uint256","internalType":"uint256"},{"name":"prediction","type":"uint8","internalType":"uint8"},{"name":"claimed","type":"bool","internalType":"bool"}],"stateMutability":"view"},{"type":"function","name":"validateBetParameters","inputs":[{"name":"matchId","type":"uint256","internalType":"uint256"},{"name":"amount","type":"uint256","internalType":"uint256"},{"name":"prediction","type":"uint8","internalType":"uint8"}],"outputs":[{"name":"","type":"bool","internalType":"bool"}],"stateMutability":"view"},{"type":"event","name":"BetPlaced","inputs":[{"name":"matchId","type":"uint256","indexed":true,"internalType":"uint256"},{"name":"user","type":"address","indexed":true,"internalType":"address"},{"name":"amount","type":"uint256","indexed":false,"internalType":"uint256"},{"name":"prediction","type":"uint8","indexed":false,"internalType":"uint8"}],"anonymous":false},{"type":"event","name":"CommunityHubSet","inputs":[{"name":"communityHub","type":"address","indexed":true,"internalType":"address"}],"anonymous":false},{"type":"event","name":"DebugEvent","inputs":[{"name":"message","type":"string","indexed":false,"internalType":"string"},{"name":"value","type":"uint256","indexed":false,"internalType":"uint256"}],"anonymous":false},{"type":"event","name":"EmergencyWithdraw","inputs":[{"name":"token","type":"address","indexed":false,"internalType":"address"},{"name":"amount","type":"uint256","indexed":false,"internalType":"uint256"}],"anonymous":false},{"type":"event","name":"MatchCreated","inputs":[{"name":"matchId","type":"uint256","indexed":true,"internalType":"uint256"},{"name":"name","type":"string","indexed":false,"internalType":"string"},{"name":"startTime","type":"uint256","indexed":false,"internalType":"uint256"}],"anonymous":false},{"type":"event","name":"MatchFinalized","inputs":[{"name":"matchId","type":"uint256","indexed":true,"internalType":"uint256"},{"name":"winner","type":"uint8","indexed":false,"internalType":"uint8"}],"anonymous":false},{"type":"event","name":"OwnershipTransferred","inputs":[{"name":"previousOwner","type":"address","indexed":true,"internalType":"address"},{"name":"newOwner","type":"address","indexed":true,"internalType":"address"}],"anonymous":false},{"type":"event","name":"Paused","inputs":[{"name":"account","type":"address","indexed":false,"internalType":"address"}],"anonymous":false},{"type":"event","name":"ProtocolFeeUpdated","inputs":[{"name":"newFee","type":"uint256","indexed":false,"internalType":"uint256"}],"anonymous":false},{"type":"event","name":"TournamentSet","inputs":[{"name":"tournament","type":"address","indexed":true,"internalType":"address"}],"anonymous":false},{"type":"event","name":"Unpaused","inputs":[{"name":"account","type":"address","indexed":false,"internalType":"address"}],"anonymous":false},{"type":"event","name":"WinningsClaimed","inputs":[{"name":"matchId","type":"uint256","indexed":true,"internalType":"uint256"},{"name":"user","type":"address","indexed":true,"internalType":"address"},{"name":"amount","type":"uint256","indexed":false,"internalType":"uint256"}],"anonymous":false},{"type":"error","name":"EnforcedPause","inputs":[]},{"type":"error","name":"ExpectedPause","inputs":[]},{"type":"error","name":"OwnableInvalidOwner","inputs":[{"name":"owner","type":"address","internalType":"address"}]},{"type":"error","name":"OwnableUnauthorizedAccount","inputs":[{"name":"account","type":"address","internalType":"address"}]},{"type":"error","name":"ReentrancyGuardReentrantCall","inputs":[]},{"type":"error","name":"SafeERC20FailedOperation","inputs":[{"name":"token","type":"address","internalType":"address"}]}],"bytecode":{"object":"0x60a060405234801561000f575f5ffd5b506040516150cc3803806150cc833981810160405281019061003191906102a9565b335f73ffffffffffffffffffffffffffffffffffffffff168173ffffffffffffffffffffffffffffffffffffffff16036100a2575f6040517f1e4fbdf700000000000000000000000000000000000000000000000000000000815260040161009991906102e3565b60405180910390fd5b6100b18161018a60201b60201c565b505f5f60146101000a81548160ff021916908315150217905550600180819055505f73ffffffffffffffffffffffffffffffffffffffff168173ffffffffffffffffffffffffffffffffffffffff1603610140576040517f08c379a000000000000000000000000000000000000000000000000000000000815260040161013790610356565b60405180910390fd5b8073ffffffffffffffffffffffffffffffffffffffff1660808173ffffffffffffffffffffffffffffffffffffffff168152505060fa600281905550600160038190555050610374565b5f5f5f9054906101000a900473ffffffffffffffffffffffffffffffffffffffff169050815f5f6101000a81548173ffffffffffffffffffffffffffffffffffffffff021916908373ffffffffffffffffffffffffffffffffffffffff1602179055508173ffffffffffffffffffffffffffffffffffffffff168173ffffffffffffffffffffffffffffffffffffffff167f8be0079c531659141344cd1fd0a4f28419497f9722a3daafe3b4186f6b6457e060405160405180910390a35050565b5f5ffd5b5f73ffffffffffffffffffffffffffffffffffffffff82169050919050565b5f6102788261024f565b9050919050565b6102888161026e565b8114610292575f5ffd5b50565b5f815190506102a38161027f565b92915050565b5f602082840312156102be576102bd61024b565b5b5f6102cb84828501610295565b91505092915050565b6102dd8161026e565b82525050565b5f6020820190506102f65f8301846102d4565b92915050565b5f82825260208201905092915050565b7f496e76616c696420746f6b656e206164647265737300000000000000000000005f82015250565b5f6103406015836102fc565b915061034b8261030c565b602082019050919050565b5f6020820190508181035f83015261036d81610334565b9050919050565b608051614d166103b65f395f8181610cc3015281816111ac01528181611bd001528181611c6b01528181611dca0152818161225701526123310152614d165ff3fe608060405234801561000f575f5ffd5b50600436106101d8575f3560e01c80637d06a8e111610102578063b0e21e8a116100a0578063cffae0521161006f578063cffae05214610515578063f1a1568714610545578063f213cfd714610575578063f2fde38b14610591576101d8565b8063b0e21e8a14610479578063b84018d214610497578063c03fb87c146104c7578063c5adf7c9146104f7576101d8565b80639257f275116100dc5780639257f275146103f3578063993ab58e146104235780639e14427e1461043f578063a5a410311461045b576101d8565b80637d06a8e1146103975780638456cb59146103cb5780638da5cb5b146103d5576101d8565b80634768d4ef1161017a578063677bd9ff11610149578063677bd9ff146103395780636ff1c9bc14610355578063715018a614610371578063787dce3d1461037b576101d8565b80634768d4ef146102a857806357a47928146102e15780635c975abb146102ff5780635e7dfd4a1461031d576101d8565b80633500836c116101b65780633500836c146102345780633d092b3d146102505780633f4ba83a1461028057806343425e881461028a576101d8565b80630d80acd8146101dc578063127949cb146101f85780631e0197e214610216575b5f5ffd5b6101f660048036038101906101f19190612fcc565b6105ad565b005b610200610817565b60405161020d919061309e565b60405180910390f35b61021e61083c565b60405161022b919061309e565b60405180910390f35b61024e60048036038101906102499190613117565b610861565b005b61026a60048036038101906102659190613167565b610b7f565b6040516102779190613301565b60405180910390f35b610288610cb7565b005b610292610cc1565b60405161029f919061337c565b60405180910390f35b6102c260048036038101906102bd9190613167565b610ce5565b6040516102d89a9998979695949392919061340a565b60405180910390f35b6102e9610dd4565b6040516102f691906134ab565b60405180910390f35b610307610ddd565b60405161031491906134c4565b60405180910390f35b610337600480360381019061033291906134dd565b610df2565b005b610353600480360381019061034e9190613167565b610ee6565b005b61036f600480360381019061036a91906134dd565b61132f565b005b6103796114d6565b005b61039560048036038101906103909190613167565b6114e9565b005b6103b160048036038101906103ac9190613508565b61156f565b6040516103c2959493929190613546565b60405180910390f35b6103d36115e4565b005b6103dd6115ee565b6040516103ea919061309e565b60405180910390f35b61040d60048036038101906104089190613597565b611615565b60405161041a91906134ab565b60405180910390f35b61043d600480360381019061043891906134dd565b6116d0565b005b61045960048036038101906104549190613597565b6117c4565b005b6104636120a5565b60405161047091906134ab565b60405180910390f35b6104816120ae565b60405161048e91906134ab565b60405180910390f35b6104b160048036038101906104ac91906134dd565b6120b4565b6040516104be919061368f565b60405180910390f35b6104e160048036038101906104dc9190613508565b612147565b6040516104ee9190613724565b60405180910390f35b6104ff61224d565b60405161050c91906134ab565b60405180910390f35b61052f600480360381019061052a9190613597565b612253565b60405161053c91906134c4565b60405180910390f35b61055f600480360381019061055a919061373d565b6126ad565b60405161056c91906134ab565b60405180910390f35b61058f600480360381019061058a919061377b565b6126d8565b005b6105ab60048036038101906105a691906134dd565b6128b6565b005b5f8551116105f0576040517f08c379a00000000000000000000000000000000000000000000000000000000081526004016105e790613803565b60405180910390fd5b428411610632576040517f08c379a00000000000000000000000000000000000000000000000000000000081526004016106299061386b565b60405180910390fd5b838311610674576040517f08c379a000000000000000000000000000000000000000000000000000000000815260040161066b906138d3565b60405180910390fd5b5f8211801561068257508181115b6106c1576040517f08c379a00000000000000000000000000000000000000000000000000000000081526004016106b89061393b565b60405180910390fd5b5f60035f8154809291906106d490613986565b9190505590506040518061014001604052808281526020018781526020018681526020018581526020018481526020018381526020015f151581526020015f60ff1681526020015f81526020015f81525060065f8381526020019081526020015f205f820151815f015560208201518160010190816107539190613bc1565b5060408201518160020155606082015181600301556080820151816004015560a0820151816005015560c0820151816006015f6101000a81548160ff02191690831515021790555060e08201518160060160016101000a81548160ff021916908360ff16021790555061010082015181600701556101208201518160080155905050807f69a37531de37a5a53f6e93a87bd1c8ec3b0fa7a241ffb6b38a1b2b90f72350de8787604051610807929190613c90565b60405180910390a2505050505050565b60055f9054906101000a900473ffffffffffffffffffffffffffffffffffffffff1681565b60045f9054906101000a900473ffffffffffffffffffffffffffffffffffffffff1681565b818060065f8381526020019081526020015f205f0154146108b7576040517f08c379a00000000000000000000000000000000000000000000000000000000081526004016108ae90613d08565b60405180910390fd5b8260065f8281526020019081526020015f2060020154421061090e576040517f08c379a000000000000000000000000000000000000000000000000000000000815260040161090590613d70565b60405180910390fd5b60045f9054906101000a900473ffffffffffffffffffffffffffffffffffffffff1673ffffffffffffffffffffffffffffffffffffffff163373ffffffffffffffffffffffffffffffffffffffff161461099d576040517f08c379a000000000000000000000000000000000000000000000000000000000815260040161099490613dd8565b60405180910390fd5b6040518060a001604052808673ffffffffffffffffffffffffffffffffffffffff1681526020018581526020015f81526020018460ff1681526020015f151581525060075f8681526020019081526020015f205f8773ffffffffffffffffffffffffffffffffffffffff1673ffffffffffffffffffffffffffffffffffffffff1681526020019081526020015f205f820151815f015f6101000a81548173ffffffffffffffffffffffffffffffffffffffff021916908373ffffffffffffffffffffffffffffffffffffffff16021790555060208201518160010155604082015181600201556060820151816003015f6101000a81548160ff021916908360ff16021790555060808201518160030160016101000a81548160ff02191690831515021790555090505060085f8673ffffffffffffffffffffffffffffffffffffffff1673ffffffffffffffffffffffffffffffffffffffff1681526020019081526020015f2084908060018154018082558091505060019003905f5260205f20015f90919091909150558473ffffffffffffffffffffffffffffffffffffffff16847fe90186097616cbeb30ffc786b44501e1362f5e0a316a96c5ab82a0551f9d2f055f86604051610b70929190613e2f565b60405180910390a35050505050565b610b87612db8565b60065f8381526020019081526020015f20604051806101400160405290815f8201548152602001600182018054610bbd906139fa565b80601f0160208091040260200160405190810160405280929190818152602001828054610be9906139fa565b8015610c345780601f10610c0b57610100808354040283529160200191610c34565b820191905f5260205f20905b815481529060010190602001808311610c1757829003601f168201915b5050505050815260200160028201548152602001600382015481526020016004820154815260200160058201548152602001600682015f9054906101000a900460ff161515151581526020016006820160019054906101000a900460ff1660ff1660ff168152602001600782015481526020016008820154815250509050919050565b610cbf61293a565b565b7f000000000000000000000000000000000000000000000000000000000000000081565b6006602052805f5260405f205f91509050805f015490806001018054610d0a906139fa565b80601f0160208091040260200160405190810160405280929190818152602001828054610d36906139fa565b8015610d815780601f10610d5857610100808354040283529160200191610d81565b820191905f5260205f20905b815481529060010190602001808311610d6457829003601f168201915b505050505090806002015490806003015490806004015490806005015490806006015f9054906101000a900460ff16908060060160019054906101000a900460ff1690806007015490806008015490508a565b5f600354905090565b5f5f60149054906101000a900460ff16905090565b5f73ffffffffffffffffffffffffffffffffffffffff168173ffffffffffffffffffffffffffffffffffffffff1603610e60576040517f08c379a0000000000000000000000000000000000000000000000000000000008152600401610e5790613ea0565b60405180910390fd5b8060055f6101000a81548173ffffffffffffffffffffffffffffffffffffffff021916908373ffffffffffffffffffffffffffffffffffffffff1602179055508073ffffffffffffffffffffffffffffffffffffffff167fc45061a24a71fcf3ea91ac08c21c1c8fbb8b2d68b36d3c58f6cfda82106aef4f60405160405180910390a250565b610eee61299b565b808060065f8381526020019081526020015f205f015414610f44576040517f08c379a0000000000000000000000000000000000000000000000000000000008152600401610f3b90613d08565b60405180910390fd5b5f60065f8481526020019081526020015f209050806006015f9054906101000a900460ff16610fa8576040517f08c379a0000000000000000000000000000000000000000000000000000000008152600401610f9f90613f08565b60405180910390fd5b5f60075f8581526020019081526020015f205f3373ffffffffffffffffffffffffffffffffffffffff1673ffffffffffffffffffffffffffffffffffffffff1681526020019081526020015f2090505f81600201541161103d576040517f08c379a000000000000000000000000000000000000000000000000000000000815260040161103490613f70565b60405180910390fd5b8060030160019054906101000a900460ff161561108f576040517f08c379a000000000000000000000000000000000000000000000000000000000815260040161108690613fd8565b60405180910390fd5b8160060160019054906101000a900460ff1660ff16816003015f9054906101000a900460ff1660ff16146110f8576040517f08c379a00000000000000000000000000000000000000000000000000000000081526004016110ef90614040565b60405180910390fd5b60018160030160016101000a81548160ff0219169083151502179055505f60018360060160019054906101000a900460ff1660ff161461113c578260080154611142565b82600701545b90505f83600801548460070154611159919061405e565b90505f8282856002015461116d9190614091565b61117791906140ff565b90505f6127106002548361118b9190614091565b61119591906140ff565b905080826111a3919061412f565b91506111f033837f000000000000000000000000000000000000000000000000000000000000000073ffffffffffffffffffffffffffffffffffffffff166129e19092919063ffffffff16565b5f73ffffffffffffffffffffffffffffffffffffffff1660055f9054906101000a900473ffffffffffffffffffffffffffffffffffffffff1673ffffffffffffffffffffffffffffffffffffffff16146112ce5760055f9054906101000a900473ffffffffffffffffffffffffffffffffffffffff1673ffffffffffffffffffffffffffffffffffffffff1663a8031a1d33846040518363ffffffff1660e01b81526004016112a0929190614162565b5f604051808303815f87803b1580156112b7575f5ffd5b505af11580156112c9573d5f5f3e3d5ffd5b505050505b3373ffffffffffffffffffffffffffffffffffffffff16887f5380cf6fe903b40c6d5a9e0dfbca2f3a423f0a21520b4d5947ed5169bdba946d8460405161131591906134ab565b60405180910390a35050505050505061132c612a60565b50565b611337612a69565b5f73ffffffffffffffffffffffffffffffffffffffff168173ffffffffffffffffffffffffffffffffffffffff16036113a5576040517f08c379a000000000000000000000000000000000000000000000000000000000815260040161139c906141d3565b60405180910390fd5b5f8190505f8173ffffffffffffffffffffffffffffffffffffffff166370a08231306040518263ffffffff1660e01b81526004016113e3919061309e565b602060405180830381865afa1580156113fe573d5f5f3e3d5ffd5b505050506040513d601f19601f820116820180604052508101906114229190614205565b90505f8111611466576040517f08c379a000000000000000000000000000000000000000000000000000000000815260040161145d9061427a565b60405180910390fd5b6114986114716115ee565b828473ffffffffffffffffffffffffffffffffffffffff166129e19092919063ffffffff16565b7f5fafa99d0643513820be26656b45130b01e1c03062e1266bf36f88cbd3bd969583826040516114c9929190614162565b60405180910390a1505050565b6114de612a69565b6114e75f612af0565b565b6103e881111561152e576040517f08c379a0000000000000000000000000000000000000000000000000000000008152600401611525906142e2565b60405180910390fd5b806002819055507fd10d75876659a287a59a6ccfa2e3fff42f84d94b542837acd30bc184d562de408160405161156491906134ab565b60405180910390a150565b6007602052815f5260405f20602052805f5260405f205f9150915050805f015f9054906101000a900473ffffffffffffffffffffffffffffffffffffffff1690806001015490806002015490806003015f9054906101000a900460ff16908060030160019054906101000a900460ff16905085565b6115ec612bb1565b565b5f5f5f9054906101000a900473ffffffffffffffffffffffffffffffffffffffff16905090565b5f5f60065f8681526020019081526020015f2090505f60018460ff1614611640578160080154611646565b81600701545b90505f8260080154836007015461165d919061405e565b90505f820361167d576002866116739190614091565b93505050506116c9565b5f82828861168b9190614091565b61169591906140ff565b90505f612710600254836116a99190614091565b6116b391906140ff565b905080826116c1919061412f565b955050505050505b9392505050565b5f73ffffffffffffffffffffffffffffffffffffffff168173ffffffffffffffffffffffffffffffffffffffff160361173e576040517f08c379a00000000000000000000000000000000000000000000000000000000081526004016117359061434a565b60405180910390fd5b8060045f6101000a81548173ffffffffffffffffffffffffffffffffffffffff021916908373ffffffffffffffffffffffffffffffffffffffff1602179055508073ffffffffffffffffffffffffffffffffffffffff167fbb4f3f7196d5a1c6db1c04fd4e78790c124195d0dc1e299ac6dd264d6fa365bc60405160405180910390a250565b6117cc612c13565b7f7896124430355ea9a2e8a41136ae8f37ec84f6a07c108a3a75a070e526e0f2d9836040516117fb91906143b2565b60405180910390a15f83118015611813575060035483105b801561183157508260065f8581526020019081526020015f205f0154145b611870576040517f08c379a000000000000000000000000000000000000000000000000000000000815260040161186790613d08565b60405180910390fd5b7f7896124430355ea9a2e8a41136ae8f37ec84f6a07c108a3a75a070e526e0f2d98360405161189f9190614428565b60405180910390a15f60065f8581526020019081526020015f20905080600201544210611901576040517f08c379a00000000000000000000000000000000000000000000000000000000081526004016118f890613d70565b60405180910390fd5b7f7896124430355ea9a2e8a41136ae8f37ec84f6a07c108a3a75a070e526e0f2d98160020154604051611934919061449e565b60405180910390a160018260ff161480611951575060028260ff16145b611990576040517f08c379a000000000000000000000000000000000000000000000000000000000815260040161198790614514565b60405180910390fd5b7f7896124430355ea9a2e8a41136ae8f37ec84f6a07c108a3a75a070e526e0f2d9826040516119bf91906145ac565b60405180910390a15f8311611a09576040517f08c379a0000000000000000000000000000000000000000000000000000000008152600401611a0090614622565b60405180910390fd5b7f7896124430355ea9a2e8a41136ae8f37ec84f6a07c108a3a75a070e526e0f2d983604051611a38919061468a565b60405180910390a18060040154831015611a87576040517f08c379a0000000000000000000000000000000000000000000000000000000008152600401611a7e90614700565b60405180910390fd5b8060050154831115611ace576040517f08c379a0000000000000000000000000000000000000000000000000000000008152600401611ac590614768565b60405180910390fd5b7f7896124430355ea9a2e8a41136ae8f37ec84f6a07c108a3a75a070e526e0f2d983604051611afd91906147d0565b60405180910390a15f60075f8681526020019081526020015f205f3373ffffffffffffffffffffffffffffffffffffffff1673ffffffffffffffffffffffffffffffffffffffff1681526020019081526020015f206002015414611b96576040517f08c379a0000000000000000000000000000000000000000000000000000000008152600401611b8d90614846565b60405180910390fd5b7f7896124430355ea9a2e8a41136ae8f37ec84f6a07c108a3a75a070e526e0f2d984604051611bc591906148ae565b60405180910390a15f7f000000000000000000000000000000000000000000000000000000000000000073ffffffffffffffffffffffffffffffffffffffff166370a08231336040518263ffffffff1660e01b8152600401611c27919061309e565b602060405180830381865afa158015611c42573d5f5f3e3d5ffd5b505050506040513d601f19601f82011682018060405250810190611c669190614205565b90505f7f000000000000000000000000000000000000000000000000000000000000000073ffffffffffffffffffffffffffffffffffffffff1663dd62ed3e33306040518363ffffffff1660e01b8152600401611cc49291906148da565b602060405180830381865afa158015611cdf573d5f5f3e3d5ffd5b505050506040513d601f19601f82011682018060405250810190611d039190614205565b905084821015611d48576040517f08c379a0000000000000000000000000000000000000000000000000000000008152600401611d3f9061494b565b60405180910390fd5b84811015611d8b576040517f08c379a0000000000000000000000000000000000000000000000000000000008152600401611d82906149b3565b60405180910390fd5b7f7896124430355ea9a2e8a41136ae8f37ec84f6a07c108a3a75a070e526e0f2d982604051611dba9190614a1b565b60405180910390a1611e0f3330877f000000000000000000000000000000000000000000000000000000000000000073ffffffffffffffffffffffffffffffffffffffff16612c54909392919063ffffffff16565b7f7896124430355ea9a2e8a41136ae8f37ec84f6a07c108a3a75a070e526e0f2d985604051611e3e9190614a91565b60405180910390a16040518060a001604052803373ffffffffffffffffffffffffffffffffffffffff1681526020018781526020018681526020018560ff1681526020015f151581525060075f8881526020019081526020015f205f3373ffffffffffffffffffffffffffffffffffffffff1673ffffffffffffffffffffffffffffffffffffffff1681526020019081526020015f205f820151815f015f6101000a81548173ffffffffffffffffffffffffffffffffffffffff021916908373ffffffffffffffffffffffffffffffffffffffff16021790555060208201518160010155604082015181600201556060820151816003015f6101000a81548160ff021916908360ff16021790555060808201518160030160016101000a81548160ff02191690831515021790555090505060018460ff1603611f995784836007015f828254611f8d919061405e565b92505081905550611fb4565b84836008015f828254611fac919061405e565b925050819055505b60085f3373ffffffffffffffffffffffffffffffffffffffff1673ffffffffffffffffffffffffffffffffffffffff1681526020019081526020015f2086908060018154018082558091505060019003905f5260205f20015f90919091909150557f7896124430355ea9a2e8a41136ae8f37ec84f6a07c108a3a75a070e526e0f2d9866040516120449190614b07565b60405180910390a13373ffffffffffffffffffffffffffffffffffffffff16867fe90186097616cbeb30ffc786b44501e1362f5e0a316a96c5ab82a0551f9d2f058787604051612095929190614b33565b60405180910390a3505050505050565b5f600254905090565b60025481565b606060085f8373ffffffffffffffffffffffffffffffffffffffff1673ffffffffffffffffffffffffffffffffffffffff1681526020019081526020015f2080548060200260200160405190810160405280929190818152602001828054801561213b57602002820191905f5260205f20905b815481526020019060010190808311612127575b50505050509050919050565b61214f612e07565b60075f8481526020019081526020015f205f8373ffffffffffffffffffffffffffffffffffffffff1673ffffffffffffffffffffffffffffffffffffffff1681526020019081526020015f206040518060a00160405290815f82015f9054906101000a900473ffffffffffffffffffffffffffffffffffffffff1673ffffffffffffffffffffffffffffffffffffffff1673ffffffffffffffffffffffffffffffffffffffff1681526020016001820154815260200160028201548152602001600382015f9054906101000a900460ff1660ff1660ff1681526020016003820160019054906101000a900460ff161515151581525050905092915050565b60035481565b5f827f000000000000000000000000000000000000000000000000000000000000000073ffffffffffffffffffffffffffffffffffffffff166370a08231336040518263ffffffff1660e01b81526004016122ae919061309e565b602060405180830381865afa1580156122c9573d5f5f3e3d5ffd5b505050506040513d601f19601f820116820180604052508101906122ed9190614205565b101561232e576040517f08c379a00000000000000000000000000000000000000000000000000000000081526004016123259061494b565b60405180910390fd5b827f000000000000000000000000000000000000000000000000000000000000000073ffffffffffffffffffffffffffffffffffffffff1663dd62ed3e33306040518363ffffffff1660e01b815260040161238a9291906148da565b602060405180830381865afa1580156123a5573d5f5f3e3d5ffd5b505050506040513d601f19601f820116820180604052508101906123c99190614205565b101561240a576040517f08c379a0000000000000000000000000000000000000000000000000000000008152600401612401906149b3565b60405180910390fd5b5f8411801561241a575060035484105b801561243857508360065f8681526020019081526020015f205f0154145b612477576040517f08c379a000000000000000000000000000000000000000000000000000000000815260040161246e90613d08565b60405180910390fd5b60065f8581526020019081526020015f206002015442106124cd576040517f08c379a00000000000000000000000000000000000000000000000000000000081526004016124c490613d70565b60405180910390fd5b60018260ff1614806124e2575060028260ff16145b612521576040517f08c379a000000000000000000000000000000000000000000000000000000000815260040161251890614514565b60405180910390fd5b5f8311612563576040517f08c379a000000000000000000000000000000000000000000000000000000000815260040161255a90614622565b60405180910390fd5b60065f8581526020019081526020015f20600401548310156125ba576040517f08c379a00000000000000000000000000000000000000000000000000000000081526004016125b190614700565b60405180910390fd5b60065f8581526020019081526020015f2060050154831115612611576040517f08c379a000000000000000000000000000000000000000000000000000000000815260040161260890614768565b60405180910390fd5b5f60075f8681526020019081526020015f205f3373ffffffffffffffffffffffffffffffffffffffff1673ffffffffffffffffffffffffffffffffffffffff1681526020019081526020015f2060020154146126a2576040517f08c379a000000000000000000000000000000000000000000000000000000000815260040161269990614846565b60405180910390fd5b600190509392505050565b6008602052815f5260405f2081815481106126c6575f80fd5b905f5260205f20015f91509150505481565b818060065f8381526020019081526020015f205f01541461272e576040517f08c379a000000000000000000000000000000000000000000000000000000000815260040161272590613d08565b60405180910390fd5b8260065f8281526020019081526020015f20600301544211612785576040517f08c379a000000000000000000000000000000000000000000000000000000000815260040161277c90614ba4565b60405180910390fd5b5f60065f8681526020019081526020015f209050806006015f9054906101000a900460ff16156127ea576040517f08c379a00000000000000000000000000000000000000000000000000000000081526004016127e190614c0c565b60405180910390fd5b60018460ff1614806127ff575060028460ff16145b61283e576040517f08c379a000000000000000000000000000000000000000000000000000000000815260040161283590614c74565b60405180910390fd5b838160060160016101000a81548160ff021916908360ff1602179055506001816006015f6101000a81548160ff021916908315150217905550847fb21c6c267c5a3609aece227ea8d6e069f2e4dc0f731e75912f1ca7519c093c78856040516128a79190614c92565b60405180910390a25050505050565b6128be612a69565b5f73ffffffffffffffffffffffffffffffffffffffff168173ffffffffffffffffffffffffffffffffffffffff160361292e575f6040517f1e4fbdf7000000000000000000000000000000000000000000000000000000008152600401612925919061309e565b60405180910390fd5b61293781612af0565b50565b612942612cd6565b5f5f60146101000a81548160ff0219169083151502179055507f5db9ee0a495bf2e6ff9c91a7834c1ba4fdd244a5e8aa4e537bd38aeae4b073aa612984612d16565b604051612991919061309e565b60405180910390a1565b6002600154036129d7576040517f3ee5aeb500000000000000000000000000000000000000000000000000000000815260040160405180910390fd5b6002600181905550565b612a5b838473ffffffffffffffffffffffffffffffffffffffff1663a9059cbb8585604051602401612a14929190614162565b604051602081830303815290604052915060e01b6020820180517bffffffffffffffffffffffffffffffffffffffffffffffffffffffff8381831617835250505050612d1d565b505050565b60018081905550565b612a71612d16565b73ffffffffffffffffffffffffffffffffffffffff16612a8f6115ee565b73ffffffffffffffffffffffffffffffffffffffff1614612aee57612ab2612d16565b6040517f118cdaa7000000000000000000000000000000000000000000000000000000008152600401612ae5919061309e565b60405180910390fd5b565b5f5f5f9054906101000a900473ffffffffffffffffffffffffffffffffffffffff169050815f5f6101000a81548173ffffffffffffffffffffffffffffffffffffffff021916908373ffffffffffffffffffffffffffffffffffffffff1602179055508173ffffffffffffffffffffffffffffffffffffffff168173ffffffffffffffffffffffffffffffffffffffff167f8be0079c531659141344cd1fd0a4f28419497f9722a3daafe3b4186f6b6457e060405160405180910390a35050565b612bb9612c13565b60015f60146101000a81548160ff0219169083151502179055507f62e78cea01bee320cd4e420270b5ea74000d11b0c9f74754ebdbfc544b05a258612bfc612d16565b604051612c09919061309e565b60405180910390a1565b612c1b610ddd565b15612c52576040517fd93c066500000000000000000000000000000000000000000000000000000000815260040160405180910390fd5b565b612cd0848573ffffffffffffffffffffffffffffffffffffffff166323b872dd868686604051602401612c8993929190614cab565b604051602081830303815290604052915060e01b6020820180517bffffffffffffffffffffffffffffffffffffffffffffffffffffffff8381831617835250505050612d1d565b50505050565b612cde610ddd565b612d14576040517f8dfc202b00000000000000000000000000000000000000000000000000000000815260040160405180910390fd5b565b5f33905090565b5f5f60205f8451602086015f885af180612d3c576040513d5f823e3d81fd5b3d92505f519150505f8214612d55576001811415612d70565b5f8473ffffffffffffffffffffffffffffffffffffffff163b145b15612db257836040517f5274afe7000000000000000000000000000000000000000000000000000000008152600401612da9919061309e565b60405180910390fd5b50505050565b6040518061014001604052805f8152602001606081526020015f81526020015f81526020015f81526020015f81526020015f151581526020015f60ff1681526020015f81526020015f81525090565b6040518060a001604052805f73ffffffffffffffffffffffffffffffffffffffff1681526020015f81526020015f81526020015f60ff1681526020015f151581525090565b5f604051905090565b5f5ffd5b5f5ffd5b5f5ffd5b5f5ffd5b5f601f19601f8301169050919050565b7f4e487b71000000000000000000000000000000000000000000000000000000005f52604160045260245ffd5b612eab82612e65565b810181811067ffffffffffffffff82111715612eca57612ec9612e75565b5b80604052505050565b5f612edc612e4c565b9050612ee88282612ea2565b919050565b5f67ffffffffffffffff821115612f0757612f06612e75565b5b612f1082612e65565b9050602081019050919050565b828183375f83830152505050565b5f612f3d612f3884612eed565b612ed3565b905082815260208101848484011115612f5957612f58612e61565b5b612f64848285612f1d565b509392505050565b5f82601f830112612f8057612f7f612e5d565b5b8135612f90848260208601612f2b565b91505092915050565b5f819050919050565b612fab81612f99565b8114612fb5575f5ffd5b50565b5f81359050612fc681612fa2565b92915050565b5f5f5f5f5f60a08688031215612fe557612fe4612e55565b5b5f86013567ffffffffffffffff81111561300257613001612e59565b5b61300e88828901612f6c565b955050602061301f88828901612fb8565b945050604061303088828901612fb8565b935050606061304188828901612fb8565b925050608061305288828901612fb8565b9150509295509295909350565b5f73ffffffffffffffffffffffffffffffffffffffff82169050919050565b5f6130888261305f565b9050919050565b6130988161307e565b82525050565b5f6020820190506130b15f83018461308f565b92915050565b6130c08161307e565b81146130ca575f5ffd5b50565b5f813590506130db816130b7565b92915050565b5f60ff82169050919050565b6130f6816130e1565b8114613100575f5ffd5b50565b5f81359050613111816130ed565b92915050565b5f5f5f6060848603121561312e5761312d612e55565b5b5f61313b868287016130cd565b935050602061314c86828701612fb8565b925050604061315d86828701613103565b9150509250925092565b5f6020828403121561317c5761317b612e55565b5b5f61318984828501612fb8565b91505092915050565b61319b81612f99565b82525050565b5f81519050919050565b5f82825260208201905092915050565b8281835e5f83830152505050565b5f6131d3826131a1565b6131dd81856131ab565b93506131ed8185602086016131bb565b6131f681612e65565b840191505092915050565b5f8115159050919050565b61321581613201565b82525050565b613224816130e1565b82525050565b5f61014083015f8301516132405f860182613192565b506020830151848203602086015261325882826131c9565b915050604083015161326d6040860182613192565b5060608301516132806060860182613192565b5060808301516132936080860182613192565b5060a08301516132a660a0860182613192565b5060c08301516132b960c086018261320c565b5060e08301516132cc60e086018261321b565b506101008301516132e1610100860182613192565b506101208301516132f6610120860182613192565b508091505092915050565b5f6020820190508181035f830152613319818461322a565b905092915050565b5f819050919050565b5f61334461333f61333a8461305f565b613321565b61305f565b9050919050565b5f6133558261332a565b9050919050565b5f6133668261334b565b9050919050565b6133768161335c565b82525050565b5f60208201905061338f5f83018461336d565b92915050565b61339e81612f99565b82525050565b5f82825260208201905092915050565b5f6133be826131a1565b6133c881856133a4565b93506133d88185602086016131bb565b6133e181612e65565b840191505092915050565b6133f581613201565b82525050565b613404816130e1565b82525050565b5f6101408201905061341e5f83018d613395565b8181036020830152613430818c6133b4565b905061343f604083018b613395565b61344c606083018a613395565b6134596080830189613395565b61346660a0830188613395565b61347360c08301876133ec565b61348060e08301866133fb565b61348e610100830185613395565b61349c610120830184613395565b9b9a5050505050505050505050565b5f6020820190506134be5f830184613395565b92915050565b5f6020820190506134d75f8301846133ec565b92915050565b5f602082840312156134f2576134f1612e55565b5b5f6134ff848285016130cd565b91505092915050565b5f5f6040838503121561351e5761351d612e55565b5b5f61352b85828601612fb8565b925050602061353c858286016130cd565b9150509250929050565b5f60a0820190506135595f83018861308f565b6135666020830187613395565b6135736040830186613395565b61358060608301856133fb565b61358d60808301846133ec565b9695505050505050565b5f5f5f606084860312156135ae576135ad612e55565b5b5f6135bb86828701612fb8565b93505060206135cc86828701612fb8565b92505060406135dd86828701613103565b9150509250925092565b5f81519050919050565b5f82825260208201905092915050565b5f819050602082019050919050565b5f61361b8383613192565b60208301905092915050565b5f602082019050919050565b5f61363d826135e7565b61364781856135f1565b935061365283613601565b805f5b838110156136825781516136698882613610565b975061367483613627565b925050600181019050613655565b5085935050505092915050565b5f6020820190508181035f8301526136a78184613633565b905092915050565b6136b88161307e565b82525050565b60a082015f8201516136d25f8501826136af565b5060208201516136e56020850182613192565b5060408201516136f86040850182613192565b50606082015161370b606085018261321b565b50608082015161371e608085018261320c565b50505050565b5f60a0820190506137375f8301846136be565b92915050565b5f5f6040838503121561375357613752612e55565b5b5f613760858286016130cd565b925050602061377185828601612fb8565b9150509250929050565b5f5f6040838503121561379157613790612e55565b5b5f61379e85828601612fb8565b92505060206137af85828601613103565b9150509250929050565b7f496e76616c6964206e616d6500000000000000000000000000000000000000005f82015250565b5f6137ed600c836133a4565b91506137f8826137b9565b602082019050919050565b5f6020820190508181035f83015261381a816137e1565b9050919050565b7f496e76616c69642073746172742074696d6500000000000000000000000000005f82015250565b5f6138556012836133a4565b915061386082613821565b602082019050919050565b5f6020820190508181035f83015261388281613849565b9050919050565b7f496e76616c696420656e642074696d65000000000000000000000000000000005f82015250565b5f6138bd6010836133a4565b91506138c882613889565b602082019050919050565b5f6020820190508181035f8301526138ea816138b1565b9050919050565b7f496e76616c696420626574206c696d69747300000000000000000000000000005f82015250565b5f6139256012836133a4565b9150613930826138f1565b602082019050919050565b5f6020820190508181035f83015261395281613919565b9050919050565b7f4e487b71000000000000000000000000000000000000000000000000000000005f52601160045260245ffd5b5f61399082612f99565b91507fffffffffffffffffffffffffffffffffffffffffffffffffffffffffffffffff82036139c2576139c1613959565b5b600182019050919050565b7f4e487b71000000000000000000000000000000000000000000000000000000005f52602260045260245ffd5b5f6002820490506001821680613a1157607f821691505b602082108103613a2457613a236139cd565b5b50919050565b5f819050815f5260205f209050919050565b5f6020601f8301049050919050565b5f82821b905092915050565b5f60088302613a867fffffffffffffffffffffffffffffffffffffffffffffffffffffffffffffffff82613a4b565b613a908683613a4b565b95508019841693508086168417925050509392505050565b5f613ac2613abd613ab884612f99565b613321565b612f99565b9050919050565b5f819050919050565b613adb83613aa8565b613aef613ae782613ac9565b848454613a57565b825550505050565b5f5f905090565b613b06613af7565b613b11818484613ad2565b505050565b5b81811015613b3457613b295f82613afe565b600181019050613b17565b5050565b601f821115613b7957613b4a81613a2a565b613b5384613a3c565b81016020851015613b62578190505b613b76613b6e85613a3c565b830182613b16565b50505b505050565b5f82821c905092915050565b5f613b995f1984600802613b7e565b1980831691505092915050565b5f613bb18383613b8a565b9150826002028217905092915050565b613bca826131a1565b67ffffffffffffffff811115613be357613be2612e75565b5b613bed82546139fa565b613bf8828285613b38565b5f60209050601f831160018114613c29575f8415613c17578287015190505b613c218582613ba6565b865550613c88565b601f198416613c3786613a2a565b5f5b82811015613c5e57848901518255600182019150602085019450602081019050613c39565b86831015613c7b5784890151613c77601f891682613b8a565b8355505b6001600288020188555050505b505050505050565b5f6040820190508181035f830152613ca881856133b4565b9050613cb76020830184613395565b9392505050565b7f4d6174636820646f6573206e6f742065786973740000000000000000000000005f82015250565b5f613cf26014836133a4565b9150613cfd82613cbe565b602082019050919050565b5f6020820190508181035f830152613d1f81613ce6565b9050919050565b7f4d6174636820616c7265616479207374617274656400000000000000000000005f82015250565b5f613d5a6015836133a4565b9150613d6582613d26565b602082019050919050565b5f6020820190508181035f830152613d8781613d4e565b9050919050565b7f4f6e6c7920746f75726e616d656e7400000000000000000000000000000000005f82015250565b5f613dc2600f836133a4565b9150613dcd82613d8e565b602082019050919050565b5f6020820190508181035f830152613def81613db6565b9050919050565b5f819050919050565b5f613e19613e14613e0f84613df6565b613321565b612f99565b9050919050565b613e2981613dff565b82525050565b5f604082019050613e425f830185613e20565b613e4f60208301846133fb565b9392505050565b7f496e76616c696420636f6d6d756e6974792068756220616464726573730000005f82015250565b5f613e8a601d836133a4565b9150613e9582613e56565b602082019050919050565b5f6020820190508181035f830152613eb781613e7e565b9050919050565b7f4d61746368206e6f742066696e616c697a6564000000000000000000000000005f82015250565b5f613ef26013836133a4565b9150613efd82613ebe565b602082019050919050565b5f6020820190508181035f830152613f1f81613ee6565b9050919050565b7f4e6f2062657420706c61636564000000000000000000000000000000000000005f82015250565b5f613f5a600d836133a4565b9150613f6582613f26565b602082019050919050565b5f6020820190508181035f830152613f8781613f4e565b9050919050565b7f416c726561647920636c61696d656400000000000000000000000000000000005f82015250565b5f613fc2600f836133a4565b9150613fcd82613f8e565b602082019050919050565b5f6020820190508181035f830152613fef81613fb6565b9050919050565b7f42657420646964206e6f742077696e00000000000000000000000000000000005f82015250565b5f61402a600f836133a4565b915061403582613ff6565b602082019050919050565b5f6020820190508181035f8301526140578161401e565b9050919050565b5f61406882612f99565b915061407383612f99565b925082820190508082111561408b5761408a613959565b5b92915050565b5f61409b82612f99565b91506140a683612f99565b92508282026140b481612f99565b915082820484148315176140cb576140ca613959565b5b5092915050565b7f4e487b71000000000000000000000000000000000000000000000000000000005f52601260045260245ffd5b5f61410982612f99565b915061411483612f99565b925082614124576141236140d2565b5b828204905092915050565b5f61413982612f99565b915061414483612f99565b925082820390508181111561415c5761415b613959565b5b92915050565b5f6040820190506141755f83018561308f565b6141826020830184613395565b9392505050565b7f496e76616c696420746f6b656e000000000000000000000000000000000000005f82015250565b5f6141bd600d836133a4565b91506141c882614189565b602082019050919050565b5f6020820190508181035f8301526141ea816141b1565b9050919050565b5f815190506141ff81612fa2565b92915050565b5f6020828403121561421a57614219612e55565b5b5f614227848285016141f1565b91505092915050565b7f4e6f2062616c616e636520746f207769746864726177000000000000000000005f82015250565b5f6142646016836133a4565b915061426f82614230565b602082019050919050565b5f6020820190508181035f83015261429181614258565b9050919050565b7f46656520746f6f206869676800000000000000000000000000000000000000005f82015250565b5f6142cc600c836133a4565b91506142d782614298565b602082019050919050565b5f6020820190508181035f8301526142f9816142c0565b9050919050565b7f496e76616c696420746f75726e616d656e7420616464726573730000000000005f82015250565b5f614334601a836133a4565b915061433f82614300565b602082019050919050565b5f6020820190508181035f83015261436181614328565b9050919050565b7f456e746572656420706c616365426574000000000000000000000000000000005f82015250565b5f61439c6010836133a4565b91506143a782614368565b602082019050919050565b5f6040820190508181035f8301526143c981614390565b90506143d86020830184613395565b92915050565b7f4d617463682065786973747300000000000000000000000000000000000000005f82015250565b5f614412600c836133a4565b915061441d826143de565b602082019050919050565b5f6040820190508181035f83015261443f81614406565b905061444e6020830184613395565b92915050565b7f4d61746368206e6f7420737461727465640000000000000000000000000000005f82015250565b5f6144886011836133a4565b915061449382614454565b602082019050919050565b5f6040820190508181035f8301526144b58161447c565b90506144c46020830184613395565b92915050565b7f496e76616c69642070726564696374696f6e00000000000000000000000000005f82015250565b5f6144fe6012836133a4565b9150614509826144ca565b602082019050919050565b5f6020820190508181035f83015261452b816144f2565b9050919050565b7f50726564696374696f6e2076616c6964000000000000000000000000000000005f82015250565b5f6145666010836133a4565b915061457182614532565b602082019050919050565b5f61459661459161458c846130e1565b613321565b612f99565b9050919050565b6145a68161457c565b82525050565b5f6040820190508181035f8301526145c38161455a565b90506145d2602083018461459d565b92915050565b7f496e76616c696420616d6f756e740000000000000000000000000000000000005f82015250565b5f61460c600e836133a4565b9150614617826145d8565b602082019050919050565b5f6020820190508181035f83015261463981614600565b9050919050565b7f416d6f756e742076616c696400000000000000000000000000000000000000005f82015250565b5f614674600c836133a4565b915061467f82614640565b602082019050919050565b5f6040820190508181035f8301526146a181614668565b90506146b06020830184613395565b92915050565b7f42657420746f6f20736d616c6c000000000000000000000000000000000000005f82015250565b5f6146ea600d836133a4565b91506146f5826146b6565b602082019050919050565b5f6020820190508181035f830152614717816146de565b9050919050565b7f42657420746f6f206c61726765000000000000000000000000000000000000005f82015250565b5f614752600d836133a4565b915061475d8261471e565b602082019050919050565b5f6020820190508181035f83015261477f81614746565b9050919050565b7f4265742077697468696e206c696d6974730000000000000000000000000000005f82015250565b5f6147ba6011836133a4565b91506147c582614786565b602082019050919050565b5f6040820190508181035f8301526147e7816147ae565b90506147f66020830184613395565b92915050565b7f416c726561647920626574206f6e2074686973206d61746368000000000000005f82015250565b5f6148306019836133a4565b915061483b826147fc565b602082019050919050565b5f6020820190508181035f83015261485d81614824565b9050919050565b7f4e6f206475706c696361746520626574000000000000000000000000000000005f82015250565b5f6148986010836133a4565b91506148a382614864565b602082019050919050565b5f6040820190508181035f8301526148c58161488c565b90506148d46020830184613395565b92915050565b5f6040820190506148ed5f83018561308f565b6148fa602083018461308f565b9392505050565b7f496e73756666696369656e7420746f6b656e2062616c616e63650000000000005f82015250565b5f614935601a836133a4565b915061494082614901565b602082019050919050565b5f6020820190508181035f83015261496281614929565b9050919050565b7f496e73756666696369656e7420746f6b656e20616c6c6f77616e6365000000005f82015250565b5f61499d601c836133a4565b91506149a882614969565b602082019050919050565b5f6020820190508181035f8301526149ca81614991565b9050919050565b7f42616c616e636520616e6420616c6c6f77616e63652076616c696400000000005f82015250565b5f614a05601b836133a4565b9150614a10826149d1565b602082019050919050565b5f6040820190508181035f830152614a32816149f9565b9050614a416020830184613395565b92915050565b7f546f6b656e207472616e73666572207375636365737366756c000000000000005f82015250565b5f614a7b6019836133a4565b9150614a8682614a47565b602082019050919050565b5f6040820190508181035f830152614aa881614a6f565b9050614ab76020830184613395565b92915050565b7f53746174652075706461746564000000000000000000000000000000000000005f82015250565b5f614af1600d836133a4565b9150614afc82614abd565b602082019050919050565b5f6040820190508181035f830152614b1e81614ae5565b9050614b2d6020830184613395565b92915050565b5f604082019050614b465f830185613395565b614b5360208301846133fb565b9392505050565b7f4d61746368206e6f7420656e64656400000000000000000000000000000000005f82015250565b5f614b8e600f836133a4565b9150614b9982614b5a565b602082019050919050565b5f6020820190508181035f830152614bbb81614b82565b9050919050565b7f4d6174636820616c72656164792066696e616c697a65640000000000000000005f82015250565b5f614bf66017836133a4565b9150614c0182614bc2565b602082019050919050565b5f6020820190508181035f830152614c2381614bea565b9050919050565b7f496e76616c69642077696e6e65720000000000000000000000000000000000005f82015250565b5f614c5e600e836133a4565b9150614c6982614c2a565b602082019050919050565b5f6020820190508181035f830152614c8b81614c52565b9050919050565b5f602082019050614ca55f8301846133fb565b92915050565b5f606082019050614cbe5f83018661308f565b614ccb602083018561308f565b614cd86040830184613395565b94935050505056fea2646970667358221220176a63d070fce4f5e8edc65e8a21be7cce952df56e23abf765459c730c5366ee64736f6c634300081c0033","linkReferences":{}},"methodIdentifiers":{"bettingToken()":"43425e88","calculatePotentialWinnings(uint256,uint256,uint8)":"9257f275","claimWinnings(uint256)":"677bd9ff","communityHub()":"127949cb","createMatch(string,uint256,uint256,uint256,uint256)":"0d80acd8","emergencyWithdraw(address)":"6ff1c9bc","finalizeMatch(uint256,uint8)":"f213cfd7","getMatch(uint256)":"3d092b3d","getNextMatchId()":"57a47928","getProtocolFee()":"a5a41031","getUserBet(uint256,address)":"c03fb87c","getUserBetHistory(address)":"b84018d2","matches(uint256)":"4768d4ef","nextMatchId()":"c5adf7c9","owner()":"8da5cb5b","pause()":"8456cb59","paused()":"5c975abb","placeBet(uint256,uint256,uint8)":"9e14427e","placeTournamentBet(address,uint256,uint8)":"3500836c","protocolFee()":"b0e21e8a","renounceOwnership()":"715018a6","setCommunityHub(address)":"5e7dfd4a","setProtocolFee(uint256)":"787dce3d","setTournament(address)":"993ab58e","tournament()":"1e0197e2","transferOwnership(address)":"f2fde38b","unpause()":"3f4ba83a","userBetHistory(address,uint256)":"f1a15687","userBets(uint256,address)":"7d06a8e1","validateBetParameters(uint256,uint256,uint8)":"cffae052"},"id":35}