{"abi":[{"type":"constructor","inputs":[{"name":"_token","type":"address","internalType":"address"}],"stateMutability":"nonpayable"},{"type":"function","name":"distributeRewards","inputs":[{"name":"user","type":"address","internalType":"address"},{"name":"amount","type":"uint256","internalType":"uint256"}],"outputs":[],"stateMutability":"nonpayable"},{"type":"function","name":"getReferralCount","inputs":[{"name":"user","type":"address","internalType":"address"}],"outputs":[{"name":"","type":"uint256","internalType":"uint256"}],"stateMutability":"view"},{"type":"function","name":"getReputation","inputs":[{"name":"user","type":"address","internalType":"address"}],"outputs":[{"name":"","type":"uint256","internalType":"uint256"}],"stateMutability":"view"},{"type":"function","name":"owner","inputs":[],"outputs":[{"name":"","type":"address","internalType":"address"}],"stateMutability":"view"},{"type":"function","name":"referralCount","inputs":[{"name":"","type":"address","internalType":"address"}],"outputs":[{"name":"","type":"uint256","internalType":"uint256"}],"stateMutability":"view"},{"type":"function","name":"referralRewards","inputs":[{"name":"","type":"address","internalType":"address"}],"outputs":[{"name":"","type":"uint256","internalType":"uint256"}],"stateMutability":"view"},{"type":"function","name":"referrers","inputs":[{"name":"","type":"address","internalType":"address"}],"outputs":[{"name":"","type":"address","internalType":"address"}],"stateMutability":"view"},{"type":"function","name":"registerReferral","inputs":[{"name":"referrer","type":"address","internalType":"address"}],"outputs":[],"stateMutability":"nonpayable"},{"type":"function","name":"renounceOwnership","inputs":[],"outputs":[],"stateMutability":"nonpayable"},{"type":"function","name":"token","inputs":[],"outputs":[{"name":"","type":"address","internalType":"contract IERC20"}],"stateMutability":"view"},{"type":"function","name":"transferOwnership","inputs":[{"name":"newOwner","type":"address","internalType":"address"}],"outputs":[],"stateMutability":"nonpayable"},{"type":"function","name":"userReputation","inputs":[{"name":"","type":"address","internalType":"address"}],"outputs":[{"name":"","type":"uint256","internalType":"uint256"}],"stateMutability":"view"},{"type":"event","name":"OwnershipTransferred","inputs":[{"name":"previousOwner","type":"address","indexed":true,"internalType":"address"},{"name":"newOwner","type":"address","indexed":true,"internalType":"address"}],"anonymous":false},{"type":"event","name":"ReferralRegistered","inputs":[{"name":"referrer","type":"address","indexed":true,"internalType":"address"},{"name":"referee","type":"address","indexed":true,"internalType":"address"}],"anonymous":false},{"type":"event","name":"ReputationUpdated","inputs":[{"name":"user","type":"address","indexed":true,"internalType":"address"},{"name":"newScore","type":"uint256","indexed":false,"internalType":"uint256"}],"anonymous":false},{"type":"event","name":"RewardsDistributed","inputs":[{"name":"user","type":"address","indexed":true,"internalType":"address"},{"name":"amount","type":"uint256","indexed":false,"internalType":"uint256"}],"anonymous":false},{"type":"error","name":"OwnableInvalidOwner","inputs":[{"name":"owner","type":"address","internalType":"address"}]},{"type":"error","name":"OwnableUnauthorizedAccount","inputs":[{"name":"account","type":"address","internalType":"address"}]},{"type":"error","name":"ReentrancyGuardReentrantCall","inputs":[]},{"type":"error","name":"SafeERC20FailedOperation","inputs":[{"name":"token","type":"address","internalType":"address"}]}],"bytecode":{"object":"0x60a060405234801561000f575f5ffd5b5060405161134c38038061134c83398181016040528101906100319190610212565b335f73ffffffffffffffffffffffffffffffffffffffff168173ffffffffffffffffffffffffffffffffffffffff16036100a2575f6040517f1e4fbdf7000000000000000000000000000000000000000000000000000000008152600401610099919061024c565b60405180910390fd5b6100b1816100f360201b60201c565b50600180819055508073ffffffffffffffffffffffffffffffffffffffff1660808173ffffffffffffffffffffffffffffffffffffffff168152505050610265565b5f5f5f9054906101000a900473ffffffffffffffffffffffffffffffffffffffff169050815f5f6101000a81548173ffffffffffffffffffffffffffffffffffffffff021916908373ffffffffffffffffffffffffffffffffffffffff1602179055508173ffffffffffffffffffffffffffffffffffffffff168173ffffffffffffffffffffffffffffffffffffffff167f8be0079c531659141344cd1fd0a4f28419497f9722a3daafe3b4186f6b6457e060405160405180910390a35050565b5f5ffd5b5f73ffffffffffffffffffffffffffffffffffffffff82169050919050565b5f6101e1826101b8565b9050919050565b6101f1816101d7565b81146101fb575f5ffd5b50565b5f8151905061020c816101e8565b92915050565b5f60208284031215610227576102266101b4565b5b5f610234848285016101fe565b91505092915050565b610246816101d7565b82525050565b5f60208201905061025f5f83018461023d565b92915050565b6080516110c86102845f395f818161076a01526108b301526110c85ff3fe608060405234801561000f575f5ffd5b50600436106100b2575f3560e01c80639c89a0e21161006f5780639c89a0e21461018a578063a8031a1d146101ba578063db74559b146101d6578063e503bb0514610206578063f2fde38b14610236578063fc0c546a14610252576100b2565b8063209ab711146100b657806324acbd69146100d25780634a3b68cc1461010257806353aaa63b14610132578063715018a6146101625780638da5cb5b1461016c575b5f5ffd5b6100d060048036038101906100cb9190610c7e565b610270565b005b6100ec60048036038101906100e79190610c7e565b610556565b6040516100f99190610cc1565b60405180910390f35b61011c60048036038101906101179190610c7e565b61059c565b6040516101299190610ce9565b60405180910390f35b61014c60048036038101906101479190610c7e565b6105cc565b6040516101599190610cc1565b60405180910390f35b61016a6105e1565b005b6101746105f4565b6040516101819190610ce9565b60405180910390f35b6101a4600480360381019061019f9190610c7e565b61061b565b6040516101b19190610cc1565b60405180910390f35b6101d460048036038101906101cf9190610d2c565b610661565b005b6101f060048036038101906101eb9190610c7e565b610803565b6040516101fd9190610cc1565b60405180910390f35b610220600480360381019061021b9190610c7e565b610818565b60405161022d9190610cc1565b60405180910390f35b610250600480360381019061024b9190610c7e565b61082d565b005b61025a6108b1565b6040516102679190610dc5565b60405180910390f35b5f73ffffffffffffffffffffffffffffffffffffffff168173ffffffffffffffffffffffffffffffffffffffff16036102de576040517f08c379a00000000000000000000000000000000000000000000000000000000081526004016102d590610e38565b60405180910390fd5b3373ffffffffffffffffffffffffffffffffffffffff168173ffffffffffffffffffffffffffffffffffffffff160361034c576040517f08c379a000000000000000000000000000000000000000000000000000000000815260040161034390610ea0565b60405180910390fd5b5f73ffffffffffffffffffffffffffffffffffffffff1660025f3373ffffffffffffffffffffffffffffffffffffffff1673ffffffffffffffffffffffffffffffffffffffff1681526020019081526020015f205f9054906101000a900473ffffffffffffffffffffffffffffffffffffffff1673ffffffffffffffffffffffffffffffffffffffff1614610416576040517f08c379a000000000000000000000000000000000000000000000000000000000815260040161040d90610f08565b60405180910390fd5b8060025f3373ffffffffffffffffffffffffffffffffffffffff1673ffffffffffffffffffffffffffffffffffffffff1681526020019081526020015f205f6101000a81548173ffffffffffffffffffffffffffffffffffffffff021916908373ffffffffffffffffffffffffffffffffffffffff16021790555060045f8273ffffffffffffffffffffffffffffffffffffffff1673ffffffffffffffffffffffffffffffffffffffff1681526020019081526020015f205f8154809291906104de90610f53565b91905055506104ee81600a6108d5565b6104f93360056108d5565b3373ffffffffffffffffffffffffffffffffffffffff168173ffffffffffffffffffffffffffffffffffffffff167f5f1ca2fcc108b751843a763e60d2201f593516109d7dbb1b700468f2d4190bb760405160405180910390a350565b5f60045f8373ffffffffffffffffffffffffffffffffffffffff1673ffffffffffffffffffffffffffffffffffffffff1681526020019081526020015f20549050919050565b6002602052805f5260405f205f915054906101000a900473ffffffffffffffffffffffffffffffffffffffff1681565b6003602052805f5260405f205f915090505481565b6105e96109b7565b6105f25f610a3e565b565b5f5f5f9054906101000a900473ffffffffffffffffffffffffffffffffffffffff16905090565b5f60055f8373ffffffffffffffffffffffffffffffffffffffff1673ffffffffffffffffffffffffffffffffffffffff1681526020019081526020015f20549050919050565b5f60025f8473ffffffffffffffffffffffffffffffffffffffff1673ffffffffffffffffffffffffffffffffffffffff1681526020019081526020015f205f9054906101000a900473ffffffffffffffffffffffffffffffffffffffff1690505f73ffffffffffffffffffffffffffffffffffffffff168173ffffffffffffffffffffffffffffffffffffffff16146107fe575f60646005846107049190610f9a565b61070e9190611008565b90508060035f8473ffffffffffffffffffffffffffffffffffffffff1673ffffffffffffffffffffffffffffffffffffffff1681526020019081526020015f205f82825461075c9190611038565b925050819055506107ae82827f000000000000000000000000000000000000000000000000000000000000000073ffffffffffffffffffffffffffffffffffffffff16610aff9092919063ffffffff16565b8173ffffffffffffffffffffffffffffffffffffffff167fdf29796aad820e4bb192f3a8d631b76519bcd2cbe77cc85af20e9df53cece086826040516107f49190610cc1565b60405180910390a2505b505050565b6004602052805f5260405f205f915090505481565b6005602052805f5260405f205f915090505481565b6108356109b7565b5f73ffffffffffffffffffffffffffffffffffffffff168173ffffffffffffffffffffffffffffffffffffffff16036108a5575f6040517f1e4fbdf700000000000000000000000000000000000000000000000000000000815260040161089c9190610ce9565b60405180910390fd5b6108ae81610a3e565b50565b7f000000000000000000000000000000000000000000000000000000000000000081565b8060055f8473ffffffffffffffffffffffffffffffffffffffff1673ffffffffffffffffffffffffffffffffffffffff1681526020019081526020015f205f8282546109219190611038565b925050819055508173ffffffffffffffffffffffffffffffffffffffff167ffc577563f1b9a0461e24abef1e1fcc0d33d3d881f20b5df6dda59de4aae2c82160055f8573ffffffffffffffffffffffffffffffffffffffff1673ffffffffffffffffffffffffffffffffffffffff1681526020019081526020015f20546040516109ab9190610cc1565b60405180910390a25050565b6109bf610b7e565b73ffffffffffffffffffffffffffffffffffffffff166109dd6105f4565b73ffffffffffffffffffffffffffffffffffffffff1614610a3c57610a00610b7e565b6040517f118cdaa7000000000000000000000000000000000000000000000000000000008152600401610a339190610ce9565b60405180910390fd5b565b5f5f5f9054906101000a900473ffffffffffffffffffffffffffffffffffffffff169050815f5f6101000a81548173ffffffffffffffffffffffffffffffffffffffff021916908373ffffffffffffffffffffffffffffffffffffffff1602179055508173ffffffffffffffffffffffffffffffffffffffff168173ffffffffffffffffffffffffffffffffffffffff167f8be0079c531659141344cd1fd0a4f28419497f9722a3daafe3b4186f6b6457e060405160405180910390a35050565b610b79838473ffffffffffffffffffffffffffffffffffffffff1663a9059cbb8585604051602401610b3292919061106b565b604051602081830303815290604052915060e01b6020820180517bffffffffffffffffffffffffffffffffffffffffffffffffffffffff8381831617835250505050610b85565b505050565b5f33905090565b5f5f60205f8451602086015f885af180610ba4576040513d5f823e3d81fd5b3d92505f519150505f8214610bbd576001811415610bd8565b5f8473ffffffffffffffffffffffffffffffffffffffff163b145b15610c1a57836040517f5274afe7000000000000000000000000000000000000000000000000000000008152600401610c119190610ce9565b60405180910390fd5b50505050565b5f5ffd5b5f73ffffffffffffffffffffffffffffffffffffffff82169050919050565b5f610c4d82610c24565b9050919050565b610c5d81610c43565b8114610c67575f5ffd5b50565b5f81359050610c7881610c54565b92915050565b5f60208284031215610c9357610c92610c20565b5b5f610ca084828501610c6a565b91505092915050565b5f819050919050565b610cbb81610ca9565b82525050565b5f602082019050610cd45f830184610cb2565b92915050565b610ce381610c43565b82525050565b5f602082019050610cfc5f830184610cda565b92915050565b610d0b81610ca9565b8114610d15575f5ffd5b50565b5f81359050610d2681610d02565b92915050565b5f5f60408385031215610d4257610d41610c20565b5b5f610d4f85828601610c6a565b9250506020610d6085828601610d18565b9150509250929050565b5f819050919050565b5f610d8d610d88610d8384610c24565b610d6a565b610c24565b9050919050565b5f610d9e82610d73565b9050919050565b5f610daf82610d94565b9050919050565b610dbf81610da5565b82525050565b5f602082019050610dd85f830184610db6565b92915050565b5f82825260208201905092915050565b7f496e76616c6964207265666572726572000000000000000000000000000000005f82015250565b5f610e22601083610dde565b9150610e2d82610dee565b602082019050919050565b5f6020820190508181035f830152610e4f81610e16565b9050919050565b7f43616e6e6f742073656c662072656665720000000000000000000000000000005f82015250565b5f610e8a601183610dde565b9150610e9582610e56565b602082019050919050565b5f6020820190508181035f830152610eb781610e7e565b9050919050565b7f416c7265616479207265666572726564000000000000000000000000000000005f82015250565b5f610ef2601083610dde565b9150610efd82610ebe565b602082019050919050565b5f6020820190508181035f830152610f1f81610ee6565b9050919050565b7f4e487b71000000000000000000000000000000000000000000000000000000005f52601160045260245ffd5b5f610f5d82610ca9565b91507fffffffffffffffffffffffffffffffffffffffffffffffffffffffffffffffff8203610f8f57610f8e610f26565b5b600182019050919050565b5f610fa482610ca9565b9150610faf83610ca9565b9250828202610fbd81610ca9565b91508282048414831517610fd457610fd3610f26565b5b5092915050565b7f4e487b71000000000000000000000000000000000000000000000000000000005f52601260045260245ffd5b5f61101282610ca9565b915061101d83610ca9565b92508261102d5761102c610fdb565b5b828204905092915050565b5f61104282610ca9565b915061104d83610ca9565b925082820190508082111561106557611064610f26565b5b92915050565b5f60408201905061107e5f830185610cda565b61108b6020830184610cb2565b939250505056fea26469706673582212200d0e112edc4924609f9d415521e243c558cbd3525d35fed4ff0aa9a17136b0e064736f6c634300081c0033","linkReferences":{}},"methodIdentifiers":{"distributeRewards(address,uint256)":"a8031a1d","getReferralCount(address)":"24acbd69","getReputation(address)":"9c89a0e2","owner()":"8da5cb5b","referralCount(address)":"db74559b","referralRewards(address)":"53aaa63b","referrers(address)":"4a3b68cc","registerReferral(address)":"209ab711","renounceOwnership()":"715018a6","token()":"fc0c546a","transferOwnership(address)":"f2fde38b","userReputation(address)":"e503bb05"},"id":30}