{"abi":[{"type":"constructor","inputs":[{"name":"_token","type":"address","internalType":"address"}],"stateMutability":"nonpayable"},{"type":"function","name":"distributeRewards","inputs":[{"name":"user","type":"address","internalType":"address"},{"name":"amount","type":"uint256","internalType":"uint256"}],"outputs":[],"stateMutability":"nonpayable"},{"type":"function","name":"getReferralCount","inputs":[{"name":"user","type":"address","internalType":"address"}],"outputs":[{"name":"","type":"uint256","internalType":"uint256"}],"stateMutability":"view"},{"type":"function","name":"getReputation","inputs":[{"name":"user","type":"address","internalType":"address"}],"outputs":[{"name":"","type":"uint256","internalType":"uint256"}],"stateMutability":"view"},{"type":"function","name":"owner","inputs":[],"outputs":[{"name":"","type":"address","internalType":"address"}],"stateMutability":"view"},{"type":"function","name":"referralCount","inputs":[{"name":"","type":"address","internalType":"address"}],"outputs":[{"name":"","type":"uint256","internalType":"uint256"}],"stateMutability":"view"},{"type":"function","name":"referralRewards","inputs":[{"name":"","type":"address","internalType":"address"}],"outputs":[{"name":"","type":"uint256","internalType":"uint256"}],"stateMutability":"view"},{"type":"function","name":"referrers","inputs":[{"name":"","type":"address","internalType":"address"}],"outputs":[{"name":"","type":"address","internalType":"address"}],"stateMutability":"view"},{"type":"function","name":"registerReferral","inputs":[{"name":"referrer","type":"address","internalType":"address"}],"outputs":[],"stateMutability":"nonpayable"},{"type":"function","name":"renounceOwnership","inputs":[],"outputs":[],"stateMutability":"nonpayable"},{"type":"function","name":"token","inputs":[],"outputs":[{"name":"","type":"address","internalType":"contract IERC20"}],"stateMutability":"view"},{"type":"function","name":"transferOwnership","inputs":[{"name":"newOwner","type":"address","internalType":"address"}],"outputs":[],"stateMutability":"nonpayable"},{"type":"function","name":"userReputation","inputs":[{"name":"","type":"address","internalType":"address"}],"outputs":[{"name":"","type":"uint256","internalType":"uint256"}],"stateMutability":"view"},{"type":"event","name":"OwnershipTransferred","inputs":[{"name":"previousOwner","type":"address","indexed":true,"internalType":"address"},{"name":"newOwner","type":"address","indexed":true,"internalType":"address"}],"anonymous":false},{"type":"event","name":"ReferralRegistered","inputs":[{"name":"referrer","type":"address","indexed":true,"internalType":"address"},{"name":"referee","type":"address","indexed":true,"internalType":"address"}],"anonymous":false},{"type":"event","name":"ReputationUpdated","inputs":[{"name":"user","type":"address","indexed":true,"internalType":"address"},{"name":"newScore","type":"uint256","indexed":false,"internalType":"uint256"}],"anonymous":false},{"type":"event","name":"RewardsDistributed","inputs":[{"name":"user","type":"address","indexed":true,"internalType":"address"},{"name":"amount","type":"uint256","indexed":false,"internalType":"uint256"}],"anonymous":false},{"type":"error","name":"OwnableInvalidOwner","inputs":[{"name":"owner","type":"address","internalType":"address"}]},{"type":"error","name":"OwnableUnauthorizedAccount","inputs":[{"name":"account","type":"address","internalType":"address"}]},{"type":"error","name":"ReentrancyGuardReentrantCall","inputs":[]},{"type":"error","name":"SafeERC20FailedOperation","inputs":[{"name":"token","type":"address","internalType":"address"}]}],"bytecode":{"object":"0x60a060405234801561000f575f5ffd5b506040516108cf3803806108cf83398101604081905261002e916100c1565b338061005357604051631e4fbdf760e01b81525f600482015260240160405180910390fd5b61005c81610072565b50600180556001600160a01b03166080526100ee565b5f80546001600160a01b038381166001600160a01b0319831681178455604051919092169283917f8be0079c531659141344cd1fd0a4f28419497f9722a3daafe3b4186f6b6457e09190a35050565b5f602082840312156100d1575f5ffd5b81516001600160a01b03811681146100e7575f5ffd5b9392505050565b6080516107c261010d5f395f818161020d015261044801526107c25ff3fe608060405234801561000f575f5ffd5b50600436106100b1575f3560e01c80639c89a0e21161006e5780639c89a0e21461017c578063a8031a1d146101a4578063db74559b146101b7578063e503bb05146101d6578063f2fde38b146101f5578063fc0c546a14610208575f5ffd5b8063209ab711146100b557806324acbd69146100ca5780634a3b68cc1461010557806353aaa63b14610145578063715018a6146101645780638da5cb5b1461016c575b5f5ffd5b6100c86100c33660046106c9565b61022f565b005b6100f26100d83660046106c9565b6001600160a01b03165f9081526004602052604090205490565b6040519081526020015b60405180910390f35b61012d6101133660046106c9565b60026020525f90815260409020546001600160a01b031681565b6040516001600160a01b0390911681526020016100fc565b6100f26101533660046106c9565b60036020525f908152604090205481565b6100c86103b6565b5f546001600160a01b031661012d565b6100f261018a3660046106c9565b6001600160a01b03165f9081526005602052604090205490565b6100c86101b23660046106e9565b6103c9565b6100f26101c53660046106c9565b60046020525f908152604090205481565b6100f26101e43660046106c9565b60056020525f908152604090205481565b6100c86102033660046106c9565b6104b9565b61012d7f000000000000000000000000000000000000000000000000000000000000000081565b6001600160a01b03811661027d5760405162461bcd60e51b815260206004820152601060248201526f24b73b30b634b2103932b332b93932b960811b60448201526064015b60405180910390fd5b336001600160a01b038216036102c95760405162461bcd60e51b815260206004820152601160248201527021b0b73737ba1039b2b633103932b332b960791b6044820152606401610274565b335f908152600260205260409020546001600160a01b0316156103215760405162461bcd60e51b815260206004820152601060248201526f105b1c9958591e481c9959995c9c995960821b6044820152606401610274565b335f90815260026020908152604080832080546001600160a01b0319166001600160a01b03861690811790915583526004909152812080549161036383610725565b919050555061037381600a6104f6565b61037e3360056104f6565b60405133906001600160a01b038316907f5f1ca2fcc108b751843a763e60d2201f593516109d7dbb1b700468f2d4190bb7905f90a350565b6103be610572565b6103c75f61059e565b565b6103d1610572565b6001600160a01b038083165f908152600260205260409020541680156104b4575f60646103ff84600561073d565b610409919061075a565b6001600160a01b0383165f90815260036020526040812080549293508392909190610435908490610779565b9091555061046f90506001600160a01b037f00000000000000000000000000000000000000000000000000000000000000001683836105ed565b816001600160a01b03167fdf29796aad820e4bb192f3a8d631b76519bcd2cbe77cc85af20e9df53cece086826040516104aa91815260200190565b60405180910390a2505b505050565b6104c1610572565b6001600160a01b0381166104ea57604051631e4fbdf760e01b81525f6004820152602401610274565b6104f38161059e565b50565b6001600160a01b0382165f908152600560205260408120805483929061051d908490610779565b90915550506001600160a01b0382165f818152600560209081526040918290205491519182527ffc577563f1b9a0461e24abef1e1fcc0d33d3d881f20b5df6dda59de4aae2c821910160405180910390a25050565b5f546001600160a01b031633146103c75760405163118cdaa760e01b8152336004820152602401610274565b5f80546001600160a01b038381166001600160a01b0319831681178455604051919092169283917f8be0079c531659141344cd1fd0a4f28419497f9722a3daafe3b4186f6b6457e09190a35050565b604080516001600160a01b03841660248201526044808201849052825180830390910181526064909101909152602080820180516001600160e01b031663a9059cbb60e01b17815282516104b493879390925f9283929183919082885af18061065b576040513d5f823e3d81fd5b50505f513d9150811561067257806001141561067f565b6001600160a01b0384163b155b156106a857604051635274afe760e01b81526001600160a01b0385166004820152602401610274565b50505050565b80356001600160a01b03811681146106c4575f5ffd5b919050565b5f602082840312156106d9575f5ffd5b6106e2826106ae565b9392505050565b5f5f604083850312156106fa575f5ffd5b610703836106ae565b946020939093013593505050565b634e487b7160e01b5f52601160045260245ffd5b5f6001820161073657610736610711565b5060010190565b808202811582820484141761075457610754610711565b92915050565b5f8261077457634e487b7160e01b5f52601260045260245ffd5b500490565b808201808211156107545761075461071156fea264697066735822122063181594463e8f6052ae6b175a9bc589a50cb2f0ab7a73c944c8d3309228542a64736f6c634300081c0033","linkReferences":{}},"methodIdentifiers":{"distributeRewards(address,uint256)":"a8031a1d","getReferralCount(address)":"24acbd69","getReputation(address)":"9c89a0e2","owner()":"8da5cb5b","referralCount(address)":"db74559b","referralRewards(address)":"53aaa63b","referrers(address)":"4a3b68cc","registerReferral(address)":"209ab711","renounceOwnership()":"715018a6","token()":"fc0c546a","transferOwnership(address)":"f2fde38b","userReputation(address)":"e503bb05"},"id":33}