{"abi":[{"type":"constructor","inputs":[{"name":"_bettingPool","type":"address","internalType":"address"},{"name":"_token","type":"address","internalType":"address"}],"stateMutability":"nonpayable"},{"type":"function","name":"bettingPool","inputs":[],"outputs":[{"name":"","type":"address","internalType":"contract IBettingPool"}],"stateMutability":"view"},{"type":"function","name":"claimTournamentRewards","inputs":[{"name":"tournamentId","type":"uint256","internalType":"uint256"}],"outputs":[],"stateMutability":"nonpayable"},{"type":"function","name":"createTournament","inputs":[{"name":"name","type":"string","internalType":"string"},{"name":"startTime","type":"uint256","internalType":"uint256"},{"name":"endTime","type":"uint256","internalType":"uint256"},{"name":"entryFee","type":"uint256","internalType":"uint256"},{"name":"matchIds","type":"uint256[]","internalType":"uint256[]"}],"outputs":[],"stateMutability":"nonpayable"},{"type":"function","name":"getTotalScore","inputs":[{"name":"tournamentId","type":"uint256","internalType":"uint256"}],"outputs":[{"name":"","type":"uint256","internalType":"uint256"}],"stateMutability":"view"},{"type":"function","name":"joinTournament","inputs":[{"name":"tournamentId","type":"uint256","internalType":"uint256"}],"outputs":[],"stateMutability":"nonpayable"},{"type":"function","name":"nextTournamentId","inputs":[],"outputs":[{"name":"","type":"uint256","internalType":"uint256"}],"stateMutability":"view"},{"type":"function","name":"owner","inputs":[],"outputs":[{"name":"","type":"address","internalType":"address"}],"stateMutability":"view"},{"type":"function","name":"participants","inputs":[{"name":"","type":"uint256","internalType":"uint256"},{"name":"","type":"address","internalType":"address"}],"outputs":[{"name":"","type":"bool","internalType":"bool"}],"stateMutability":"view"},{"type":"function","name":"predictions","inputs":[{"name":"","type":"uint256","internalType":"uint256"},{"name":"","type":"address","internalType":"address"},{"name":"","type":"uint256","internalType":"uint256"}],"outputs":[{"name":"","type":"uint8","internalType":"uint8"}],"stateMutability":"view"},{"type":"function","name":"renounceOwnership","inputs":[],"outputs":[],"stateMutability":"nonpayable"},{"type":"function","name":"scores","inputs":[{"name":"","type":"uint256","internalType":"uint256"},{"name":"","type":"address","internalType":"address"}],"outputs":[{"name":"","type":"uint256","internalType":"uint256"}],"stateMutability":"view"},{"type":"function","name":"submitPrediction","inputs":[{"name":"tournamentId","type":"uint256","internalType":"uint256"},{"name":"matchId","type":"uint256","internalType":"uint256"},{"name":"prediction","type":"uint8","internalType":"uint8"}],"outputs":[],"stateMutability":"nonpayable"},{"type":"function","name":"token","inputs":[],"outputs":[{"name":"","type":"address","internalType":"contract IERC20"}],"stateMutability":"view"},{"type":"function","name":"tournaments","inputs":[{"name":"","type":"uint256","internalType":"uint256"}],"outputs":[{"name":"id","type":"uint256","internalType":"uint256"},{"name":"name","type":"string","internalType":"string"},{"name":"startTime","type":"uint256","internalType":"uint256"},{"name":"endTime","type":"uint256","internalType":"uint256"},{"name":"entryFee","type":"uint256","internalType":"uint256"},{"name":"prizePool","type":"uint256","internalType":"uint256"},{"name":"isActive","type":"bool","internalType":"bool"}],"stateMutability":"view"},{"type":"function","name":"transferOwnership","inputs":[{"name":"newOwner","type":"address","internalType":"address"}],"outputs":[],"stateMutability":"nonpayable"},{"type":"function","name":"updateScores","inputs":[{"name":"tournamentId","type":"uint256","internalType":"uint256"},{"name":"matchId","type":"uint256","internalType":"uint256"},{"name":"players","type":"address[]","internalType":"address[]"},{"name":"matchScores","type":"uint256[]","internalType":"uint256[]"}],"outputs":[],"stateMutability":"nonpayable"},{"type":"event","name":"OwnershipTransferred","inputs":[{"name":"previousOwner","type":"address","indexed":true,"internalType":"address"},{"name":"newOwner","type":"address","indexed":true,"internalType":"address"}],"anonymous":false},{"type":"event","name":"PlayerJoined","inputs":[{"name":"tournamentId","type":"uint256","indexed":true,"internalType":"uint256"},{"name":"player","type":"address","indexed":true,"internalType":"address"}],"anonymous":false},{"type":"event","name":"PredictionSubmitted","inputs":[{"name":"tournamentId","type":"uint256","indexed":true,"internalType":"uint256"},{"name":"matchId","type":"uint256","indexed":true,"internalType":"uint256"},{"name":"player","type":"address","indexed":true,"internalType":"address"}],"anonymous":false},{"type":"event","name":"TournamentCreated","inputs":[{"name":"id","type":"uint256","indexed":true,"internalType":"uint256"},{"name":"name","type":"string","indexed":false,"internalType":"string"},{"name":"startTime","type":"uint256","indexed":false,"internalType":"uint256"}],"anonymous":false},{"type":"event","name":"TournamentFinalized","inputs":[{"name":"id","type":"uint256","indexed":true,"internalType":"uint256"},{"name":"winners","type":"address[]","indexed":false,"internalType":"address[]"}],"anonymous":false},{"type":"error","name":"OwnableInvalidOwner","inputs":[{"name":"owner","type":"address","internalType":"address"}]},{"type":"error","name":"OwnableUnauthorizedAccount","inputs":[{"name":"account","type":"address","internalType":"address"}]},{"type":"error","name":"ReentrancyGuardReentrantCall","inputs":[]},{"type":"error","name":"SafeERC20FailedOperation","inputs":[{"name":"token","type":"address","internalType":"address"}]}],"bytecode":{"object":"0x60c060405234801561000f575f5ffd5b5060405161153638038061153683398101604081905261002e916100e2565b338061005357604051631e4fbdf760e01b81525f600482015260240160405180910390fd5b61005c81610078565b50600180556001600160a01b039182166080521660a052610113565b5f80546001600160a01b038381166001600160a01b0319831681178455604051919092169283917f8be0079c531659141344cd1fd0a4f28419497f9722a3daafe3b4186f6b6457e09190a35050565b80516001600160a01b03811681146100dd575f5ffd5b919050565b5f5f604083850312156100f3575f5ffd5b6100fc836100c7565b915061010a602084016100c7565b90509250929050565b60805160a0516113f46101425f395f81816102cc015281816109d30152610bf901525f61024601526113f45ff3fe608060405234801561000f575f5ffd5b50600436106100fb575f3560e01c80638da5cb5b11610093578063d115cac611610063578063d115cac61461028e578063d333cdc4146102a1578063f2fde38b146102b4578063fc0c546a146102c7575f5ffd5b80638da5cb5b1461021d578063a55e775614610241578063a873204414610268578063bb59e3f01461027b575f5ffd5b80637503e1b7116100ce5780637503e1b71461017f57806376ab4769146101a55780637a07b674146101ea578063852efc3d14610214575f5ffd5b806302e060c6146100ff5780630f6447ef1461014157806312812d8714610156578063715018a614610177575b5f5ffd5b61012c61010d366004610e92565b600360209081525f928352604080842090915290825290205460ff1681565b60405190151581526020015b60405180910390f35b61015461014f366004610f04565b6102ee565b005b610169610164366004610f86565b6103db565b604051908152602001610138565b61015461042e565b61019261018d366004610f86565b610441565b6040516101389796959493929190610fcb565b6101d86101b336600461100f565b600460209081525f938452604080852082529284528284209052825290205460ff1681565b60405160ff9091168152602001610138565b6101696101f8366004610e92565b600560209081525f928352604080842090915290825290205481565b61016960065481565b5f546001600160a01b03165b6040516001600160a01b039091168152602001610138565b6102297f000000000000000000000000000000000000000000000000000000000000000081565b610154610276366004611056565b610505565b610154610289366004611133565b610725565b61015461029c366004610f86565b6108db565b6101546102af366004610f86565b610a74565b6101546102c236600461116e565b610c2c565b6102297f000000000000000000000000000000000000000000000000000000000000000081565b6102f6610c66565b82811461033c5760405162461bcd60e51b815260206004820152600f60248201526e098cadccee8d040dad2e6dac2e8c6d608b1b60448201526064015b60405180910390fd5b5f5b838110156103d2578282828181106103585761035861118e565b9050602002013560055f8981526020019081526020015f205f8787858181106103835761038361118e565b9050602002016020810190610398919061116e565b6001600160a01b03166001600160a01b031681526020019081526020015f205f8282546103c591906111b6565b909155505060010161033e565b50505050505050565b5f8181526002602052604081208190815b6007820154811015610425575f85815260056020908152604080832033845290915290205461041b90846111b6565b92506001016103ec565b50909392505050565b610436610c66565b61043f5f610c92565b565b60026020525f908152604090208054600182018054919291610462906111cf565b80601f016020809104026020016040519081016040528092919081815260200182805461048e906111cf565b80156104d95780601f106104b0576101008083540402835291602001916104d9565b820191905f5260205f20905b8154815290600101906020018083116104bc57829003601f168201915b505050600284015460038501546004860154600587015460069097015495969295919450925060ff1687565b61050d610c66565b4285116105515760405162461bcd60e51b8152602060048201526012602482015271496e76616c69642073746172742074696d6560701b6044820152606401610333565b8484116105935760405162461bcd60e51b815260206004820152601060248201526f496e76616c696420656e642074696d6560801b6044820152606401610333565b806105d65760405162461bcd60e51b8152602060048201526013602482015272139bc81b585d18da195cc81c1c9bdd9a591959606a1b6044820152606401610333565b600680545f91826105e683611207565b9190505590506040518061010001604052808281526020018881526020018781526020018681526020018581526020015f81526020016001151581526020018484808060200260200160405190810160405280939291908181526020018383602002808284375f92018290525093909452505083815260026020908152604090912083518155908301519091506001820190610682908261126a565b5060408201516002820155606082015160038201556080820151600482015560a0820151600582015560c082015160068201805460ff191691151591909117905560e082015180516106de916007840191602090910190610e1a565b50905050807f983e6525f727b8f3ae124cb8c190624755d938c5630ba271a8ab33fb5a81a8ce8888604051610714929190611325565b60405180910390a250505050505050565b5f838152600260205260409020600681015460ff166107565760405162461bcd60e51b815260040161033390611346565b5f84815260036020908152604080832033845290915290205460ff166107b05760405162461bcd60e51b815260206004820152600f60248201526e139bdd081c185c9d1a58da5c185b9d608a1b6044820152606401610333565b806002015442106107f85760405162461bcd60e51b8152602060048201526012602482015271151bdd5c9b985b595b9d081cdd185c9d195960721b6044820152606401610333565b5f805b600783015481101561083c578483600701828154811061081d5761081d61118e565b905f5260205f20015403610834576001915061083c565b6001016107fb565b508061087a5760405162461bcd60e51b815260206004820152600d60248201526c092dcecc2d8d2c840dac2e8c6d609b1b6044820152606401610333565b5f85815260046020908152604080832033808552908352818420888552909252808320805460ff191660ff8816179055519091869188917fba5b8d5385faa94061cd3a7208c929f9e268acc3259259de250ece8dd41b349c91a45050505050565b6108e3610ce1565b5f818152600260205260409020600681015460ff166109145760405162461bcd60e51b815260040161033390611346565b8060020154421061095c5760405162461bcd60e51b8152602060048201526012602482015271151bdd5c9b985b595b9d081cdd185c9d195960721b6044820152606401610333565b5f82815260036020908152604080832033845290915290205460ff16156109b65760405162461bcd60e51b815260206004820152600e60248201526d105b1c9958591e481a9bda5b995960921b6044820152606401610333565b600481015415610a1a5760048101546109fd906001600160a01b037f0000000000000000000000000000000000000000000000000000000000000000169033903090610d0b565b8060040154816005015f828254610a1491906111b6565b90915550505b5f828152600360209081526040808320338085529252808320805460ff1916600117905551909184917f87969bc7faf902221a147b95ceba76e011c5efb0339a0a8ee7a2bb82d9cfbbd69190a350610a7160018055565b50565b610a7c610ce1565b5f818152600260205260409020600681015460ff16610aad5760405162461bcd60e51b815260040161033390611346565b80600301544211610af75760405162461bcd60e51b8152602060048201526014602482015273151bdd5c9b985b595b9d081b9bdd08195b99195960621b6044820152606401610333565b5f82815260036020908152604080832033845290915290205460ff16610b515760405162461bcd60e51b815260206004820152600f60248201526e139bdd081c185c9d1a58da5c185b9d608a1b6044820152606401610333565b5f82815260056020908152604080832033845290915290205480610bad5760405162461bcd60e51b81526020600482015260136024820152724e6f207265776172647320746f20636c61696d60681b6044820152606401610333565b5f610bb7846103db565b828460050154610bc79190611375565b610bd1919061138c565b905080836005015f828254610be691906113ab565b90915550610c2090506001600160a01b037f0000000000000000000000000000000000000000000000000000000000000000163383610d78565b505050610a7160018055565b610c34610c66565b6001600160a01b038116610c5d57604051631e4fbdf760e01b81525f6004820152602401610333565b610a7181610c92565b5f546001600160a01b0316331461043f5760405163118cdaa760e01b8152336004820152602401610333565b5f80546001600160a01b038381166001600160a01b0319831681178455604051919092169283917f8be0079c531659141344cd1fd0a4f28419497f9722a3daafe3b4186f6b6457e09190a35050565b600260015403610d0457604051633ee5aeb560e01b815260040160405180910390fd5b6002600155565b6040516001600160a01b038481166024830152838116604483015260648201839052610d729186918216906323b872dd906084015b604051602081830303815290604052915060e01b6020820180516001600160e01b038381831617835250505050610dae565b50505050565b6040516001600160a01b03838116602483015260448201839052610da991859182169063a9059cbb90606401610d40565b505050565b5f5f60205f8451602086015f885af180610dcd576040513d5f823e3d81fd5b50505f513d91508115610de4578060011415610df1565b6001600160a01b0384163b155b15610d7257604051635274afe760e01b81526001600160a01b0385166004820152602401610333565b828054828255905f5260205f20908101928215610e53579160200282015b82811115610e53578251825591602001919060010190610e38565b50610e5f929150610e63565b5090565b5b80821115610e5f575f8155600101610e64565b80356001600160a01b0381168114610e8d575f5ffd5b919050565b5f5f60408385031215610ea3575f5ffd5b82359150610eb360208401610e77565b90509250929050565b5f5f83601f840112610ecc575f5ffd5b50813567ffffffffffffffff811115610ee3575f5ffd5b6020830191508360208260051b8501011115610efd575f5ffd5b9250929050565b5f5f5f5f5f5f60808789031215610f19575f5ffd5b8635955060208701359450604087013567ffffffffffffffff811115610f3d575f5ffd5b610f4989828a01610ebc565b909550935050606087013567ffffffffffffffff811115610f68575f5ffd5b610f7489828a01610ebc565b979a9699509497509295939492505050565b5f60208284031215610f96575f5ffd5b5035919050565b5f81518084528060208401602086015e5f602082860101526020601f19601f83011685010191505092915050565b87815260e060208201525f610fe360e0830189610f9d565b6040830197909752506060810194909452608084019290925260a0830152151560c09091015292915050565b5f5f5f60608486031215611021575f5ffd5b8335925061103160208501610e77565b929592945050506040919091013590565b634e487b7160e01b5f52604160045260245ffd5b5f5f5f5f5f5f60a0878903121561106b575f5ffd5b863567ffffffffffffffff811115611081575f5ffd5b8701601f81018913611091575f5ffd5b803567ffffffffffffffff8111156110ab576110ab611042565b604051601f8201601f19908116603f0116810167ffffffffffffffff811182821017156110da576110da611042565b6040528181528282016020018b10156110f1575f5ffd5b816020840160208301375f602092820183015297508801359550506040870135935060608701359250608087013567ffffffffffffffff811115610f68575f5ffd5b5f5f5f60608486031215611145575f5ffd5b8335925060208401359150604084013560ff81168114611163575f5ffd5b809150509250925092565b5f6020828403121561117e575f5ffd5b61118782610e77565b9392505050565b634e487b7160e01b5f52603260045260245ffd5b634e487b7160e01b5f52601160045260245ffd5b808201808211156111c9576111c96111a2565b92915050565b600181811c908216806111e357607f821691505b60208210810361120157634e487b7160e01b5f52602260045260245ffd5b50919050565b5f60018201611218576112186111a2565b5060010190565b601f821115610da957805f5260205f20601f840160051c810160208510156112445750805b601f840160051c820191505b81811015611263575f8155600101611250565b5050505050565b815167ffffffffffffffff81111561128457611284611042565b6112988161129284546111cf565b8461121f565b6020601f8211600181146112ca575f83156112b35750848201515b5f19600385901b1c1916600184901b178455611263565b5f84815260208120601f198516915b828110156112f957878501518255602094850194600190920191016112d9565b508482101561131657868401515f19600387901b60f8161c191681555b50505050600190811b01905550565b604081525f6113376040830185610f9d565b90508260208301529392505050565b602080825260159082015274546f75726e616d656e74206e6f742061637469766560581b604082015260600190565b80820281158282048414176111c9576111c96111a2565b5f826113a657634e487b7160e01b5f52601260045260245ffd5b500490565b818103818111156111c9576111c96111a256fea26469706673582212208e11e0ff1baddcd9aaf7a2b639569b746eb4d390bca65ac2a2d16033a12a008164736f6c634300081c0033","linkReferences":{}},"methodIdentifiers":{"bettingPool()":"a55e7756","claimTournamentRewards(uint256)":"d333cdc4","createTournament(string,uint256,uint256,uint256,uint256[])":"a8732044","getTotalScore(uint256)":"12812d87","joinTournament(uint256)":"d115cac6","nextTournamentId()":"852efc3d","owner()":"8da5cb5b","participants(uint256,address)":"02e060c6","predictions(uint256,address,uint256)":"76ab4769","renounceOwnership()":"715018a6","scores(uint256,address)":"7a07b674","submitPrediction(uint256,uint256,uint8)":"bb59e3f0","token()":"fc0c546a","tournaments(uint256)":"7503e1b7","transferOwnership(address)":"f2fde38b","updateScores(uint256,uint256,address[],uint256[])":"0f6447ef"},"id":34}