{"abi":[{"type":"constructor","inputs":[{"name":"_bettingPool","type":"address","internalType":"address"},{"name":"_token","type":"address","internalType":"address"}],"stateMutability":"nonpayable"},{"type":"function","name":"DEFAULT_ADMIN_ROLE","inputs":[],"outputs":[{"name":"","type":"bytes32","internalType":"bytes32"}],"stateMutability":"view"},{"type":"function","name":"TOURNAMENT_ADMIN","inputs":[],"outputs":[{"name":"","type":"bytes32","internalType":"bytes32"}],"stateMutability":"view"},{"type":"function","name":"addTournamentAdmin","inputs":[{"name":"admin","type":"address","internalType":"address"}],"outputs":[],"stateMutability":"nonpayable"},{"type":"function","name":"bettingPool","inputs":[],"outputs":[{"name":"","type":"address","internalType":"contract IBettingPool"}],"stateMutability":"view"},{"type":"function","name":"claimTournamentRewards","inputs":[{"name":"tournamentId","type":"uint256","internalType":"uint256"}],"outputs":[],"stateMutability":"nonpayable"},{"type":"function","name":"createTournament","inputs":[{"name":"name","type":"string","internalType":"string"},{"name":"startTime","type":"uint256","internalType":"uint256"},{"name":"endTime","type":"uint256","internalType":"uint256"},{"name":"entryFee","type":"uint256","internalType":"uint256"},{"name":"matchIds","type":"uint256[]","internalType":"uint256[]"}],"outputs":[],"stateMutability":"nonpayable"},{"type":"function","name":"finalizeTournament","inputs":[{"name":"tournamentId","type":"uint256","internalType":"uint256"},{"name":"winners","type":"address[]","internalType":"address[]"}],"outputs":[],"stateMutability":"nonpayable"},{"type":"function","name":"getPlayerScore","inputs":[{"name":"tournamentId","type":"uint256","internalType":"uint256"},{"name":"player","type":"address","internalType":"address"}],"outputs":[{"name":"","type":"uint256","internalType":"uint256"}],"stateMutability":"view"},{"type":"function","name":"getRoleAdmin","inputs":[{"name":"role","type":"bytes32","internalType":"bytes32"}],"outputs":[{"name":"","type":"bytes32","internalType":"bytes32"}],"stateMutability":"view"},{"type":"function","name":"getTotalScore","inputs":[{"name":"tournamentId","type":"uint256","internalType":"uint256"}],"outputs":[{"name":"","type":"uint256","internalType":"uint256"}],"stateMutability":"view"},{"type":"function","name":"grantRole","inputs":[{"name":"role","type":"bytes32","internalType":"bytes32"},{"name":"account","type":"address","internalType":"address"}],"outputs":[],"stateMutability":"nonpayable"},{"type":"function","name":"hasRole","inputs":[{"name":"role","type":"bytes32","internalType":"bytes32"},{"name":"account","type":"address","internalType":"address"}],"outputs":[{"name":"","type":"bool","internalType":"bool"}],"stateMutability":"view"},{"type":"function","name":"joinTournament","inputs":[{"name":"tournamentId","type":"uint256","internalType":"uint256"}],"outputs":[],"stateMutability":"nonpayable"},{"type":"function","name":"nextTournamentId","inputs":[],"outputs":[{"name":"","type":"uint256","internalType":"uint256"}],"stateMutability":"view"},{"type":"function","name":"participants","inputs":[{"name":"","type":"uint256","internalType":"uint256"},{"name":"","type":"address","internalType":"address"}],"outputs":[{"name":"","type":"bool","internalType":"bool"}],"stateMutability":"view"},{"type":"function","name":"predictions","inputs":[{"name":"","type":"uint256","internalType":"uint256"},{"name":"","type":"address","internalType":"address"},{"name":"","type":"uint256","internalType":"uint256"}],"outputs":[{"name":"","type":"uint8","internalType":"uint8"}],"stateMutability":"view"},{"type":"function","name":"removeTournamentAdmin","inputs":[{"name":"admin","type":"address","internalType":"address"}],"outputs":[],"stateMutability":"nonpayable"},{"type":"function","name":"renounceRole","inputs":[{"name":"role","type":"bytes32","internalType":"bytes32"},{"name":"callerConfirmation","type":"address","internalType":"address"}],"outputs":[],"stateMutability":"nonpayable"},{"type":"function","name":"revokeRole","inputs":[{"name":"role","type":"bytes32","internalType":"bytes32"},{"name":"account","type":"address","internalType":"address"}],"outputs":[],"stateMutability":"nonpayable"},{"type":"function","name":"scores","inputs":[{"name":"","type":"uint256","internalType":"uint256"},{"name":"","type":"address","internalType":"address"}],"outputs":[{"name":"","type":"uint256","internalType":"uint256"}],"stateMutability":"view"},{"type":"function","name":"submitPrediction","inputs":[{"name":"tournamentId","type":"uint256","internalType":"uint256"},{"name":"matchId","type":"uint256","internalType":"uint256"},{"name":"prediction","type":"uint8","internalType":"uint8"}],"outputs":[],"stateMutability":"nonpayable"},{"type":"function","name":"supportsInterface","inputs":[{"name":"interfaceId","type":"bytes4","internalType":"bytes4"}],"outputs":[{"name":"","type":"bool","internalType":"bool"}],"stateMutability":"view"},{"type":"function","name":"token","inputs":[],"outputs":[{"name":"","type":"address","internalType":"contract IERC20"}],"stateMutability":"view"},{"type":"function","name":"tournaments","inputs":[{"name":"","type":"uint256","internalType":"uint256"}],"outputs":[{"name":"id","type":"uint256","internalType":"uint256"},{"name":"name","type":"string","internalType":"string"},{"name":"startTime","type":"uint256","internalType":"uint256"},{"name":"endTime","type":"uint256","internalType":"uint256"},{"name":"entryFee","type":"uint256","internalType":"uint256"},{"name":"prizePool","type":"uint256","internalType":"uint256"},{"name":"isActive","type":"bool","internalType":"bool"}],"stateMutability":"view"},{"type":"function","name":"updateScores","inputs":[{"name":"tournamentId","type":"uint256","internalType":"uint256"},{"name":"matchId","type":"uint256","internalType":"uint256"},{"name":"players","type":"address[]","internalType":"address[]"},{"name":"matchScores","type":"uint256[]","internalType":"uint256[]"}],"outputs":[],"stateMutability":"nonpayable"},{"type":"event","name":"PlayerJoined","inputs":[{"name":"tournamentId","type":"uint256","indexed":true,"internalType":"uint256"},{"name":"player","type":"address","indexed":true,"internalType":"address"}],"anonymous":false},{"type":"event","name":"PredictionSubmitted","inputs":[{"name":"tournamentId","type":"uint256","indexed":true,"internalType":"uint256"},{"name":"matchId","type":"uint256","indexed":true,"internalType":"uint256"},{"name":"player","type":"address","indexed":true,"internalType":"address"}],"anonymous":false},{"type":"event","name":"RoleAdminChanged","inputs":[{"name":"role","type":"bytes32","indexed":true,"internalType":"bytes32"},{"name":"previousAdminRole","type":"bytes32","indexed":true,"internalType":"bytes32"},{"name":"newAdminRole","type":"bytes32","indexed":true,"internalType":"bytes32"}],"anonymous":false},{"type":"event","name":"RoleGranted","inputs":[{"name":"role","type":"bytes32","indexed":true,"internalType":"bytes32"},{"name":"account","type":"address","indexed":true,"internalType":"address"},{"name":"sender","type":"address","indexed":true,"internalType":"address"}],"anonymous":false},{"type":"event","name":"RoleRevoked","inputs":[{"name":"role","type":"bytes32","indexed":true,"internalType":"bytes32"},{"name":"account","type":"address","indexed":true,"internalType":"address"},{"name":"sender","type":"address","indexed":true,"internalType":"address"}],"anonymous":false},{"type":"event","name":"TournamentCreated","inputs":[{"name":"id","type":"uint256","indexed":true,"internalType":"uint256"},{"name":"name","type":"string","indexed":false,"internalType":"string"},{"name":"startTime","type":"uint256","indexed":false,"internalType":"uint256"}],"anonymous":false},{"type":"event","name":"TournamentFinalized","inputs":[{"name":"id","type":"uint256","indexed":true,"internalType":"uint256"},{"name":"winners","type":"address[]","indexed":false,"internalType":"address[]"}],"anonymous":false},{"type":"error","name":"AccessControlBadConfirmation","inputs":[]},{"type":"error","name":"AccessControlUnauthorizedAccount","inputs":[{"name":"account","type":"address","internalType":"address"},{"name":"neededRole","type":"bytes32","internalType":"bytes32"}]},{"type":"error","name":"ReentrancyGuardReentrantCall","inputs":[]},{"type":"error","name":"SafeERC20FailedOperation","inputs":[{"name":"token","type":"address","internalType":"address"}]}],"bytecode":{"object":"0x60c060405234801561000f575f5ffd5b50604051613bbb380380613bbb83398181016040528101906100319190610384565b600180819055505f73ffffffffffffffffffffffffffffffffffffffff168273ffffffffffffffffffffffffffffffffffffffff16036100a6576040517f08c379a000000000000000000000000000000000000000000000000000000000815260040161009d9061041c565b60405180910390fd5b5f73ffffffffffffffffffffffffffffffffffffffff168173ffffffffffffffffffffffffffffffffffffffff1603610114576040517f08c379a000000000000000000000000000000000000000000000000000000000815260040161010b90610484565b60405180910390fd5b8173ffffffffffffffffffffffffffffffffffffffff1660808173ffffffffffffffffffffffffffffffffffffffff16815250508073ffffffffffffffffffffffffffffffffffffffff1660a08173ffffffffffffffffffffffffffffffffffffffff168152505061018e5f5f1b336101c760201b60201c565b506101bf7fc8082e8a1d5c49c2d93cf2fc8b9b4063e9dfbcf995af2540e967113a8ed851e7336101c760201b60201c565b5050506104a2565b5f6101d883836102bc60201b60201c565b6102b25760015f5f8581526020019081526020015f205f015f8473ffffffffffffffffffffffffffffffffffffffff1673ffffffffffffffffffffffffffffffffffffffff1681526020019081526020015f205f6101000a81548160ff02191690831515021790555061024f61031f60201b60201c565b73ffffffffffffffffffffffffffffffffffffffff168273ffffffffffffffffffffffffffffffffffffffff16847f2f8788117e7eff1d82e926ec794901d17c78024a50270940304540a733656f0d60405160405180910390a4600190506102b6565b5f90505b92915050565b5f5f5f8481526020019081526020015f205f015f8373ffffffffffffffffffffffffffffffffffffffff1673ffffffffffffffffffffffffffffffffffffffff1681526020019081526020015f205f9054906101000a900460ff16905092915050565b5f33905090565b5f5ffd5b5f73ffffffffffffffffffffffffffffffffffffffff82169050919050565b5f6103538261032a565b9050919050565b61036381610349565b811461036d575f5ffd5b50565b5f8151905061037e8161035a565b92915050565b5f5f6040838503121561039a57610399610326565b5b5f6103a785828601610370565b92505060206103b885828601610370565b9150509250929050565b5f82825260208201905092915050565b7f496e76616c69642062657474696e6720706f6f6c0000000000000000000000005f82015250565b5f6104066014836103c2565b9150610411826103d2565b602082019050919050565b5f6020820190508181035f830152610433816103fa565b9050919050565b7f496e76616c696420746f6b656e000000000000000000000000000000000000005f82015250565b5f61046e600d836103c2565b91506104798261043a565b602082019050919050565b5f6020820190508181035f83015261049b81610462565b9050919050565b60805160a0516136e36104d85f395f81816116b601528181611aee0152611b6701525f8181610e7c015261140501526136e35ff3fe608060405234801561000f575f5ffd5b5060043610610171575f3560e01c80637a07b674116100dc578063a873204411610095578063d115cac61161006f578063d115cac614610483578063d333cdc41461049f578063d547741f146104bb578063fc0c546a146104d757610171565b8063a87320441461041b578063bb59e3f014610437578063c617b26a1461045357610171565b80637a07b67414610345578063852efc3d1461037557806391d1485414610393578063a0bea173146103c3578063a217fddf146103df578063a55e7756146103fd57610171565b80632f2ff15d1161012e5780632f2ff15d1461026d57806336568abe146102895780634240d985146102a557806364762605146102c15780637503e1b7146102df57806376ab47691461031557610171565b806301ffc9a71461017557806302e060c6146101a55780630f6447ef146101d557806312812d87146101f157806312d67bf914610221578063248a9ca31461023d575b5f5ffd5b61018f600480360381019061018a91906120e7565b6104f5565b60405161019c919061212c565b60405180910390f35b6101bf60048036038101906101ba91906121d2565b61056e565b6040516101cc919061212c565b60405180910390f35b6101ef60048036038101906101ea91906122c6565b610598565b005b61020b60048036038101906102069190612369565b61089e565b60405161021891906123a3565b60405180910390f35b61023b600480360381019061023691906123bc565b610965565b005b6102576004803603810190610252919061241a565b610a0d565b6040516102649190612454565b60405180910390f35b6102876004803603810190610282919061246d565b610a29565b005b6102a3600480360381019061029e919061246d565b610a4b565b005b6102bf60048036038101906102ba91906124ab565b610ac6565b005b6102c9610c1a565b6040516102d69190612454565b60405180910390f35b6102f960048036038101906102f49190612369565b610c3e565b60405161030c9796959493929190612578565b60405180910390f35b61032f600480360381019061032a91906125ec565b610d0e565b60405161033c9190612657565b60405180910390f35b61035f600480360381019061035a91906121d2565b610d43565b60405161036c91906123a3565b60405180910390f35b61037d610d63565b60405161038a91906123a3565b60405180910390f35b6103ad60048036038101906103a8919061246d565b610d69565b6040516103ba919061212c565b60405180910390f35b6103dd60048036038101906103d891906123bc565b610dcc565b005b6103e7610e74565b6040516103f49190612454565b60405180910390f35b610405610e7a565b60405161041291906126cb565b60405180910390f35b6104356004803603810190610430919061280c565b610e9e565b005b610451600480360381019061044c91906128e8565b611144565b005b61046d600480360381019061046891906121d2565b6114db565b60405161047a91906123a3565b60405180910390f35b61049d60048036038101906104989190612369565b611531565b005b6104b960048036038101906104b49190612369565b6117d0565b005b6104d560048036038101906104d0919061246d565b611b43565b005b6104df611b65565b6040516104ec9190612958565b60405180910390f35b5f7f7965db0b000000000000000000000000000000000000000000000000000000007bffffffffffffffffffffffffffffffffffffffffffffffffffffffff1916827bffffffffffffffffffffffffffffffffffffffffffffffffffffffff19161480610567575061056682611b89565b5b9050919050565b6003602052815f5260405f20602052805f5260405f205f915091509054906101000a900460ff1681565b7fc8082e8a1d5c49c2d93cf2fc8b9b4063e9dfbcf995af2540e967113a8ed851e76105c281611bf2565b8660025f8281526020019081526020015f206006015f9054906101000a900460ff16610623576040517f08c379a000000000000000000000000000000000000000000000000000000000815260040161061a906129bb565b60405180910390fd5b83839050868690501461066b576040517f08c379a000000000000000000000000000000000000000000000000000000000815260040161066290612a23565b60405180910390fd5b5f60025f8a81526020019081526020015f2090505f5f90505f5f90505b82600701805490508110156106d257898360070182815481106106ae576106ad612a41565b5b905f5260205f200154036106c557600191506106d2565b8080600101915050610688565b5080610713576040517f08c379a000000000000000000000000000000000000000000000000000000000815260040161070a90612ab8565b60405180910390fd5b5f5f90505b888890508110156108915760035f8c81526020019081526020015f205f8a8a8481811061074857610747612a41565b5b905060200201602081019061075d91906123bc565b73ffffffffffffffffffffffffffffffffffffffff1673ffffffffffffffffffffffffffffffffffffffff1681526020019081526020015f205f9054906101000a900460ff166107e2576040517f08c379a00000000000000000000000000000000000000000000000000000000081526004016107d990612b20565b60405180910390fd5b8686828181106107f5576107f4612a41565b5b9050602002013560055f8d81526020019081526020015f205f8b8b8581811061082157610820612a41565b5b905060200201602081019061083691906123bc565b73ffffffffffffffffffffffffffffffffffffffff1673ffffffffffffffffffffffffffffffffffffffff1681526020019081526020015f205f82825461087d9190612b6b565b925050819055508080600101915050610718565b5050505050505050505050565b5f5f5f90505f60025f8581526020019081526020015f2090505f5f90505b816007018054905081101561095a575f8260070182815481106108e2576108e1612a41565b5b905f5260205f20015490505f60055f8881526020019081526020015f209050805f3373ffffffffffffffffffffffffffffffffffffffff1673ffffffffffffffffffffffffffffffffffffffff1681526020019081526020015f2054856109499190612b6b565b9450505080806001019150506108bc565b508192505050919050565b5f5f1b61097181611bf2565b5f73ffffffffffffffffffffffffffffffffffffffff168273ffffffffffffffffffffffffffffffffffffffff16036109df576040517f08c379a00000000000000000000000000000000000000000000000000000000081526004016109d690612be8565b60405180910390fd5b610a097fc8082e8a1d5c49c2d93cf2fc8b9b4063e9dfbcf995af2540e967113a8ed851e783610a29565b5050565b5f5f5f8381526020019081526020015f20600101549050919050565b610a3282610a0d565b610a3b81611bf2565b610a458383611c06565b50505050565b610a53611cef565b73ffffffffffffffffffffffffffffffffffffffff168173ffffffffffffffffffffffffffffffffffffffff1614610ab7576040517f6697b23200000000000000000000000000000000000000000000000000000000815260040160405180910390fd5b610ac18282611cf6565b505050565b7fc8082e8a1d5c49c2d93cf2fc8b9b4063e9dfbcf995af2540e967113a8ed851e7610af081611bf2565b8360025f8281526020019081526020015f206006015f9054906101000a900460ff16610b51576040517f08c379a0000000000000000000000000000000000000000000000000000000008152600401610b48906129bb565b60405180910390fd5b8460025f8281526020019081526020015f20600301544211610ba8576040517f08c379a0000000000000000000000000000000000000000000000000000000008152600401610b9f90612c50565b60405180910390fd5b5f60025f8881526020019081526020015f2090505f816006015f6101000a81548160ff021916908315150217905550867f4293cd82d345ce04fd3495d8cc9a0ae413860e4c1904319a8bd1ef431a1ca8c58787604051610c09929190612d2a565b60405180910390a250505050505050565b7fc8082e8a1d5c49c2d93cf2fc8b9b4063e9dfbcf995af2540e967113a8ed851e781565b6002602052805f5260405f205f91509050805f015490806001018054610c6390612d79565b80601f0160208091040260200160405190810160405280929190818152602001828054610c8f90612d79565b8015610cda5780601f10610cb157610100808354040283529160200191610cda565b820191905f5260205f20905b815481529060010190602001808311610cbd57829003601f168201915b505050505090806002015490806003015490806004015490806005015490806006015f9054906101000a900460ff16905087565b6004602052825f5260405f20602052815f5260405f20602052805f5260405f205f92509250509054906101000a900460ff1681565b6005602052815f5260405f20602052805f5260405f205f91509150505481565b60065481565b5f5f5f8481526020019081526020015f205f015f8373ffffffffffffffffffffffffffffffffffffffff1673ffffffffffffffffffffffffffffffffffffffff1681526020019081526020015f205f9054906101000a900460ff16905092915050565b5f5f1b610dd881611bf2565b5f73ffffffffffffffffffffffffffffffffffffffff168273ffffffffffffffffffffffffffffffffffffffff1603610e46576040517f08c379a0000000000000000000000000000000000000000000000000000000008152600401610e3d90612be8565b60405180910390fd5b610e707fc8082e8a1d5c49c2d93cf2fc8b9b4063e9dfbcf995af2540e967113a8ed851e783611b43565b5050565b5f5f1b81565b7f000000000000000000000000000000000000000000000000000000000000000081565b7fc8082e8a1d5c49c2d93cf2fc8b9b4063e9dfbcf995af2540e967113a8ed851e7610ec881611bf2565b5f875111610f0b576040517f08c379a0000000000000000000000000000000000000000000000000000000008152600401610f0290612df3565b60405180910390fd5b428611610f4d576040517f08c379a0000000000000000000000000000000000000000000000000000000008152600401610f4490612e5b565b60405180910390fd5b858511610f8f576040517f08c379a0000000000000000000000000000000000000000000000000000000008152600401610f8690612ec3565b60405180910390fd5b5f8383905011610fd4576040517f08c379a0000000000000000000000000000000000000000000000000000000008152600401610fcb90612f2b565b60405180910390fd5b5f60065f815480929190610fe790612f49565b9190505590506040518061010001604052808281526020018981526020018881526020018781526020018681526020015f81526020016001151581526020018585808060200260200160405190810160405280939291908181526020018383602002808284375f81840152601f19601f8201169050808301925050505050505081525060025f8381526020019081526020015f205f820151815f015560208201518160010190816110989190613127565b5060408201518160020155606082015181600301556080820151816004015560a0820151816005015560c0820151816006015f6101000a81548160ff02191690831515021790555060e08201518160070190805190602001906110fc92919061201b565b50905050807f983e6525f727b8f3ae124cb8c190624755d938c5630ba271a8ab33fb5a81a8ce89896040516111329291906131f6565b60405180910390a25050505050505050565b8260025f8281526020019081526020015f206006015f9054906101000a900460ff166111a5576040517f08c379a000000000000000000000000000000000000000000000000000000000815260040161119c906129bb565b60405180910390fd5b8360025f8281526020019081526020015f206002015442106111fc576040517f08c379a00000000000000000000000000000000000000000000000000000000081526004016111f39061326e565b60405180910390fd5b60035f8681526020019081526020015f205f3373ffffffffffffffffffffffffffffffffffffffff1673ffffffffffffffffffffffffffffffffffffffff1681526020019081526020015f205f9054906101000a900460ff16611294576040517f08c379a000000000000000000000000000000000000000000000000000000000815260040161128b906132d6565b60405180910390fd5b60018360ff1614806112a9575060028360ff16145b6112e8576040517f08c379a00000000000000000000000000000000000000000000000000000000081526004016112df9061333e565b60405180910390fd5b5f60025f8781526020019081526020015f2090505f5f90505f5f90505b826007018054905081101561134f578683600701828154811061132b5761132a612a41565b5b905f5260205f20015403611342576001915061134f565b8080600101915050611305565b5080611390576040517f08c379a000000000000000000000000000000000000000000000000000000000815260040161138790612ab8565b60405180910390fd5b8460045f8981526020019081526020015f205f3373ffffffffffffffffffffffffffffffffffffffff1673ffffffffffffffffffffffffffffffffffffffff1681526020019081526020015f205f8881526020019081526020015f205f6101000a81548160ff021916908360ff1602179055507f000000000000000000000000000000000000000000000000000000000000000073ffffffffffffffffffffffffffffffffffffffff16633500836c3388886040518463ffffffff1660e01b81526004016114609392919061336b565b5f604051808303815f87803b158015611477575f5ffd5b505af1158015611489573d5f5f3e3d5ffd5b505050503373ffffffffffffffffffffffffffffffffffffffff1686887fba5b8d5385faa94061cd3a7208c929f9e268acc3259259de250ece8dd41b349c60405160405180910390a450505050505050565b5f60055f8481526020019081526020015f205f8373ffffffffffffffffffffffffffffffffffffffff1673ffffffffffffffffffffffffffffffffffffffff1681526020019081526020015f2054905092915050565b611539611ddf565b8060025f8281526020019081526020015f206006015f9054906101000a900460ff1661159a576040517f08c379a0000000000000000000000000000000000000000000000000000000008152600401611591906129bb565b60405180910390fd5b8160025f8281526020019081526020015f206002015442106115f1576040517f08c379a00000000000000000000000000000000000000000000000000000000081526004016115e89061326e565b60405180910390fd5b60035f8481526020019081526020015f205f3373ffffffffffffffffffffffffffffffffffffffff1673ffffffffffffffffffffffffffffffffffffffff1681526020019081526020015f205f9054906101000a900460ff161561168a576040517f08c379a0000000000000000000000000000000000000000000000000000000008152600401611681906133ea565b60405180910390fd5b5f60025f8581526020019081526020015f2090505f8160040154111561171a576116fb333083600401547f000000000000000000000000000000000000000000000000000000000000000073ffffffffffffffffffffffffffffffffffffffff16611e25909392919063ffffffff16565b8060040154816005015f8282546117129190612b6b565b925050819055505b600160035f8681526020019081526020015f205f3373ffffffffffffffffffffffffffffffffffffffff1673ffffffffffffffffffffffffffffffffffffffff1681526020019081526020015f205f6101000a81548160ff0219169083151502179055503373ffffffffffffffffffffffffffffffffffffffff16847f87969bc7faf902221a147b95ceba76e011c5efb0339a0a8ee7a2bb82d9cfbbd660405160405180910390a35050506117cd611ea7565b50565b6117d8611ddf565b8060025f8281526020019081526020015f206006015f9054906101000a900460ff16611839576040517f08c379a0000000000000000000000000000000000000000000000000000000008152600401611830906129bb565b60405180910390fd5b8160025f8281526020019081526020015f20600301544211611890576040517f08c379a000000000000000000000000000000000000000000000000000000000815260040161188790612c50565b60405180910390fd5b60035f8481526020019081526020015f205f3373ffffffffffffffffffffffffffffffffffffffff1673ffffffffffffffffffffffffffffffffffffffff1681526020019081526020015f205f9054906101000a900460ff16611928576040517f08c379a000000000000000000000000000000000000000000000000000000000815260040161191f906132d6565b60405180910390fd5b5f60055f8581526020019081526020015f205f3373ffffffffffffffffffffffffffffffffffffffff1673ffffffffffffffffffffffffffffffffffffffff1681526020019081526020015f205490505f81116119ba576040517f08c379a00000000000000000000000000000000000000000000000000000000081526004016119b190613452565b60405180910390fd5b5f60025f8681526020019081526020015f2090505f6119d88661089e565b90505f8111611a1c576040517f08c379a0000000000000000000000000000000000000000000000000000000008152600401611a13906134ba565b60405180910390fd5b5f81848460050154611a2e91906134d8565b611a389190613546565b90505f8111611a7c576040517f08c379a0000000000000000000000000000000000000000000000000000000008152600401611a73906135c0565b60405180910390fd5b80836005015f828254611a8f91906135de565b925050819055505f60055f8981526020019081526020015f205f3373ffffffffffffffffffffffffffffffffffffffff1673ffffffffffffffffffffffffffffffffffffffff1681526020019081526020015f2081905550611b3233827f000000000000000000000000000000000000000000000000000000000000000073ffffffffffffffffffffffffffffffffffffffff16611eb09092919063ffffffff16565b505050505050611b40611ea7565b50565b611b4c82610a0d565b611b5581611bf2565b611b5f8383611cf6565b50505050565b7f000000000000000000000000000000000000000000000000000000000000000081565b5f7f01ffc9a7000000000000000000000000000000000000000000000000000000007bffffffffffffffffffffffffffffffffffffffffffffffffffffffff1916827bffffffffffffffffffffffffffffffffffffffffffffffffffffffff1916149050919050565b611c0381611bfe611cef565b611f2f565b50565b5f611c118383610d69565b611ce55760015f5f8581526020019081526020015f205f015f8473ffffffffffffffffffffffffffffffffffffffff1673ffffffffffffffffffffffffffffffffffffffff1681526020019081526020015f205f6101000a81548160ff021916908315150217905550611c82611cef565b73ffffffffffffffffffffffffffffffffffffffff168273ffffffffffffffffffffffffffffffffffffffff16847f2f8788117e7eff1d82e926ec794901d17c78024a50270940304540a733656f0d60405160405180910390a460019050611ce9565b5f90505b92915050565b5f33905090565b5f611d018383610d69565b15611dd5575f5f5f8581526020019081526020015f205f015f8473ffffffffffffffffffffffffffffffffffffffff1673ffffffffffffffffffffffffffffffffffffffff1681526020019081526020015f205f6101000a81548160ff021916908315150217905550611d72611cef565b73ffffffffffffffffffffffffffffffffffffffff168273ffffffffffffffffffffffffffffffffffffffff16847ff6391f5c32d9c69d2a47ea670b442974b53935d1edc7fd64eb21e047a839171b60405160405180910390a460019050611dd9565b5f90505b92915050565b600260015403611e1b576040517f3ee5aeb500000000000000000000000000000000000000000000000000000000815260040160405180910390fd5b6002600181905550565b611ea1848573ffffffffffffffffffffffffffffffffffffffff166323b872dd868686604051602401611e5a93929190613611565b604051602081830303815290604052915060e01b6020820180517bffffffffffffffffffffffffffffffffffffffffffffffffffffffff8381831617835250505050611f80565b50505050565b60018081905550565b611f2a838473ffffffffffffffffffffffffffffffffffffffff1663a9059cbb8585604051602401611ee3929190613646565b604051602081830303815290604052915060e01b6020820180517bffffffffffffffffffffffffffffffffffffffffffffffffffffffff8381831617835250505050611f80565b505050565b611f398282610d69565b611f7c5780826040517fe2517d3f000000000000000000000000000000000000000000000000000000008152600401611f7392919061366d565b60405180910390fd5b5050565b5f5f60205f8451602086015f885af180611f9f576040513d5f823e3d81fd5b3d92505f519150505f8214611fb8576001811415611fd3565b5f8473ffffffffffffffffffffffffffffffffffffffff163b145b1561201557836040517f5274afe700000000000000000000000000000000000000000000000000000000815260040161200c9190613694565b60405180910390fd5b50505050565b828054828255905f5260205f20908101928215612055579160200282015b82811115612054578251825591602001919060010190612039565b5b5090506120629190612066565b5090565b5b8082111561207d575f815f905550600101612067565b5090565b5f604051905090565b5f5ffd5b5f5ffd5b5f7fffffffff0000000000000000000000000000000000000000000000000000000082169050919050565b6120c681612092565b81146120d0575f5ffd5b50565b5f813590506120e1816120bd565b92915050565b5f602082840312156120fc576120fb61208a565b5b5f612109848285016120d3565b91505092915050565b5f8115159050919050565b61212681612112565b82525050565b5f60208201905061213f5f83018461211d565b92915050565b5f819050919050565b61215781612145565b8114612161575f5ffd5b50565b5f813590506121728161214e565b92915050565b5f73ffffffffffffffffffffffffffffffffffffffff82169050919050565b5f6121a182612178565b9050919050565b6121b181612197565b81146121bb575f5ffd5b50565b5f813590506121cc816121a8565b92915050565b5f5f604083850312156121e8576121e761208a565b5b5f6121f585828601612164565b9250506020612206858286016121be565b9150509250929050565b5f5ffd5b5f5ffd5b5f5ffd5b5f5f83601f84011261223157612230612210565b5b8235905067ffffffffffffffff81111561224e5761224d612214565b5b60208301915083602082028301111561226a57612269612218565b5b9250929050565b5f5f83601f84011261228657612285612210565b5b8235905067ffffffffffffffff8111156122a3576122a2612214565b5b6020830191508360208202830111156122bf576122be612218565b5b9250929050565b5f5f5f5f5f5f608087890312156122e0576122df61208a565b5b5f6122ed89828a01612164565b96505060206122fe89828a01612164565b955050604087013567ffffffffffffffff81111561231f5761231e61208e565b5b61232b89828a0161221c565b9450945050606087013567ffffffffffffffff81111561234e5761234d61208e565b5b61235a89828a01612271565b92509250509295509295509295565b5f6020828403121561237e5761237d61208a565b5b5f61238b84828501612164565b91505092915050565b61239d81612145565b82525050565b5f6020820190506123b65f830184612394565b92915050565b5f602082840312156123d1576123d061208a565b5b5f6123de848285016121be565b91505092915050565b5f819050919050565b6123f9816123e7565b8114612403575f5ffd5b50565b5f81359050612414816123f0565b92915050565b5f6020828403121561242f5761242e61208a565b5b5f61243c84828501612406565b91505092915050565b61244e816123e7565b82525050565b5f6020820190506124675f830184612445565b92915050565b5f5f604083850312156124835761248261208a565b5b5f61249085828601612406565b92505060206124a1858286016121be565b9150509250929050565b5f5f5f604084860312156124c2576124c161208a565b5b5f6124cf86828701612164565b935050602084013567ffffffffffffffff8111156124f0576124ef61208e565b5b6124fc8682870161221c565b92509250509250925092565b5f81519050919050565b5f82825260208201905092915050565b8281835e5f83830152505050565b5f601f19601f8301169050919050565b5f61254a82612508565b6125548185612512565b9350612564818560208601612522565b61256d81612530565b840191505092915050565b5f60e08201905061258b5f83018a612394565b818103602083015261259d8189612540565b90506125ac6040830188612394565b6125b96060830187612394565b6125c66080830186612394565b6125d360a0830185612394565b6125e060c083018461211d565b98975050505050505050565b5f5f5f606084860312156126035761260261208a565b5b5f61261086828701612164565b9350506020612621868287016121be565b925050604061263286828701612164565b9150509250925092565b5f60ff82169050919050565b6126518161263c565b82525050565b5f60208201905061266a5f830184612648565b92915050565b5f819050919050565b5f61269361268e61268984612178565b612670565b612178565b9050919050565b5f6126a482612679565b9050919050565b5f6126b58261269a565b9050919050565b6126c5816126ab565b82525050565b5f6020820190506126de5f8301846126bc565b92915050565b5f5ffd5b7f4e487b71000000000000000000000000000000000000000000000000000000005f52604160045260245ffd5b61271e82612530565b810181811067ffffffffffffffff8211171561273d5761273c6126e8565b5b80604052505050565b5f61274f612081565b905061275b8282612715565b919050565b5f67ffffffffffffffff82111561277a576127796126e8565b5b61278382612530565b9050602081019050919050565b828183375f83830152505050565b5f6127b06127ab84612760565b612746565b9050828152602081018484840111156127cc576127cb6126e4565b5b6127d7848285612790565b509392505050565b5f82601f8301126127f3576127f2612210565b5b813561280384826020860161279e565b91505092915050565b5f5f5f5f5f5f60a087890312156128265761282561208a565b5b5f87013567ffffffffffffffff8111156128435761284261208e565b5b61284f89828a016127df565b965050602061286089828a01612164565b955050604061287189828a01612164565b945050606061288289828a01612164565b935050608087013567ffffffffffffffff8111156128a3576128a261208e565b5b6128af89828a01612271565b92509250509295509295509295565b6128c78161263c565b81146128d1575f5ffd5b50565b5f813590506128e2816128be565b92915050565b5f5f5f606084860312156128ff576128fe61208a565b5b5f61290c86828701612164565b935050602061291d86828701612164565b925050604061292e868287016128d4565b9150509250925092565b5f6129428261269a565b9050919050565b61295281612938565b82525050565b5f60208201905061296b5f830184612949565b92915050565b7f546f75726e616d656e74206e6f742061637469766500000000000000000000005f82015250565b5f6129a5601583612512565b91506129b082612971565b602082019050919050565b5f6020820190508181035f8301526129d281612999565b9050919050565b7f4c656e677468206d69736d6174636800000000000000000000000000000000005f82015250565b5f612a0d600f83612512565b9150612a18826129d9565b602082019050919050565b5f6020820190508181035f830152612a3a81612a01565b9050919050565b7f4e487b71000000000000000000000000000000000000000000000000000000005f52603260045260245ffd5b7f496e76616c6964206d61746368000000000000000000000000000000000000005f82015250565b5f612aa2600d83612512565b9150612aad82612a6e565b602082019050919050565b5f6020820190508181035f830152612acf81612a96565b9050919050565b7f496e76616c6964207061727469636970616e74000000000000000000000000005f82015250565b5f612b0a601383612512565b9150612b1582612ad6565b602082019050919050565b5f6020820190508181035f830152612b3781612afe565b9050919050565b7f4e487b71000000000000000000000000000000000000000000000000000000005f52601160045260245ffd5b5f612b7582612145565b9150612b8083612145565b9250828201905080821115612b9857612b97612b3e565b5b92915050565b7f496e76616c69642061646d696e206164647265737300000000000000000000005f82015250565b5f612bd2601583612512565b9150612bdd82612b9e565b602082019050919050565b5f6020820190508181035f830152612bff81612bc6565b9050919050565b7f546f75726e616d656e74206e6f7420656e6465640000000000000000000000005f82015250565b5f612c3a601483612512565b9150612c4582612c06565b602082019050919050565b5f6020820190508181035f830152612c6781612c2e565b9050919050565b5f82825260208201905092915050565b5f819050919050565b612c9081612197565b82525050565b5f612ca18383612c87565b60208301905092915050565b5f612cbb60208401846121be565b905092915050565b5f602082019050919050565b5f612cda8385612c6e565b9350612ce582612c7e565b805f5b85811015612d1d57612cfa8284612cad565b612d048882612c96565b9750612d0f83612cc3565b925050600181019050612ce8565b5085925050509392505050565b5f6020820190508181035f830152612d43818486612ccf565b90509392505050565b7f4e487b71000000000000000000000000000000000000000000000000000000005f52602260045260245ffd5b5f6002820490506001821680612d9057607f821691505b602082108103612da357612da2612d4c565b5b50919050565b7f496e76616c6964206e616d6500000000000000000000000000000000000000005f82015250565b5f612ddd600c83612512565b9150612de882612da9565b602082019050919050565b5f6020820190508181035f830152612e0a81612dd1565b9050919050565b7f496e76616c69642073746172742074696d6500000000000000000000000000005f82015250565b5f612e45601283612512565b9150612e5082612e11565b602082019050919050565b5f6020820190508181035f830152612e7281612e39565b9050919050565b7f496e76616c696420656e642074696d65000000000000000000000000000000005f82015250565b5f612ead601083612512565b9150612eb882612e79565b602082019050919050565b5f6020820190508181035f830152612eda81612ea1565b9050919050565b7f4e6f206d6174636865732070726f7669646564000000000000000000000000005f82015250565b5f612f15601383612512565b9150612f2082612ee1565b602082019050919050565b5f6020820190508181035f830152612f4281612f09565b9050919050565b5f612f5382612145565b91507fffffffffffffffffffffffffffffffffffffffffffffffffffffffffffffffff8203612f8557612f84612b3e565b5b600182019050919050565b5f819050815f5260205f209050919050565b5f6020601f8301049050919050565b5f82821b905092915050565b5f60088302612fec7fffffffffffffffffffffffffffffffffffffffffffffffffffffffffffffffff82612fb1565b612ff68683612fb1565b95508019841693508086168417925050509392505050565b5f61302861302361301e84612145565b612670565b612145565b9050919050565b5f819050919050565b6130418361300e565b61305561304d8261302f565b848454612fbd565b825550505050565b5f5f905090565b61306c61305d565b613077818484613038565b505050565b5b8181101561309a5761308f5f82613064565b60018101905061307d565b5050565b601f8211156130df576130b081612f90565b6130b984612fa2565b810160208510156130c8578190505b6130dc6130d485612fa2565b83018261307c565b50505b505050565b5f82821c905092915050565b5f6130ff5f19846008026130e4565b1980831691505092915050565b5f61311783836130f0565b9150826002028217905092915050565b61313082612508565b67ffffffffffffffff811115613149576131486126e8565b5b6131538254612d79565b61315e82828561309e565b5f60209050601f83116001811461318f575f841561317d578287015190505b613187858261310c565b8655506131ee565b601f19841661319d86612f90565b5f5b828110156131c45784890151825560018201915060208501945060208101905061319f565b868310156131e157848901516131dd601f8916826130f0565b8355505b6001600288020188555050505b505050505050565b5f6040820190508181035f83015261320e8185612540565b905061321d6020830184612394565b9392505050565b7f546f75726e616d656e74207374617274656400000000000000000000000000005f82015250565b5f613258601283612512565b915061326382613224565b602082019050919050565b5f6020820190508181035f8301526132858161324c565b9050919050565b7f4e6f74207061727469636970616e7400000000000000000000000000000000005f82015250565b5f6132c0600f83612512565b91506132cb8261328c565b602082019050919050565b5f6020820190508181035f8301526132ed816132b4565b9050919050565b7f496e76616c69642070726564696374696f6e00000000000000000000000000005f82015250565b5f613328601283612512565b9150613333826132f4565b602082019050919050565b5f6020820190508181035f8301526133558161331c565b9050919050565b61336581612197565b82525050565b5f60608201905061337e5f83018661335c565b61338b6020830185612394565b6133986040830184612648565b949350505050565b7f416c7265616479206a6f696e65640000000000000000000000000000000000005f82015250565b5f6133d4600e83612512565b91506133df826133a0565b602082019050919050565b5f6020820190508181035f830152613401816133c8565b9050919050565b7f4e6f207265776172647320746f20636c61696d000000000000000000000000005f82015250565b5f61343c601383612512565b915061344782613408565b602082019050919050565b5f6020820190508181035f83015261346981613430565b9050919050565b7f4e6f20746f74616c2073636f72650000000000000000000000000000000000005f82015250565b5f6134a4600e83612512565b91506134af82613470565b602082019050919050565b5f6020820190508181035f8301526134d181613498565b9050919050565b5f6134e282612145565b91506134ed83612145565b92508282026134fb81612145565b9150828204841483151761351257613511612b3e565b5b5092915050565b7f4e487b71000000000000000000000000000000000000000000000000000000005f52601260045260245ffd5b5f61355082612145565b915061355b83612145565b92508261356b5761356a613519565b5b828204905092915050565b7f4e6f2072657761726400000000000000000000000000000000000000000000005f82015250565b5f6135aa600983612512565b91506135b582613576565b602082019050919050565b5f6020820190508181035f8301526135d78161359e565b9050919050565b5f6135e882612145565b91506135f383612145565b925082820390508181111561360b5761360a612b3e565b5b92915050565b5f6060820190506136245f83018661335c565b613631602083018561335c565b61363e6040830184612394565b949350505050565b5f6040820190506136595f83018561335c565b6136666020830184612394565b9392505050565b5f6040820190506136805f83018561335c565b61368d6020830184612445565b9392505050565b5f6020820190506136a75f83018461335c565b9291505056fea264697066735822122070e27e23e38435c01bd4b77924aee7fa48c45a2853cf89858a4aa1ca0318690864736f6c634300081c0033","linkReferences":{}},"methodIdentifiers":{"DEFAULT_ADMIN_ROLE()":"a217fddf","TOURNAMENT_ADMIN()":"64762605","addTournamentAdmin(address)":"12d67bf9","bettingPool()":"a55e7756","claimTournamentRewards(uint256)":"d333cdc4","createTournament(string,uint256,uint256,uint256,uint256[])":"a8732044","finalizeTournament(uint256,address[])":"4240d985","getPlayerScore(uint256,address)":"c617b26a","getRoleAdmin(bytes32)":"248a9ca3","getTotalScore(uint256)":"12812d87","grantRole(bytes32,address)":"2f2ff15d","hasRole(bytes32,address)":"91d14854","joinTournament(uint256)":"d115cac6","nextTournamentId()":"852efc3d","participants(uint256,address)":"02e060c6","predictions(uint256,address,uint256)":"76ab4769","removeTournamentAdmin(address)":"a0bea173","renounceRole(bytes32,address)":"36568abe","revokeRole(bytes32,address)":"d547741f","scores(uint256,address)":"7a07b674","submitPrediction(uint256,uint256,uint8)":"bb59e3f0","supportsInterface(bytes4)":"01ffc9a7","token()":"fc0c546a","tournaments(uint256)":"7503e1b7","updateScores(uint256,uint256,address[],uint256[])":"0f6447ef"},"id":31}